:100E520075B10075B20075B30075B40075AC00755C
:100E6200AD007F007EC27D017C00121524120B9C16
:030E720012124019
:100E750012164D8F2212162C8F231215D48F24AFE4
:100E8500227E00EF24CDFFEE34FFFEC3EE64809496
:100E950080401CAF227E00EF24CDFFEE34FFFEEF35
:100EA50025E0FFEE33FE7C007D0312056C80027F9A
:100EB500008F25AF227E00D3EF9434EE64809480BA
:100EC5005003020F8743DE2043DE10C282D293AF68
:100ED500237E00D3EF9439EE6480948040047F0133
:100EE50080027F00EF1207070EF7000F01010000D7
:100EF5000E75AD24AF2512107F020E75AFCC7E00A6
:100F0500D3EF947DEE648094805003020E75AC237C
:100F1500E41202AB7B337A3379B3783E1200FB12CD
:100F250002DF8F237D14AF231212A67C007D0312EE
:100F3500055A7C007D021205C1ADCC7C00EF2DFF6A
:100F4500EE3CFED3EF9432EE6480948040217D1414
:100F5500AF231212A67C007D0312055A7C007D0288
:100F65001205C1ADCC7C00EF2DFFEE3CFE80047E6A
:100F7500007F328FCCD2DED2DF752300020E7502E0
:100F85000E75208003309038D282C29375CC00D282
:100F9500DED2DF7F907E017D007C0012147875CC57
:100FA50007D2DED2DF7F907E017D007C00121478AF
:100FB5001216B653DEDF53DEEFC281D283020E7501
:0A0FC50075CC00D2DED2DF1216B6A2
:040FCF00020E752277
:101567000A42616E646761702076616C75653A2521
:10157700640A000A42616E6467617020766F206CAE
:10158700746167653A25646D560A004144432076C5
:08159700616C75653A256400E2
:0616AF00014901014201A6
:0412A6008F268D27DB
:1012AA00C3E5269527F543AF48AE47AD46AC45C0E2
:1012BA0004C005C006C007AF447E00AD437C00C32E
:1012CA00ED9FFFEC9EFEAD427C0012055AAC06ADC6
:1012DA0007EC1202A6A804A905AA06AB07D007D0F4
:1012EA0006D005D0041200068F488E478D468C45DD
:0E12FA00854344AF48AE47AD46AC451202DF17
:0113080022C2
:100B9C00D282D293D292C29043B38053B47F43ACEF
:100BAC000153ADFE43B12053B2DFC28553B1FD43B7
:100BBC00B20253B1F743B20853B3EF43B41053B17D
:100BCC00FE43B20153B3FE43B401D294C280C2902F
:100BDC00A2AF9209C2AF75C7AA75C755439F01A2B0
:100BEC000992AF75A60D75A70075AF04A2AF920957
:100BFC00C2AF75C7AA75C75543A401A20992AF85A8
:100C0C00AE4FE54F54F0F55CAF5C7E00EF64804E68
:100C1C006003020CA3534F0F75A60C75A700A2AF6F
:100C2C009209C2AF75C7AA75C75543A401A2099210
:100C3C00AF85AE4EAF4E7E00EF75F010A4FFAEF058
:100C4C00AD4F7C00EF2DFDEE3CFCEC1202A68F5B51
:100C5C008E5A8D598C587F007E007D407C40AB5B5A
:100C6C00AA5AA959A8581200FB7B007A00798078FF
:100C7C00401202048F4D8E4C8D4B8C4AAF4DAE4CB6
:100C8C00AD4BAC4A7B007A00790478C212000A8F13
:100C9C004D8E4C8D4B8C4AAF5C7E00EF4E70675383
:100CAC004F0F75A60C75A700A2AF9209C2AF75C7FE
:100CBC00AA75C75543A401A20992AF85AE4EAF4E9B
:100CCC007E00EF75F010A4FFAEF0AD4F7C00EF2D61
:100CDC00FDEE3CFCEC1202A68F5B8E5A8D598C58A3
:100CEC007F007E007D407C40AB5BAA5AA959A85876
:100CFC001200FB7B007A00798078401202048F4D41
:100D0C008E4C8D4B8C4AAF5C7E00EF64904E600332
:100D1C00020DA275A60E75A700A2AF9209C2AF75FF
:100D2C00C7AA75C75543A401A20992AF85AE4E75EB
:100D3C00A60F75A700A2AF9209C2AF75C7AA75C757
:100D4C005543A401A20992AF85AE4F534F0FAF4E3E
:100D5C007E00EF75F010A4FFAEF0AD4F7C00EF2DD0
:100D6C00FDEE3CFCEC1202A68F5B8E5A8D598C5812
:100D7C007F007E007D407C40AB5BAA5AA959A858E5
:100D8C001200FB7B007A00798078401202048F4DB0
:100D9C008E4C8D4B8C4A7BFF7A157967AF5BAE5AC4
:100DAC00AD59AC588F2C8E2B8D2A8C2912078F7B2A
:100DBC00FF7A15797AAF4DAE4CAD4BAC4A8F2C8E79
:100DCC002B8D2A8C2912078FA2AF9209C2AF75C73F
:100DDC00AA75C755539FFEA20992AF53E8F043B3CF
:100DEC008053B47F75F60043F60143E101754E0064
:100DFC00AF4E7E00C3EF9403EE648094805046C2E5
:100E0C00EFD2EE30EFFDAFC37E00EF75F010A4FF14
:100E1C00AEF0ADC27C00EF2DFDEE3CFCEC1202A658
:100E2C008F538E528D518C507BFF7A157992AF5324
:100E3C00AE52AD51AC508F2C8E2B8D2A8C291207B3
:060E4C008F054E80AB2271
:10162C0053E8F043E80443B12053B2DF75F60043AE
:10163C00F61043E101C2EFD2EE30EFFDAFC37E00F6
:01164C00227B
:10164D0053E8F043B38053B47F75F60043F601437E
:0E165D00E101C2EFD2EE30EFFDAFC37E0022FE
:1015D40053E8F043E80143AC0153ADFE75F6004314
:1015E400F60243E101C2EFD2EE30EFFDAFC37E005D
:1015F400D3EF9464EE6480948040037F01227F00E3
:0116040022C3
:10166B008F29AF297E00EF64014E7005C290D280A6
:06167B0022C280D2902281
:0516B600C280C2902279
:04159F008E268F27DE
:1015A300852729E526FF7E008F28A2AF9209AF2861
:1015B3007E00EF64014E700BC2AF75C7AA75C755A5
:1015C30043F91075C7AA75C7558529FAA20992AFC1
:0115D30022F5
:1012400043DE2043DE1043D61043DF4053DF7F43AD
:10125000DF0553DFFD75D10075D9FFA2AF9209C23A
:10126000AF75C7AA75C755439101A20992AF75C45E
:101270000075CC00A2AF9209C2AF75C7AA75C75559
:101280005391FEA20992AFA2AF9209C2AF75C7AA4D
:1012900075C75543F904A20992AF7F407E0012152D
:0612A0009FD2DED2DF2226
:10107F008F268D27A2AF9209C2AF75C7AA75C75524
:10108F00439101A20992AF754901AF267E00D3EFBC
:10109F009464EE6480948040047F648002AF268F56
:0510AF0026E549606A1E
:1010B400AF267E05EF8EF0A4FFAEF0EEC313FEEF75
:1010C40013FF8F28AF267E00C3EE648094804027F0
:1010D400AF267E00D3EF9464EE648094805018E5CC
:1010E400CCC39528500405CC800DE5CCB5280575F6
:1010F400490080038528CCAFCC7E00D3EF940AEE60
:10110400648094804005AF2712166B7F0A7E007DB1
:0A111400007C00121478D2DED2DF56
:01111E0022AE
:101422008F0B8E0A8D098C08538EF7438901D28C5B
:101432007F007E007D007C00AB0BAA0AA909A808E8
:10144200C31206D3602D758A7E758CFF308DFDC266
:101452008DAF0BAE0AAD09AC087BFF7AFF79FF783E
:10146200FFEF2BF50BEE3AF50AED39F509EC38F5FD
:061472000880BDC28C22BF
:101478008F2C8E2B8D2A8C29538EF7438901D28C81
:101488007F007E007D007C00AB2CAA2BA92AA8290E
:10149800C31206D3602D758ACA758CFA308DFDC2C9
:1014A8008DAF2CAE2BAD2AAC297BFF7AFF79FF7864
:1014B800FFEF2BF52CEE3AF52BED39F52AEC38F544
:0614C8002980BDC28C2248
:1014CE008F0F8E0E8D0D8C0C538EEF438910D28E96
:1014DE007F007E007D007C00AB0FAA0EA90DA80C2C
:1014EE00C31206D3602D758BEA758DCB308FFDC27E
:1014FE008FAF0FAE0EAD0DAC0C7BFF7AFF79FF7880
:10150E00FFEF2BF50FEE3AF50EED39F50DEC38F544
:06151E000C80BDC28E220C
:1013C9008F138E128D118C1053C9BF53C9DF43C9B6
:1013D90010D2CA7F007E007D007C00AB13AA12A93F
:1013E90011A810C31206D3602D75CC3075CDF83015
:1013F900CFFDC2CFAF13AE12AD11AC107BFF7AFF98
:1014090079FF78FFEF2BF513EE3AF512ED39F51167
:09141900EC38F51080BDC2CA22B6
:101309008F178E168D158C1475C40743C4087F007A
:101319007E007D007C00AB17AA16A915A814C3127C
:1013290006D3603875C52C75C6CFE5C45410FF7E49
:1013390000EF64104E70F353C4EFAF17AE16AD153E
:10134900AC147BFF7AFF79FF78FFEF2BF517EE3AA4
:10135900F516ED39F515EC38F51480B253C4F722BA
:101369008F1B8E1A8D198C1875C40743C4087F000A
:101379007E007D007C00AB1BAA1AA919A818C3120C
:1013890006D3603875C5D875C6FFE5C45410FF7E0D
:1013990000EF64104E70F353C4EFAF1BAE1AAD19D2
:1013A900AC187BFF7AFF79FF78FFEF2BF51BEE3A3C
:1013B900F51AED39F519EC38F51880B253C4F7224E
:101524008F298E288D278C2653B1BF53B2BF53B158
:101534007F53B27F759850438920438780438E1030
:1015440053C4DFAB29AA28A927A8267F407E427D61
:101554000F7C00120633EF04FFEFF404F58DD28EF6
:03156400D29922F7
:10111F008F1F8E1E8D1D8C1C53B1BF53B2BF53B189
:10112F007F53B27F75985043878053C4F843C420D0
:10113F00AB1FAA1EA91DA81C7F407E427D0F7C00FD
:10114F00120633A804A905AA06AB07C374FF9BFFB9
:10115F0074FF9AFEE499FDE498FC78081206E48F78
:10116F00C6AB1FAA1EA91DA81C7F407E427D0F7C07
:10117F0000120633A804A905AA06AB07C374FF9B88
:10118F00FF74FF9AFEE499FDE498FCEF54FFFFEE25
:10119F005400FEED5400FDEC5400FC8FC543C40811
:0311AF00D29922B0
:0A168E003098FD859963C298AF63A0
:01169800222F
:0D1681008E618F62C2998562993099FD22B9
:1011B2008F608E5F8D5E8C5D53B1FB53B2FB53B378
:1011C200BF53B4BF75F85075C40853C4DFAB60AAEF
:1011D2005FA95EA85D7F407E427D0F7C00120633D0
:1011E200A804A905AA06AB07C374FF9BFF74FF9A64
:1011F200FEE499FDE498FC78081206E48FC6AB6021
:10120200AA5FA95EA85D7F407E427D0F7C00120628
:1012120033A804A905AA06AB07C374FF9BFF74FF9A
:101222009AFEE499FDE498FCEF54FFFFEE5400FEB1
:0E123200ED5400FDEC5400FC8FC543C40822AF
:0A16990030F8FD859A64C2F8AF64D2
:0116A3002224
:0B16A4008F65C2F985659A30F9FD22C0
:03000000020FD319
:100FD30075C7AA75C75575FD5A75C7AA75C75575DF
:100FE300FDA5787FE4F6D8FD9000007FFF7E03E443
:0C0FF300F0A3DFFCDEFA75816502103A05
:1000030002034BE86480F8E933E83360110460F0DD
:10001300ED33EC337009E8FCE9FDEAFEEBFF220463
:1000230060DED3EB9FEA9EE99DE8C2E78CF0C2F75E
:1000330095F0400CE8CCF8E9CDF9EACEFAEBCFFB2A
:1000430012031685D0F05804700320D5B3E804706A
:10005300075002B2D502035592D5EC0460F7E4CC05
:10006300C0E0C398F8603B94186008400DD0E0FBF3
:1000730002032DE4FBFAC9FC8028E830E406E4C956
:10008300FBE4CAFCE830E305E4C9CACBFCE8540747
:100093006010F8C3E913F9EA13FAEB13FBEC13FC52
:1000A300D8F130F52FC3E49CFCEF9BFFEE9AFEEDF5
:1000B30099FDD0E0FBEF4E4D4C701222DB0302039F
:1000C30052EC2CFCEF33FFEE33FEED33FDED30E766
:1000D300EB02032DEF2BFFEE3AFEED39FDD0E0FBF3
:1000E30050130BBB0003020355ED13FDEE13FEEF9C
:0800F30013FFEC13FC02032DC6
:1000FB00EC4D6011E8497017ED33EC3304600DE4FF
:10010B00FCFFFEFD22E933E8330470F802034B12C7
:10011B00031658046009E4CC2481500628500902C8
:10012B000355284003020352C0E0EB4A7044B980E8
:10013B0006D0E0FB020341EF4E701CBD8008EBFFC5
:10014B00EAFEE9FD80EBE98DF0A4FEE5F00201E4A7
:10015B00E9CDF9EAFEEBFFEF89F0A4FCE5F0CE89DF
:10016B00F0A42EFFE435F0CD89F0A42DFEE435F09C
:10017B008067EF4E7005BD80D780C3EF8BF0A4ACCA
:10018B00F0EE8BF0A42CFCE435F0F8EF8AF0A42C05
:10019B00E5F038FCE433CB8DF0A42CFCE5F03BF818
:1001AB00EE8AF0A42CFCE5F038F8E433CF89F0A408
:1001BB002CFCE5F038CF3400CE89F0A42FFFE5F00E
:1001CB003EFEE433C98DF0A42EFEE5F039CD8AF066
:1001DB00A42FFFE5F03EFEE43DFD33D0E0FB5007DE
:1001EB000BBB000F020355EC2CFCEF33FFEE33FE81
:0601FB00ED33FD02032DAF
:10020100020355EC5D046005E85904700302034BD9
:10021100120316580460F6EC4860F2EC7004FDFE1F
:10022100FF22C860DB2481C85009C39860025006D0
:100231000203529850CAF582E9294B4A7005AB82F4
:1002410002034175F0007C1A7880C3EF9BEE9AEDB2
:1002510099400DC3EF9BFFEE9AFEED99FDE842F048
:10026100DC23ACF0D0E0FFD0E0FED0E0FDAB82209B
:10027100E7101BEB60BAEC2CFCEF33FFEE33FEED25
:1002810033FD02032DE803F830E705C0F075F000F7
:10029100EF2FFFEE33FEED33FD40B830E7C280AA09
:1002A10075F020800E75F010800575F0087D007ED8
:1002B100007F003392D530D5031206C5EC334010D0
:1002C100EF33FFEE33FEED33FDEC33FCD5F0ED22E1
:0E02D100E5F0247EA2D513CC92E7CDCEFF221D
:1002DF00EDD2E7CD33EC3392D524814006E4FFFE17
:1002EF00FDFC22FCE4CFCECDCC24E0501174FF8076
:1002FF00EDC3CC13CCCD13CDCE13CECF13CF047013
:07030F00F030D5DE0206C547
:10072D00E53D2429F8E6053D227826300702782993
:10073D00E475F0011206F70205022000EB7F2ED2C0
:10074D00008018EF540F2490D43440D4FF30040BA4
:10075D00EF24BFB41A0050032461FFE53E6002157B
:10076D003E0541E5417002054030070D7826E475E0
:10077D00F0011206F7EF0205480216057403D207C1
:10078D008003E4C207F53D8B268A278928E4F53ED0
:10079D00F540F541E53E60077F2012076880F5754D
:1007AD003FFFC201C200C202C203C205C206C20897
:1007BD00120736FF700D3007057F00120779AF4124
:1007CD00AE4022B4255FC2D5C204120736FF24D035
:1007DD00B40A00501A75F00A783E30D50508B6FFF8
:1007ED000106C6A426F620D5047002D20380D924B2
:1007FD00CFB41A00EF5004C2E5D204020A66D2014A
:10080D0080C6D20080C0D20280BCD2D580BAD205BB
:10081D0080B47F201207682002077401B53E0040A6
:10082D00F112072DFF1207680207A1D208D2068028
:10083D009512072DFB12072DFA12072DF94A4B7051
:10084D0006795D7A0B7BFF20022EE53E602A7E0045
:10085D008E8275830012051B60060EEE653F70F0EB
:10086D00C2D5EBC0E0EAC0E0E9C0E0EE120AC6D0A6
:10087D00E0F9D0E0FAD0E0FB120502FF60AAEBC070
:10088D00E0EAC0E0E9C0E0120768D0E02401F9D049
:10089D00E03400FAD0E0FBE53F0460DCD53FD980C1
:1008AD0087D20280A2120AA960F7E53F70010412F7
:1008BD000360A93F600DE53F600914F53F120B5031
:1008CD00EF60F3EA30E702F404C3995077EAF425B8
:1008DD003F0430E701E404F53F800D120AA960C121
:1008ED00EA053F253F120360EA783CF630E701E464
:1008FD00253F04D53F0420050114120AC6E4C0E0CB
:10090D00120B50783CE6601320E70714F6120750DF
:10091D00802204F6D0E014C0E07F00120750E53FBE
:10092D006007120747153F800B300503120747D0AC
:10093D00E00207A1D0E00480C5120AA960A0E53F3E
:10094D0004120360783CEAF6E53F200502600104DD
:05095D002404120AC68B
:1009620074FF04C0E0120B50120750E53F2005024D
:100972006003120747D0E0B53FE87F4512075A7877
:100982003CE67F2B30E7047F2DF404C0E0120768B9
:10099200D0E075F00A84C0F0120751D0E01207517E
:1009A2000207A1791080027908C206C2088008D223
:1009B200D5790A8004790AC2D5E53F047002F53F71
:1009C200E4FAFDFEFF12072DFC7B0820011312073B
:1009D2002DFD7B1030000A12072DFE12072DFF7B22
:1009E20020EC3382D592D55013C3E43000069FFF2A
:1009F200E49EFEE42001039DFDE49CFCE4CBF8C2EE
:100A020001EC700CCFCECDCCE824F8F870F380174F
:100A1200C3EF33FFEE33FEED33FDEC33FCEB33FB80
:100A2200994002FB0FD8E9EB300105F8D0E0C44849
:100A3200B201C0E00AEC4D4E4F78207B0070C2EA52
:100A4200B53F0040BCC0E0120AC8D0F0D0E020019F
:100A520004C4C0E0C4B201C0F0120751D0F0D5F016
:100A6200EB0207A1120707083E5309A558080F4CCD
:100A7200080B4209A94F09B14409B14908244309A5
:100A8200B75508E84609464508B2470B7D5008139A
:100A92002D08172E083A2B081B230838200B662A2C
:100AA20007D34800000832E53FB4FF03753F061242
:100AB200072DFC12072DFD12072DFE12072DFF78C0
:100AC2003502038F790AA2D5200314300509B91023
:100AD200020404B9080104A2D52006025001042030
:100AE20002689202B53E005034C0E07F2030031904
:100AF2007F30A20272067205500F120B1FC202C291
:100B020006C205C2087F30800F300503E9C0E0123B
:100B12000768300503D0E0F9D0E0B53ECC300517C8
:100B22007F30B9100C1207687F583004077F788035
:100B320003B908031207683002057F2D0207687F98
:100B4200202008F87F2B2006F322920280CF7F001C
:100B5200B4070050052435F8E6FF22286E756C6C48
:100B62002900D20112072D3001F8C201783E30D59A
:100B72000108F60207D32D5043495812072D2403CA
:100B8200B405004001E4900B7893120759743A12AD
:0A0B92000759D203753E040209A5BD
:10031600E9D2E7C933E833F892D5EDD2E7CD33EC2D
:0703260033FC5002B2D522A6
:10032D00EC30E7100FBF000C0EBE00080DBD000431
:10033D000BEB6014A2D5EB13FCED92E7FD2274FFDD
:10034D00FCFDFEFF22E480F8A2D574FF13FC7D8036
:03035D00E480EF4A
:10036000F920E72824F950037907E4F42402FB1864
:10037000DBFDE624FB5014E9600DE4F618E604F614
:0F038000B40A08E4F6D9F57401F60A22C2D522B0
:10038F00ED33EC3392D5FA602AB4FF33EDC2E77B3D
:10039F00FF60067A0379B4E4227A0379BD20D5048D
:1003AF007A0379B8224E614E002B494E46002D49F3
:1003BF004E4600E47A08F608DAFC7B00740722E860
:1003CF00C0E0ECC0E0EDC0E0EEC0E0EFC0E0EA75E9
:1003DF00F010A4CAABF075F04DA42BFBE435F0FC84
:1003EF00EA2410FAEB34C5FBEC34D9FCEDC2E7FF7D
:1003FF0075F056A4F42411C5F0F434C58FF0A42A77
:10040F00E5F03BE43CF620E7141204C2D0E0FFD045
:10041F00E0FED0E0FDD0E0FC1202048014F40412E0
:10042F0004C2D0E0FFD0E0FED0E0FDD0E0FC12002F
:10043F00FBD0E0F8E6FAEDD2E7CD33EC332482FBC4
:10044F00E4C3CF33CFCE33CECD33CD33DBF37B0706
:10045F0075F00A846004F6081B0AE5F0F6088FF0C1
:10046F00740AA4FFACF08EF0740AA42CFEACF0500A
:10047F00010C8DF0740AA42CFDE435F0F608DBDED8
:03048F00740722CD
:100492003F8000004120000042C80000447A000072
:1004A200461C400047C35000497424004B189680F4
:1004B2004CBEBC205A0E1BCA6753C21C749DC5AEEB
:1004C200FB60065407601C23231204F0EB543860CF
:1004D200091204DC1204EB1200FBECF8EDF9EEFA5F
:1004E200EFCB22EB1204EB80F1543803241C90046E
:1004F20092FE93FC0EEE93FD0EEE930ECE93FF2230
:100FFF00020E52E493A3F8E493A34003F68001F2A8
:10100F0008DFF48029E493A3F85407240CC8C333F2
:10101F00C4540F4420C8834004F456800146F6DFC1
:10102F00E4800B01020408102040809016AFE47E8C
:10103F00019360BCA3FF543F30E509541FFEE493B6
:10104F00A360010ECF54C025E060A840B8E493A37D
:10105F00FAE493A3F8E493A3C8C582C8CAC583CAA8
:10106F00F0A3C8C582C8CAC583CADFE9DEE780BE60
:0116B5000034
:10050200BB010689828A83E0225002E722BBFE02F7
:09051200E32289828A83E493222A
:10051B00BB010CE58229F582E5833AF583E0225095
:10052B0006E92582F8E622BBFE06E92582F8E222DF
:0D053B00E58229F582E5833AF583E49322F9
:10054800BB010689828A83F0225002F722BBFE0192
:02055800F3228C
:10055A00EF8DF0A4A8F0CF8CF0A428CE8DF0A42EB5
:02056A00FE226F
:10056C00BC000BBE0029EF8DF084FFADF022E4CC73
:10057C00F875F008EF2FFFEE33FEEC33FCEE9DEC3C
:10058C00984005FCEE9DFE0FD5F0E9E4CEFD22ED82
:10059C00F8F5F0EE8420D21CFEADF075F008EF2FCC
:1005AC00FFED33FD4007985006D5F0F222C398FDBD
:0505BC000FD5F0EA225A
:1005C100C2D5EC30E709B2D5E4C39DFDE49CFCEE55
:1005D10030E715B2D5E4C39FFFE49EFE12056CC35C
:1005E100E49DFDE49CFC800312056C30D507C3E457
:0605F1009FFFE49EFE22C4
:1005F70075F008758200EF2FFFEE33FECD33CDCCBB
:1006070033CCC58233C5829BED9AEC99E58298403D
:100617000CF582EE9BFEED9AFDEC99FC0FD5F0D61A
:10062700E4CEFBE4CDFAE4CCF9A88222B800C1B944
:100637000059BA002DEC8BF084CFCECDFCE5F0CB82
:10064700F97818EF2FFFEE33FEED33FDEC33FCEBBB
:1006570033FB10D703994004EB99FB0FD8E5E4F976
:10066700FA227818EF2FFFEE33FEED33FDEC33FC63
:10067700C933C910D7059BE99A4007EC9BFCE99A57
:10068700F90FD8E0E4C9FAE4CCFB2275F010EF2F9C
:10069700FFEE33FEED33FDCC33CCC833C810D7079C
:1006A7009BEC9AE899400AED9BFDEC9AFCE899F8D7
:0E06B7000FD5F0DAE4CDFBE4CCFAE4C8F9226A
:0E06C500C3E49FFFE49EFEE49DFDE49CFC2246
:1006D300EB9FF5F0EA9E42F0E99D42F0E89C45F07D
:0106E30022F4
:1006E400E8600FECC313FCED13FDEE13FEEF13FFF4
:0306F400D8F12218
:1006F700FAE6FB0808E6F925F0F618E6CA3AF62204
:10070700D083D082F8E4937012740193700DA3A381
:1007170093F8740193F5828883E473740293686095
:06072700EFA3A3A380DF95
:10160500EFB40A07740D121610740A309811A899D0
:10161500B8130CC2983098FDA899C298B811F63045
:0716250099FDC299F599221D
:00000001FF
