:10000000020B60AD07AF06A2AF9219BF010BC2AFE2
:1000100075C7AA75C75543F91075C7AA75C7558D19
:10002000FAA21992AF2200007F09DFFE22015D00D3
:0A003000013E000053C4EF055232F8
:10003B0002003EC0E0C0D075D000C007E5EC6440C4
:10004B00702812002620861F755114D207C209C2D0
:10005B000E53DEDF53DEEFD228D283C281C20FC232
:10006B00DFF578D21EF5EC75EC00D007D0D0D0E0E0
:01007B003252
:10008300020034E552700302067EE4F552E579C3BB
:1000930094FA50020579E54AC394FA5002054A05D9
:1000A30077E577C39408401FE4F5770532D229D268
:1000B30026E532D394FA400FE4F532E55160021598
:1000C30051E54160021541E57B701F302C1C201562
:1000D3001920161620181320131020120D20230A9E
:1000E300201F07200404E551600AD207C209C20E8B
:1000F300D21E800B202A08C207C209C20EC21E30BC
:100103008209C21CE4F548F549C20A208215054953
:10011300E54970020548D394A0E548940F4004D202
:100123000AC214E539C394F45007E554C394F44068
:1001330019053BE53B7002053AD39470E53A9417F1
:1001430050030201E4D21F0201E4E4F53AF53BC295
:100153001FE539D395544007E5399554FF8006C30D
:10016300E5549539FFEFC3940A5076E54EB4031670
:10017300752C4E752D64752E5C755E0AD22B753306
:10018300FF754E03D21BE54EB40218C21F752C3DFA
:10019300752D52752E47755E14D22B753399754E96
:1001A30002C21BE54EB40118C21F752C2A752D37E8
:1001B300752E32755E14D22B75334C754E01C21BEE
:1001C300E54E7017C21F752C2A752D37752E3275A3
:1001D3005E14C22B75334CF54EC21B85337D857D72
:1001E30053E5417015302A1220070F302B06D23009
:1001F300C200800AC230D2008004C230C200A22FE3
:10020300301B01B3500BA21B922FC209C20EE4F59F
:1002130030200A03300D0BE4F535F546C20FC22A30
:10022300805D303029308003855E47E4F535E5464F
:10023300C394FA50020546E568D39418400BC29064
:10024300E4F57CD280D2878036E4F54680313000F5
:1002530029309003855E47E4F546E535C394FA50AB
:10026300020535E57CD39418400BC280E4F568D2CF
:1002730090D287800AE4F5358005E4F535F546E547
:1002830035D394645009E54694645003020334E57E
:1002930078C3941950037578190569E569D39527CF
:1002A3005003020337E4F569200319E578D3952A4F
:1002B3004009E578D3941940021578E578C3952A67
:1002C30050020578E54FD39439405FE54E640370DF
:1002D30059E578D394CC4002D217301757D203157F
:1002E3007875270AE578C3944C500375784CE57804
:1002F300D3944D5022E54EB4031DB2950576E576B1
:1003030070020575C394F4E5759401400AD2137520
:100313006128E4F575F576E578D3944E4016E54EFD
:10032300B40311E4F575F576800AC20375271B80C3
:1003330003E4F578052FE52FC39429500302067EC5
:10034300E4F52FE55AD394645002055A302C0D205E
:10035300230A201607201504E55160130562E562A0
:10036300D394054045E4F562A292B39292803B0593
:1003730062E562D3940C4032E4F5620531E55560E1
:100383000FE53195555007A292B392928002C29223
:10039300E5552404FDE433FCE531C39DEC6480F8AA
:1003A3007480984005E4F531D292E57BB40105757C
:1003B300550C8036E57BB4020575550E802C201F45
:1003C300033004057555088021300D0575550480EB
:1003D30019201306201203301805755506800B30BB
:1003E3000A057555028003E4F555E539D394B24007
:1003F30005754E03802FE539D39480400CC21AE46F
:10040300F538F537754E02801CE539D3941A400C44
:10041300C21AE4F538F537754E018009C21AE4F5BE
:1004230038F537F54E30250AD223E4F57475612883
:100433008009E4F574E5617002C223052BE52BD333
:1004430094195003020580E4F52B3020492002184B
:10045300E54E6003B401110570E570C394F04008E4
:10046300D213E4F570756128E54EB402110570E509
:1004730070C394F04008D213E4F570756128E54E1B
:10048300B4031C0570E570C394F04013D213E4F574
:10049300707561288009E4F570E5617002C213305C
:1004A3002746E54E6003B40111057AE57AC3945AF1
:1004B3004008D218E4F57A756128E54EB4021105B7
:1004C3007AE57AC3943C4008D218E4F57A7561283A
:1004D300E54EB4031C057AE57AC394284013D21879
:1004E300E4F57A7561288009E4F57AE5617002C262
:1004F30018302436E54E6003B40111056EE56EC372
:1005030094144008D212E4F56E756128E54E640236
:100513006005E54EB4031C056EE56EC3940A4013F3
:10052300D212E4F56E7561288009E4F56EE5617019
:1005330002C2123021130571E571C394054013D231
:1005430015E4F5717561288009E4F571E5617002C0
:10055300C2153022130572E572C394044013D216F8
:10056300E4F5727561288009E4F572E5617002C2F1
:1005730016E56160021561E53D6002153D302A19FB
:10058300300604C206D208E4F56AF558F559200A84
:1005930004D2018019C2018015D2060559E55970AC
:1005A300020558D39498E558943A4002C201E550A5
:1005B300C394865011053CE53C94E14019D20DC229
:1005C3000F753D288010E4F53CE550D394A1400617
:1005D300E53D7002C20D20800BE57CC394FA500701
:1005E300057C8003E4F57C20900BE568C394FA5006
:1005F3000705688003E4F568E547D39401400715D0
:1006030047755F028073E55F6004155F8002C287F0
:10061300E547605CE4F547F578120A74201E05751A
:10062300780A8003E4F578120A74E4F547302A0760
:10063300300804C208801BE4F552E552D3941450E9
:100643000A302AF63008F3C20880070547E547B4A5
:1006530032DBE4F547C280C290F552E552D394648D
:100663005008302AF63008F3C208E4F578120A7409
:10067300C280C290E4F535F546C20822C2EFABC38F
:10068300E573640560030207D075730753E8F0430D
:10069300B38053B47FF5F643F60143E101C2EFD2D1
:1006A300EEC2AEEB256DF56DE4356CF56C0540E5FA
:1006B30040C394085003020943E4F540E56DAE6C72
:1006C3007803CEC313CE13D8F9F54FE4F56CF56D6B
:1006D300E55AC394645003E4F54FE54FC39449408E
:1006E30015E54EB40110053FE4F557E53FD39405F6
:1006F3004012D221800EE4F53F0557E557D3940508
:100703004002C221E54FC394734015E54EB4021075
:100713000542E4F55BE542D394054012D222800EF4
:10072300055BE55BD394054005C222E4F542E54F42
:10073300D394AD4015E54EB403100543E4F55CE5F1
:1007430043D394054012D225800EE4F543055CE5BE
:100753005CD394054002C225E54FD3952D40100587
:1007630044E4F55DE544D394054012D224800EE4BD
:10077300F544055DE55DD394054002C224E54FD3FE
:10078300952C4010053EE4F556E53ED3940A4012FD
:10079300D220800EE4F53E0556E556D3940540027B
:1007A300C220E54FD3952E40120545E4F560E5459B
:1007B300D394055003020943D22722E4F54505608B
:1007C300E560D394055003020943C22722E573640D
:1007D3000760030208B375730453E8F043E8014369
:1007E300AC0153ADFEF5F643F60243E101C2EFD28D
:1007F300EEC2AEEBD394F54002D204EBD394425055
:1008030003020888E4F54AE57994644011300F0E39
:10081300E5677003756701E567B40202D22A74BE07
:100823002BFBD3947F40027B7F301B16E54EB40332
:1008330011EB75F0DAA4FFAEF07C007D7F120C5A49
:100843008F2A201B16E54EB40211EB75F08FA4FF1F
:10085300AEF07C007D7F120C5A8F2A201B08E54ED8
:10086300B40103752A50201B15E54E7011EB75F08A
:100873004FA4FFAEF07C007D7F120C5A8F2A7419AF
:10088300252AF52A22EBD3941A4022E4F579C204EF
:10089300E54A94645003020943200A05200D02D25D
:1008A3000FD2DFC22AE4F567C203C21722D20422A1
:1008B300E5736404704A75730653E8F043E807432D
:1008C300B30253B4FDF5F643F68043E101C2EFD220
:1008D300EEC2AE8B54EB2564F564E43563F5630532
:1008E3004BE54BC394404058E4F54BE564AE637865
:1008F30006CEC313CE13D8F9F539E4F563F56422B4
:10090300E5736406703A75730553E8F043E80443EE
:10091300B12053B2DFF5F643F61043E101C2EFD243
:10092300EEC2AEAF03EB2566F566E43565F5650506
:100933004CE54C700BF54CE565F550E4F565F56653
:1009430022C290C280C20C43B30853B4F7C204C29C
:100953000353B1BF53B2BFC20353B1FB53B2FB4303
:10096300B12053B2DF53B17F43B28053B3FE43B4DC
:100973000153B1FE43B201C290C28053B1F743B2F7
:100983000853B1FD43B20253B1FB53B2FB43B3026D
:1009930053B4FD53B3FB43B40453B3DF43B4204315
:1009A300B11053B2EF43DE2043DE1043DF4053DF89
:1009B3007F43D620A2AF9219C2AF75C7AA75C75598
:1009C30043F904A21992AF43DF0553DFFDE4F5D1E8
:1009D30075D9FF7F5EFE120003A2AF9219C2AF75F5
:1009E300C7AA75C755439101A21992AFF5C4F5CCB7
:1009F300A2AF9219C2AF75C7AA75C7555391FEA28C
:100A03001992AFD2DED2DF75C6E075C5C0439C0232
:100A1300D2AF43C40843E80853E8F843E10153E87D
:100A2300F043B38053B47FF5F643F60143E1017518
:100A33007305C2EFD2EEC2AE7580FEF578F541754F
:100A430053FF754D01D201D282D20BD22C757D801A
:100A5300D292C295F55AC21EC202C214D21C53B31B
:100A6300EF43B410D294C21AF538F537C217C295C2
:100A730022208077209074E56764017071756702A6
:100A8300F57BD29553B1EF43B210C284F552E552D0
:100A9300D3942840F943B11053B2EFE4F552E55231
:100AA300D3940340F9E4F552E552D39402500B304A
:100AB30084F6757B017567FF80EE53B1EF43B21087
:100AC300D284E4F552E552D3942840F943B110534C
:100AD300B2EFE4F552E552D39402500B2084F6753D
:100AE3007B027567FF80EEC2958003756702E54D53
:100AF3006578606885784DA2AF9219C2AF75C7AAB1
:100B030075C755439101A21992AFE4F5C4C374FFAD
:100B13009578F5CCA2AF9219C2AF75C7AA75C75520
:100B23005391FEA21992AFD2DEE578C394FE400D35
:100B330053DEDF53DEEFD228C281C28322E5787011
:100B43000D53DEDF53DEEFD228C281D28322302859
:100B53000B43DE20E4F55243DE10C22822787FE403
:100B6300F6D8FD9000007FFF7E03E4F0A3DFFCDEF8
:100B7300FA75817D020BB5020CAFE493A3F8E493FD
:100B8300A34003F68001F208DFF48029E493A3F87D
:100B93005407240CC8C333C4540F4420C8834004EF
:100BA300F456800146F6DFE4800B010204081020AE
:100BB300408090002DE47E019360BCA3FF543F303E
:100BC300E509541FFEE493A360010ECF54C025E052
:100BD30060A840B8E493A3FAE493A3F8E493A3C80A
:100BE300C582C8CAC583CAF0A3C8C582C8CAC5839B
:100BF300CADFE9DEE780BE30295CC229300C14303D
:100C030093110536E536C394054008309305C29425
:100C1300753605209340E4F536056FE56FC3940AF6
:100C23004005E4F56FD20C2097253082290529E58C
:100C330029C394FA4020E4F5290534E534943C4073
:100C430015E4F534056BE56B940A400AC29422E47B
:100C5300F529F534F56B22BC000BBE0029EF8DF0AE
:100C630084FFADF022E4CCF875F008EF2FFFEE33EC
:100C7300FEEC33FCEE9DEC984005FCEE9DFE0FD59B
:100C8300F0E9E4CEFD22EDF8F5F0EE8420D21CFE6F
:100C9300ADF075F008EF2FFFED33FD4007985006D8
:100CA300D5F0F222C398FD0FD5F0EA22120944755C
:100CB300C7AA75C75575AA07A2AF9219C2AF75C760
:100CC300AA75C75543AA80A21992AFA2AF9219C2BF
:100CD300AF75C7AA75C75543AA40A21992AF439BE4
:100CE3001075E98075EA40759B02120BFA120086B3
:0B0CF300120A7430EFB912067F80B4C3
:00000001FF
