:10000000020ADCAD07AF06A2AF921BBF010BC2AF65
:1000100075C7AA75C75543F91075C7AA75C7558D19
:10002000FAA21B92AF2200007F09DFFE22016000CE
:0A003000013E000053C4EF055532F5
:10003B0002003EC0E0C0D075D000C007E5EC6440C4
:10004B00702812002620861F755314D209C20BC2CA
:10005B001053DEDF53DEEFD229D283C281C211C22D
:10006B00DFF579D21FF5EC75EC00D007D0D0D0E0DE
:01007B003252
:10008300020034E555700302060AE4F555E57AC328
:1000930094FA5002057AE54CC394FA5002054C05D4
:1000A30078E578C39408401FE4F5780534D22AD262
:1000B30027E534D394FA400FE4F534E55360021591
:1000C30053E54160021541E57C7022302D1F201657
:1000D3001C201719201A1620151320141020190D8F
:1000E30020240A202007200604E553600AD209C20F
:1000F3000BC210D21F800B202B08C209C20BC210E7
:10010300C21F308209C21DE4F54AF54BC20C20829E
:1001130015054BE54B7002054AD394A0E54A940FAD
:100123004004D20CC218E539C394F45007E557C311
:1001330094F44019053BE53B7002053AD39470E50E
:100143003A941750030201F0D2200201F0E4F53A89
:10015300F53BC220E539D395574007E5399557FF5D
:100163008006C3E5579539FFEFC3940A507FE539FD
:10017300D394B24018752E4E752F6475305C75613B
:100183000AD22C7535FF755003D21C805AE539D33A
:100193009480401AC220752E42752F5675304B75C8
:1001A3006114D22C753599755002C21C8039E5391A
:1001B300D3941A401AC220752E2E752F3A753034F7
:1001C300756114D22C75354C755001C21C8018C250
:1001D30020752E2E752F3A753034756114C22C7527
:1001E300354CE4F550C21C85357E857E56E541705D
:1001F30015302B1220090F302C06D231C202800A8F
:10020300C231D2028004C231C202A230301C01B317
:10021300500BA21C9230C20BC210E4F532200C0327
:10022300300F0BE4F537F548C211C22B805D303136
:1002330029308003856149E4F537E548C394FA50D2
:10024300020548E56BD39418400BC290E4F57DD2C8
:1002530080D2878036E4F54880313002293090031C
:10026300856149E4F548E537C394FA50020537E55B
:100273007DD39418400BC280E4F56BD290D2878073
:100283000AE4F5378005E4F537F548E537D3946498
:100293005006E54894644031E579C39419500375D9
:1002A3007919056CE56CD3940C4021E4F56CE57980
:1002B300D3952A4009E579D3941940021579E57954
:1002C300C3952A500705798003E4F5790531E531B3
:1002D300C39429500302060AE4F531E55DD394641F
:1002E3005002055D302D0D20240A20170720160427
:1002F300E55360130565E565D394054045E4F5656D
:10030300A292B39292803B0565E565D3940C40328B
:10031300E4F5650533E558600FE53395585007A2BA
:1003230092B392928002C292E5582404FDE433FC16
:10033300E533C39DEC6480F87480984005E4F5339D
:10034300D292E57CB4010575580C8036E57CB40285
:100353000575580E802C202003300605755808803B
:1003630021300F0575580480192015062014033019
:100373001A05755806800B300C057558028003E486
:10038300F558052DE52DD39419500302050CE4F51A
:100393002D302149200418E5506003B40111057381
:1003A300E573C394F04008D215E4F573756428E54A
:1003B30050B402110573E573C394F04008D215E4F9
:1003C300F573756428E550B4031C0573E573C39492
:1003D300F04013D215E4F5737564288009E4F573CE
:1003E300E5647002C215302846E5506003B401117C
:1003F300057BE57BC3945A4008D21AE4F57B756408
:1004030028E550B40211057BE57BC3943C4008D238
:100413001AE4F57B756428E550B4031C057BE57B82
:10042300C394284013D21AE4F57B7564288009E449
:10043300F57BE5647002C21A302536E5506003B4DB
:1004430001110571E571C394144008D214E4F571E8
:10045300756428E55064026005E550B4031C05711A
:10046300E571C3940A4013D214E4F57175642880CE
:1004730009E4F571E5647002C2143022130574E5D2
:1004830074C394044013D216E4F574756428800988
:10049300E4F574E5647002C2163023130575E5753F
:1004A300C394044013D217E4F5757564288009E4F6
:1004B300F575E5647002C2173026130577E577C337
:1004C30094024013D224E4F5777564288009E4F597
:1004D30077E5647002C224E56460021564E53D605B
:1004E30002153D30230D0575E575D394024007D2FF
:1004F300108000E4F575302F0D0532E532D39406F4
:100503004007D2108000E4F532302B19300804C2C2
:1005130008D20AE4F56DF55BF55C200C04D2038088
:1005230019C2038015D208055CE55C7002055BD334
:100533009498E55B943A4002C203E552C394865013
:1005430011053CE53C94E14019D20FC211753D28D9
:100553008010E4F53CE552D394A14006E53D7002DA
:10056300C20F20800BE57DC394FA5007057D8003FD
:10057300E4F57D20900BE56BC394FA5007056B807F
:1005830003E4F56BE549D39401400715497562020D
:100593008073E562600415628002C287E549605C8E
:1005A300E4F549F5791209F6201F0575790A8003E8
:1005B300E4F5791209F6E4F549302B07300A04C251
:1005C3000A801BE4F555E555D39414500A302BF6F5
:1005D300300AF3C20A80070549E549B432DBE4F582
:1005E30049C280C290F555E555D394645008302B29
:1005F300F6300AF3C20AE4F5791209F6C280C29012
:10060300E4F537F548C20A22C2EFABC3E5766405C9
:10061300600302075C75760753E8F043B38053B475
:100623007FF5F643F60143E101C2EFD2EEC2AEEB32
:100633002570F570E4356FF56F0540E540C3940808
:1006430050030208D1E4F540E570AE6F7803CEC3E2
:1006530013CE13D8F9F551E4F56FF570E55DC39446
:10066300645003E4F551E551C394564015E550B485
:100673000110053FE4F55AE53FD394054012D22219
:10068300800EE4F53F055AE55AD394054002C22291
:10069300E551C394734015E550B402100542E4F5E7
:1006A3005EE542D394054012D223800E055EE55EDB
:1006B300D394054005C223E4F542E551D394AD40FC
:1006C30015E550B403100543E4F55FE543D3940502
:1006D3004012D226800EE4F543055FE55FD394050F
:1006E3004002C226E551D3952F40100544E4F5603E
:1006F300E544D394054012D225800EE4F544056009
:10070300E560D394054002C225E551D3952E4010F0
:10071300053EE4F559E53ED3940A4012D221800EFA
:10072300E4F53E0559E559D394054002C221E5514C
:10073300D3953040120547E4F563E547D39405505C
:10074300030208D1D22822E4F5470563E563D39475
:100753000550030208D1C22822E57664076003022C
:10076300084175760453E8F043E80143AC0153AD07
:10077300FEF5F643F60243E101C2EFD2EEC2AEEB61
:10078300D394F54002D206EBD394425003020818E7
:10079300E4F545F546F54CE57A9464401130110EC5
:1007A300E56A7003756A01E56AB40202D22B74BE6E
:1007B3002BFBD3947F40027B7F301C16E550B403A0
:1007C30011EB75F0DAA4FFAEF07C007D7F120BD63F
:1007D3008F2A201C16E550B40211EB75F08FA4FF8D
:1007E300AEF07C007D7F120BD68F2A201C08E550CB
:1007F300B40103752A50201C15E5507011EB75F0F8
:100803004FA4FFAEF07C007D7F120BD68F2A7419A4
:10081300252AF52A22EBD3941A4020E4F57AC2065E
:10082300E54C946450030208D1200C05200F02D23A
:1008330011D2DFC22BE4F56AC20522D20622E57685
:100843006404704A75760653E8F043E80743B3023D
:1008530053B4FDF5F643F68043E101C2EFD2EEC295
:10086300AE8B57EB2567F567E43566F566054DE511
:100873004DC394404058E4F54DE567AE667806CE27
:10088300C313CE13D8F9F539E4F566F56722E57697
:100893006406703A75760553E8F043E80443B120E3
:1008A30053B2DFF5F643F61043E101C2EFD2EEC2D5
:1008B300AEAF03EB2569F569E43568F568054EE5E8
:1008C3004E700BF54EE568F552E4F568F56922C202
:1008D30090C280C20E43B30853B4F7C20653B1BFEC
:1008E30053B2BFC20553B1FB53B2FB43B12053B262
:1008F300DF53B17F43B28053B3FE43B40153B1FE20
:1009030043B201C290C28053B1F743B20853B1FD61
:1009130043B20253B1FB53B2FB43B30253B4FD538F
:10092300B3FB43B40453B3DF43B42043B11053B216
:10093300EF43DE2043DE1043DF4053DF7F43D62007
:10094300A2AF921BC2AF75C7AA75C75543F904A2DC
:100953001B92AF43DF0553DFFDE4F5D175D9FF7F6C
:100963005EFE120003A2AF921BC2AF75C7AA75C782
:1009730055439101A21B92AFF5C4F5CCA2AF921BD4
:10098300C2AF75C7AA75C7555391FEA21B92AFD2CA
:10099300DED2DF75C6E075C5C0439C02D2AF43C447
:1009A3000843E80853E8F843E10153E8F043B38010
:1009B30053B47FF5F643F60143E101757605C2EFC3
:1009C300D2EEC2AE7580FEF579F5417556FF754FCF
:1009D30001D203D282D20DD22D757E80D292C295DE
:1009E300F55DC21FC204C218D21D53B3EF43B41046
:1009F300D2942220807120906EE56A6401706B7539
:100A03006A02F57C53B1EF43B210C284F555E55544
:100A1300D3942840F943B11053B2EFE4F555E555AB
:100A2300D3940340F9E4F555E555D39402500B30C4
:100A330084F6757C01756AFF80EE53B1EF43B21003
:100A4300D284E4F555E555D3942840F943B11053C6
:100A5300B2EFE4F555E555D39402500E2084F675B4
:100A63007C02756AFF80EE756A02E54F65796068FE
:100A730085794FA2AF921BC2AF75C7AA75C75543FD
:100A83009101A21B92AFE4F5C4C374FF9579F5CC31
:100A9300A2AF921BC2AF75C7AA75C7555391FEA2E9
:100AA3001B92AFD2DEE579C394FE400D53DEDF53D4
:100AB300DEEFD229C281C28322E579700D53DEDFD6
:100AC30053DEEFD229C281D2832230290B43DE20A9
:100AD300E4F55543DE10C22922787FE4F6D8FD9071
:100AE30000007FFF7E03E4F0A3DFFCDEFA75817F65
:100AF300020B31020C2BE493A3F8E493A34003F617
:100B03008001F208DFF48029E493A3F85407240C4E
:100B1300C8C333C4540F4420C8834004F45680012F
:100B230046F6DFE4800B01020408102040809000A9
:100B33002DE47E019360BCA3FF543F30E509541FAD
:100B4300FEE493A360010ECF54C025E060A840B833
:100B5300E493A3FAE493A3F8E493A3C8C582C8CAB1
:100B6300C583CAF0A3C8C582C8CAC583CADFE9DE84
:100B7300E780BE302A5CC22A300E14309311053848
:100B8300E538C394054008309305C29475380520B1
:100B93009340E4F5380572E572C3940A4005E4F521
:100BA30072D20E2097253082290529E529C394FAAC
:100BB3004020E4F5290536E536943C4015E4F53646
:100BC300056EE56E940A400AC29422E4F529F536CF
:100BD300F56E22BC000BBE0029EF8DF084FFADF053
:100BE30022E4CCF875F008EF2FFFEE33FEEC33FC74
:100BF300EE9DEC984005FCEE9DFE0FD5F0E9E4CEAA
:100C0300FD22EDF8F5F0EE8420D21CFEADF075F078
:100C130008EF2FFFED33FD4007985006D5F0F22281
:100C2300C398FD0FD5F0EA221208D275C7AA75C77B
:100C33005575AA07A2AF921BC2AF75C7AA75C75550
:100C430043AA80A21B92AFA2AF921BC2AF75C7AAE1
:100C530075C75543AA40A21B92AF439B1075E98009
:100C630075EA40759B02120B761200861209F63064
:070C7300EFB912060B80B47B
:00000001FF
