:020000040800F2
:1000000088060020590100080F0300080B030008B0
:1000100000000000000000000000000000000000E0
:100020000000000000000000000000005503000870
:100030000000000000000000110300083104000867
:1000400089010008000000008901000889010008FA
:100050008901000889010008890100088901000858
:1000600000000000890100088901000889010008DA
:1000700089010008890100088901000800000000CA
:10008000890100080000000000000000890100084C
:100090008901000889010008890100088901000818
:1000A0008901000889010008890100088901000808
:1000B0008901000800F002F800F03EF80CA030C8FA
:1000C000083824182D18A246671EAB4654465D46D4
:1000D000AC4201D100F030F87E460F3E0FCCB64660
:1000E0000126334200D0FB1AA246AB4633431847E1
:1000F000DC050000FC050000103A02D378C878C186
:10010000FAD8520701D330C830C101D504680C6059
:10011000704700000023002400250026103A01D378
:1001200078C1FBD8520700D330C100D50B607047AF
:100130001FB51FBD10B510BD00F04BF81146FFF7FD
:10014000F7FF00F0A5FA00F063F803B4FFF7F2FF41
:1001500003BC00F069F800000F4880F308880F48DE
:100160000168090E0E4A914205D10E480E49016000
:100170000E480F4901600F4880470F480047FEE7CF
:10018000FEE7FEE7FEE7FEE7FEE700000B480C494E
:100190000C4A0D4B70470000880600200400000048
:1001A0001F00000018100240010000000000014084
:1001B0000000000035040008B50000088800002099
:1001C00088060020880200208802002070477047BF
:1001D0007047754600F024F8AE4605006946534660
:1001E000C008C000854618B020B5FFF7CFFF60BC3F
:1001F00000274908B6460026C0C5C0C5C0C5C0C551
:10020000C0C5C0C5C0C5C0C5403D49008D4670478A
:1002100010B50446C046C0462046FFF796FF10BD05
:10022000004870472800002001491820ABBEFEE7B7
:10023000260002007047F0B50A4600210023002482
:1002400000BF3DE001258D402B4615681D402C4622
:100250009C4234D11579012D02D01579022D16D189
:1002600085684F000326BE40B543856055794E0032
:10027000B540866835438560858801268E40B54344
:100280008580858896798E40B6B23543858005682D
:100290004F000326BE40B543056015794E00B540BA
:1002A000066835430560C5684F000326BE40B54368
:1002B000C560D5794E00B540C6683543C560491C58
:1002C0001029BFD3F0BDF0B5002300244D07EE0E7A
:1002D0001546B5402B46CD10AE0005462035AD592C
:1002E0004E07F70E0F26BE40B543CE10B6000746A8
:1002F0002037BD51CD10AE003D46AD591D432C46B3
:10030000CD10AD003E467451F0BD00BFFEE7704712
:1003100070470000002905D0054A52690243044B8A
:100320005A6104E0024A52698243014B5A617047A4
:1003300000100240002905D0054AD2690243044B4F
:10034000DA6104E0024AD2698243014BDA61704704
:1003500000100240704700000CB500200190009092
:10036000314800680121090408432F49086000BF93
:100370002D48006801214904084000900198401C64
:1003800001900098002804D10521090301988842B2
:10039000EED125480068012149040840002802D018
:1003A0000120009001E0002000900098012839D140
:1003B00011201E4908601C4840681B4948600846D7
:1003C00040684860084640687F21C9038843164951
:1003D00048600846406811210904084312494860F2
:1003E000084600680121090608430F49086000BF5C
:1003F0000D4800680121490608400028F8D00A4845
:10040000406880088000084948600846406802212A
:1004100008430549486000BF034840680C21084074
:100420000828F9D10CBD0000001002400020024055
:100430007047000010B51B480068012108431949A6
:100440000860084640681849084016494860084650
:1004500000681649084013490860084600680121F1
:10046000890488430F490860084640683F21090411
:1004700088430C4948600846C06A00090001C86208
:100480000846006BFF21543188430649086308463B
:10049000406B40084000486300208860FFF75CFF25
:1004A00010BD0000001002400CB8FF08FFFFF6FE70
:1004B000002904D0028880231A43028003E00288C6
:1004C000014B1A40028070477FFF000070B5002486
:1004D00000220023058C1C4E35400584028C838845
:1004E000048B194D6F3D2C40B51E2C400D882C43BC
:1004F000751E2A408D892A434D882A43134DA842F0
:1005000008D0134DA84205D0124DA84202D0124D7A
:10051000A84212D10C4DED1F2A40CD892A430A4D25
:10052000ED1E2A408D882A43074DFF3D2B400B4D81
:100530002B400D8A2B434D8A2B43838004838D6887
:100540004563028470BD0000FEFF0000002C0140E6
:10055000004001400044014000480140FFFD000010
:100560000A460021018B034B19400B4613431946E1
:1005700001837047F7FF0000416370470022028843
:10058000154B984206D001239B07984202D0134B8B
:10059000984203D1124B1A404B881A43114B984290
:1005A00003D0114B1A400B891A4302804B68C36277
:1005B0000B880385084B984208D00C4B984205D015
:1005C0000B4B984202D00B4B984201D18B7A038699
:1005D0000123838270470000002C0140000400408A
:1005E0008FFF000000100040FFFC000000400140B1
:1005F000004401400048014070B504460D461F48C4
:10060000058000201D49488008464460002008817C
:100610001B48FFF7B3FF60201A4908800220888139
:10062000012048801648FFF751FF08211448FFF7C2
:1006300097FF01211248FFF73BFF01210802FFF756
:1006400079FE0121C804FFF765FE072040030E492B
:100650000860022008710D48FFF7EDFD04220D210E
:100660000A48FFF730FE04220E210848FFF72BFE50
:1006700004220F210548FFF726FE70BD0800002068
:100680000020004014000020000000200008004866
:10069000002401255321FF20F430FFF7ADFF12E0C5
:1006A000002D02D0601C84B201E0601E84B2FF20E5
:1006B0002D30844200DD0025002C00D1012521468B
:1006C0000148FFF759FFEBE700200040EC06000867
:1006D0000000002008000000F8000008F4060008F0
:1006E000080000208006000014010008000000003F
:0406F0000000000006
:040000050800015995
:00000001FF
