:100000000211C37F5E7E0BA2AF9222EE6401700BE1
:10001000C2AF75C7AA75C75543F91075C7AA75C78A
:10002000558FFAA22292AF2200007F09DFFE2281C3
:060030003E00811D0000EE
:10003B00021301C0E0C0D075D000C00053C4EF78EC
:0B004B0033E204F2D000D0D0D0E0324D
:1000830002003E7833E27003020A30E4F2785DE264
:10009300C394FA748094805003E204F2782AE2C392
:1000A30094FA748094805003E204F2785BE204F2E1
:1000B300E2C39408748094804027E4F2780BE2044E
:1000C300F2D239D236E2D394FA748094804012E4A7
:1000D300F27832E26003E214F27820E26003E21481
:1000E300F2785FE27035303D32201D2F201E2C2028
:1000F3002129201B26201A23203220202D1D2008F1
:100103001A7832E27015202C1220040F20050C20DF
:100113000709200A06200C03303B0AD20DC20FC286
:1001230015D22B800B203A08C20DC20FC215C22B69
:1001330030820AC229E47828F208F2C21120821A16
:100143007829E22401F218E23400F2D308E294A001
:1001530018E2940F4004D211C21C7818E2FFC39432
:10016300F474809480500D7835E2FEC394F4748067
:100173009480401F781908E22401FBF218E234004E
:10018300FAF2D3EB9470EA9417500302026DD22D66
:1001930002026DE47819F208F2C22DEFD39E400BF0
:1001A3007835E2FF7818E29FFD800A7818E2FF783D
:1001B30035E2C39FFDEDC3940A748094804003022B
:1001C300026D782FE2640370207805744EF2087490
:1001D30064F208745CF2783F740AF2D23C780C74CF
:1001E300FFF2782F7403F2D227782FE26402702291
:1001F300C22D7805743DF2087452F2087447F27800
:100203003F7414F2D23C780C7499F2782F7402F292
:10021300C227782FE264017022C22D7805742AF276
:10022300087437F2087432F2783F7414F2D23C78CF
:100233000C744CF2782F7401F2C227782FE27021EC
:10024300C22D7805742AF2087437F2087432F278F2
:100253003F7414F2C23C780C744CF2E4782FF2C26F
:1002630027780CE27861F27834F27820E270153066
:100273003A12200D0F303C06D242C200800AC2421D
:10028300D2008004C242C200A241302701B3500C05
:10029300A2279241C20FC215E47809F2201103305C
:1002A300140DE4780FF27826F2C216C23A807E303B
:1002B3004237308006783FE27827F2E4780FF2780D
:1002C30026E2C394FA748094805003E204F2784ADD
:1002D300E2D3941874809480400CC290E47860F266
:1002E300D280D2878047E4804130003A309006784C
:1002F3003FE27827F2E47826F2780FE2C394FA74A7
:100303008094805003E204F27860E2D394187480FE
:100313009480400CC280E4784AF2D290D287800D58
:10032300E4780FF28007E4780FF27826F2780FE290
:10033300D3946474809480500E7826E2946474801D
:1003430094805003020492785CE2C39419748094FD
:100353008050037419F2784BE204F27800E2FF78DC
:100363004BE2D39F50030204B4E4F2200323780347
:10037300E2FF785CE2FED39F400DEED394197480C4
:1003830094804003E214F2785CE2C39F5003E204DA
:10039300F27830E2FF7E00D3943974809480400673
:1003A30018E264036018D3EF9439EE6480948050AC
:1003B30003020477782FE264026003020477E4788F
:1003C3000DF2785CE2FF7E00D394CC74809480407D
:1003D30009782FE264037002D220D3EF948CEE6489
:1003E3008094804009782FE264027002D22020209A
:1003F30003020477D203785CE214F27800740AF201
:10040300785CE2C3946574809480500C782FE26426
:10041300037005785C7465F2785CE2C3944C748075
:100423009480500C782FE264027005785C744CF26F
:10043300785CE2FF7E00D3946674809480500778E2
:100443002FE264036012D3EF944EEE6480948050E5
:1004530023782FE26402701C785AE22401F218E236
:100463003400F2C308E294F418E294014006D21770
:10047300E4F208F27830E2D39439748094805031F6
:10048300E47859F208F2C2037800741BF28022E484
:10049300785CF27830E2D394397480948050127887
:1004A3000DE204F2E29405748094804004C217E4E0
:1004B300F27808E204F2E2C39429E49400500302C0
:1004C3000A30E4F2783BE2D394647480948050035E
:1004D300E204F2203E70303D1120320E201E0B202C
:1004E3001D08203B057832E260177844E204F2D31A
:1004F300940574809480404EE4F2A292B392928069
:10050300457844E204F2D3940C748094804037E439
:10051300F2780AE204F27836E2FF600F780AE29F8B
:100523005007A292B392928002C292EF2404FFE496
:1005330033FE780AE2C39FEE6480F8748098400625
:10054300E4780AF2D292785FE2FF7E0064017007DA
:100553007836740CF28042EF64024E70077836747A
:100563000EF28035202D0330080778367408F280A8
:100573002830140778367404F2801E201B06201AD4
:100583000330210778367406F2800E30110778366F
:100593007402F28004E47836F27818E2FF7E00D326
:1005A30094B2748094804007782F7403F28028D328
:1005B300EF9480EE648094804007782F7402F28079
:1005C30016D3EF941AEE648094804007782F740159
:1005D300F28004E4782FF27804E204F2D3941974DD
:1005E30080948050030208DCE4F2302E692002225A
:1005F300782FE26004640170197854E204F2C39422
:10060300F074809480400BD21BE4F27842F20874B9
:1006130028F2782FE2FF7E00640270197854E20416
:10062300F2C394F074809480400BD21BE4F27842BE
:10063300F2087428F2EF64034E702A7854E204F24D
:10064300C394F074809480401CD21BE4F27842F28D
:10065300087428F2800FE47854F27843E2700218A9
:10066300E27002C21B303764782FE26004640170C9
:1006730019785EE204F2C3945A74809480400BD2DA
:1006830021E4F27842F2087428F2782FE2640270CF
:1006930019785EE204F2C3943C74809480400BD2D8
:1006A30021E4F27842F2087428F2782FE2640370AE
:1006B3002A785EE204F2C3942874809480401CD2AA
:1006C30021E4F27842F2087428F2800FE4785EF2B3
:1006D3007843E2700218E27002C22130344A782F64
:1006E300E26004640170197852E204F2C394147452
:1006F300809480400BD21AE4F27842F2087428F214
:10070300782FE2FF64026005EF6403702A7852E2F7
:1007130004F2C3940A74809480401CD21AE4F278E1
:1007230042F2087428F2800FE47852F27843E270C0
:100733000218E27002C21A302F307855E204F2C375
:100743009405748094804055D206D21DE4F2D230D1
:100753007842202809F2087406F2C2338008E4F2D2
:10076300087424F2D233D2258033E47855F27843E7
:10077300E2700218E27026203321303020C292D278
:1007830095D23E302517782CE204F2E2C394037429
:100793008094804002D228C2258002C29430313036
:1007A3007856E204F2C39402748094804055D206D2
:1007B300D21ED230E4F27842202809F2087406F2FD
:1007C300C2338008E4F2087424F2D233D225803392
:1007D300E47856F27843E2700218E270262033215F
:1007E300303020C292D295D23E302517782CE204C5
:1007F300F2E2C39403748094804002D228C225801D
:1008030002C2943035307858E204F2C39401748004
:1008130094804055D206D230D232E4F27842202876
:1008230009F2087406F2C2338008E4F2087424F271
:10083300D233D2258033E47858F27843E270021839
:10084300E27026203321303020C292D295D23E303E
:100853002517782CE204F2E2C39403748094804059
:1008630002D228C2258002C294301722D206D23087
:10087300D23B784220280AE4F208743CF2C2338067
:1008830009740EF2087410F2D233D225802F784304
:10089300E2700218E27026203321303020C292D257
:1008A30095D23E302517782CE204F2E2C394037408
:1008B3008094804002D228C2258002C2947843E209
:1008C300700218E2600B7843E224FFF218E234FF6F
:1008D300F2781CE26003E214F2303A1B300B04C2DC
:1008E3000BD20EE4784DF27839F208F2201104D2DB
:1008F30001801FC201801BD20B783908E22401FF5B
:10090300F218E23400FEF2D3EF9498EE943A4002E8
:10091300C2017831E2FF7E00C394867480948050D4
:1009230018781BE204F2E294E174809480401FD2B1
:1009330014C216087428F28015E4781BF2D3EF94DE
:10094300A1EE64809480400608E27002C214208005
:10095300117860E2C394FA748094805009E204F23F
:100963008004E47860F2209011784AE2C394FA7428
:100973008094805009E204F28004E4784AF27827F4
:10098300E2FFD3940174809480400BE214F2784028
:100993007402F2020A2E7840E26005E214F2800249
:1009A300C287EF607BE47827F2785CF2120FCA20EB
:1009B3002B06785C740A8003E4785CF2120FCAE4B5
:1009C3007827F27827E2C3943274809480502B30D6
:1009D3003A07300E04C20E8021E47833F27833E212
:1009E300D3941474809480500A303AF1300EEEC2DE
:1009F3000E80077827E204F280C9E47827F2C280E8
:100A0300C2907833F27833E2D39464748094805044
:100A130008303AF1300EEEC20EE4785CF2120FCADF
:100A2300C280C290E4780FF27826F2C20E22C2EF9F
:100A3300ABC37857E2F964056003020C3D7407F217
:100A430053E8F043B38053B47FE4F5F643F6014330
:100A5300E101C2EFD2EEC2AEEBFF7851E22FF21802
:100A6300E23400F2781FE204F2E2C3940874809443
:100A7300805003020E56E4F27850E2FE08E2780357
:100A8300CEC313CE13D8F97830F2E47850F208F2DB
:100A9300783BE2C39464748094805004E47830F229
:100AA3007830E2FF7E00C394497480948040061836
:100AB300E26401601DC3EF9449EE648094804003B7
:100AC30020230F7830E2C3944974809480401C3013
:100AD3001F19781EE204F2E47838F2781EE2D39408
:100AE30005748094804019D22F8015E4781EF27823
:100AF30038E204F2E2D39405748094804002C22F5A
:100B03007830E2FF7E00C3947374809480400618AB
:100B1300E26402600EC3EF9473EE64809480401C21
:100B23003026197821E204F2E4783CF27821E2D30A
:100B33009405748094804019D2318015783CE20486
:100B4300F2E2D39405748094804006C231E47821A4
:100B5300F27830E2FFD3948F748094804019782226
:100B6300E204F2E4783DF27822E2D39401748094B3
:100B7300804019D2358015E47822F2783DE204F200
:100B8300E2D39405748094804002C2357806E2FE75
:100B9300EFD39E40197823E204F2E4783EF27823FF
:100BA300E2D39405748094804019D2348015E4789C
:100BB30023F2783EE204F2E2D394057480948040F9
:100BC30002C2347805E2FF7830E2FED39F40197801
:100BD3001DE204F2E47837F2781DE2D3940A7480BC
:100BE30094804019D22E8015E4781DF27837E20400
:100BF300F2E2D39405748094804002C22E7807E217
:100C0300FFEED39F401B7825E204F2E47841F278AB
:100C130025E2D39405748094805003020E56D23794
:100C230022E47825F27841E204F2E2D39405748059
:100C330094805003020E56C23722E9640760030210
:100C43000DB078577404F253E8F043E80143AC0164
:100C530053ADFEE4F5F643F60243E101C2EFD2EEF3
:100C6300C2AEEBFF7E00D394F5748094804002D231
:100C730008D3EF9442EE648094805003020D74E431
:100C8300782AF2785DE2946474809480401330167D
:100C9300107849E2700204F27849E264027002D2E9
:100CA3003A74BE2BFBD3947F7480948040027B7F85
:100CB30030275D782FE264037056EBFF7E00C39408
:100CC3002F74809480500978037450F2D223C22683
:100CD300C3EF942FEE648094804013EF9456EE6438
:100CE30080948050097803748FF2D226C223C3EF15
:100CF3009456EE648094804017EB75F0DAA4FFAE4F
:100D0300F07C007D7F12125D7803EFF2C223C226CE
:100D130020272D782FE264027026EBFF7E00C39418
:100D23005F74809480500778037450F2D21FC3EF2E
:100D3300945FEE6480948040077803748FF2C21F3F
:100D430020270C782FE26401700578037450F22099
:100D53002718782FE27013EB75F04FA4FFAEF07CE9
:100D6300007D7F12125D7803EFF27803E22419F21B
:100D730022EBD3941A74809480402FE4785DF2C2FE
:100D830008782AE29464748094805003020E5620FB
:100D93001105201402D216D2DFC23AE47849F2C216
:100DA30003C220C223C226C21F22D208227857E2DE
:100DB300FD7C00640470557406F253E8F043E807C1
:100DC30043B30253B4FDE4F5F643F68043E101C2B5
:100DD300EFD2EEC2AE7835EBF2FF7846E22FF2188F
:100DE300E23400F2782BE204F2E2C394407480947C
:100DF300804060E4F27845E2FE08E27806CEC31351
:100E0300CE13D8F97818F2E478458044ED64064CA3
:100E1300704178577405F253E8F043E80443B12076
:100E230053B2DFE4F5F643F61043E101C2EFD2EE2D
:100E3300C2AEAF037848E22BF218E23400F2782D09
:100E4300E204F2E2700DF27847E27831F2E4784797
:100E5300F208F222C290C280C21343B30853B4F71C
:100E6300C208C20353B1BF53B2BFC20353B1FB5352
:100E7300B2FBC23043B12053B2DF53B17F43B280E0
:100E830053B3FE43B40153B1FE43B201C290C280D7
:100E930053B1F743B20853B1FD43B20253B1FB530D
:100EA300B2FB43B30253B4FD53B3FB43B40453B394
:100EB300DF43B42043B11053B2EF43DE2043DE10CF
:100EC30043DF4053DF7F43D620A2AF9222C2AF75E8
:100ED300C7AA75C75543F904A22292AF43DF05534E
:100EE300DFFDE4F5D175D9FF120003A2AF9222C250
:100EF300AF75C7AA75C755439101A22292AFE4F516
:100F0300C4F5CCA2AF9222C2AF75C7AA75C7555319
:100F130091FEA22292AFD2DED2DF75C6E075C5C0C4
:100F2300439C02D2AF43C40843E80853E8F843E1C3
:100F33000153E8F043B38053B47FF5F643F601431E
:100F4300E10178577405F2C2EFD2EEC2AE7580FEAE
:100F5300E4785CF27820F2783474FFF2782E74012E
:100F6300F2D201D282D212D23D78617480F2D2924F
:100F7300C295E4783BF2C22BC202C21CD22953B3FE
:100F8300EF43B410D294C2247817F27815F2C2203A
:100F9300C295784CF2C206C22C784FF27810F20850
:100FA300F27813F208F27816F2C223C226C21FC2E5
:100FB3003EC2107824F2C228782CF2C225C233C272
:100FC30017C23B780DF22230800302106A3090037F
:100FD30002106A7849E26401600302106F7402F23E
:100FE300E4785FF253B1EF43B210C2847833F278FE
:100FF30033E2D394287480948040F443B11053B205
:10100300EFE4F27833E2D394037480948040F4E401
:10101300F27833E2D3940274809480500F3084F1D9
:10102300785F7401F2784974FFF280E553B1EF43BE
:10103300B210D284E47833F27833E2D39428748004
:10104300948040F443B11053B2EFE4F27833E2D327
:1010530094027480948050142084F1785F7402F2B7
:10106300784974FFF280E578497402F2785CE2FF14
:10107300782EE26F606CEFF2A2AF9222C2AF75C717
:10108300AA75C755439101A22292AFE4F5C4C37474
:10109300FF9FF5CCA2AF9222C2AF75C7AA75C75501
:1010A3005391FEA22292AFD2DE7E00C3EF94FE7470
:1010B300809480400D53DEDF53DEEFD238C281C20D
:1010C3008322EF4E700D53DEDF53DEEFD238C28141
:1010D300D2832230380C43DE20E47833F243DE102F
:1010E300C238222039030211C2C239203E20200611
:1010F3001D30131A3093177812E204F2E2C39405F9
:10110300748094804008309305C2947405F2303E95
:101113004920102B3093247812E204F2E2C39405A1
:10112300748094804015309312D210D292C230C290
:1011330006C23BC232C21EC21DE4F2E47824F2307E
:1011430010182093157824E204F2E2C3940A748001
:1011530094804006C23EE4F2C210209362E4781207
:10116300F27853E204F2E2C3940A74809480400458
:10117300E4F2D21320973E3082457843E27002189E
:10118300E2703C7802E204F2E2C394FA7480948041
:10119300402DE4F2780EE204F2E2943C74809480F1
:1011A300401DE4F2784EE204F2E2940A74809480E3
:1011B300400DC29422E47802F2780EF2784EF222C5
:1011C300787FE4F6D8FD9000007FFF7E03E4F0A370
:1011D300DFFCDEFA7581280212180212B2E493A32F
:1011E300F8E493A34003F68001F208DFF48029E4D6
:1011F30093A3F85407240CC8C333C4540F4420C822
:10120300834004F456800146F6DFE4800B010204B8
:10121300081020408090002FE47E019360BCA3FF60
:10122300543F30E509541FFEE493A360010ECF54ED
:10123300C025E060A840B8E493A3FAE493A3F8E4DC
:1012430093A3C8C582C8CAC583CAF0A3C8C582C848
:10125300CAC583CADFE9DEE780BEBC000BBE002936
:10126300EF8DF084FFADF022E4CCF875F008EF2F9A
:10127300FFEE33FEEC33FCEE9DEC984005FCEE9D57
:10128300FE0FD5F0E9E4CEFD22EDF8F5F0EE842073
:10129300D21CFEADF075F008EF2FFFED33FD4007D4
:1012A300985006D5F0F222C398FD0FD5F0EA22122A
:1012B3000E5775C7AA75C75575AA07A2AF9222C262
:1012C300AF75C7AA75C75543AA80A22292AFA2AF32
:1012D3009222C2AF75C7AA75C75543AA40A22292EC
:1012E300AF439B1075E98075EA40759B021210E6C7
:1012F300120086120FCA30EFB9120A3180B4C0E06F
:10130300C0D075D000C000C007AFECEF6440702CB4
:1013130012002820862378327414F2D20DC20FC231
:101323001553DEDF53DEEFD238D283C281C216C239
:10133300DF785CE4F2D22BF5EC75EC00D007D0003B
:05134300D0D0D0E03223
:00000001FF
