:10000000020F707F5E7E0BA2AF9221EEB4010BC295
:10001000AF75C7AA75C75543F91075C7AA75C755F7
:100020008FFAA22192AF2200007F09DFFE22813DDC
:0500300000811C00002E
:10003B000210AEC0E0C0D075D000C00053C4EF7842
:0B004B0032E204F2D000D0D0D0E0324E
:1000830002003E7832E270030208B5E4F2785CE2E3
:10009300C394FA5003E204F27829E2C394FA5003BA
:1000A300E204F2785AE204F2E2C394084023E4F251
:1000B300780BE204F2D238D235E2D394FA4012E458
:1000C300F27831E26003E214F2781FE26003E21493
:1000D300F2785EE27032303B2F201C2C201D292049
:1000E3002026201A2320192020311D202C1A200815
:1000F300177831E27012202B0F20040C2005092001
:100103000706200A03300C0AD20DC20FC215D22AE9
:10011300800B203908C20DC20FC215C22A30820AD1
:10012300C228E47827F208F2C21120821A7828E262
:100133002401F218E23400F2D308E294A018E29406
:100143000F4004D211C21B7817E2FFC394F4500985
:100153007834E2FDC394F4401F781808E22401FBCD
:10016300F218E23400FAF2D3EB9470EA94175003D6
:1001730002024BD22C02024BE47818F208F2C22C92
:10018300EFD39D400B7834E2FF7817E29FFE800A9D
:100193007817E2FF7834E2C39FFEEEC3940A40036C
:1001A30002024B782EE2B403207805744EF20874F1
:1001B30064F208745CF2783E740AF2D23A780C74F2
:1001C300FFF2782E7403F2D226782EE2B40222C212
:1001D3002C7805743DF2087452F2087447F2783EA5
:1001E3007414F2D23A780C7499F2782E7402F2C233
:1001F30026782EE2B40122C22C7805742AF2087400
:1002030037F2087432F2783E7414F2D23A780C74EE
:100213004CF2782E7401F2C226782EE27021C22CA1
:100223007805742AF2087437F2087432F2783E744F
:1002330014F2C23A780C744CF2E4782EF2C22678A7
:100243000CE27860F27833F2781FE27015303912DD
:10025300200D0F303A06D240C200800AC240D200BD
:100263008004C240C200A23F302601B3500CA22634
:10027300923FC20FC215E47809F220110330140D26
:10028300E4780EF27825F2C216C239806E30402F20
:10029300308006783EE27826F2E4780EF27825E2A2
:1002A300C394FA5003E204F27849E2D39418400C61
:1002B300C290E4785FF2D280D287803FE480393005
:1002C3000032309006783EE27826F2E47825F27820
:1002D3000EE2C394FA5003E204F2785FE2D3941877
:1002E300400CC280E47849F2D290D287800DE47842
:1002F3000EF28007E4780EF27825F2780EE2D394BA
:1003030064500A7825E294645003020421785BE286
:10031300C3941950037419F2784AE204F27800E2A4
:10032300FF784AE2D39F5003020425E4F220031F1F
:100333007803E2FF785BE2FDD39F4009EDD3941984
:100343004003E214F2785BE2C39F5003E204F278C5
:100353002FE2FFD39439400618E264036013EFD30E
:100363009439500302040A782EE264026003020403
:100373000A785BE2FFD394CC4008782EE2B4030200
:10038300D21FEFD3948C4008782EE2B40202D21F1E
:10039300301F74D203785BE214F27800740AF278A7
:1003A3005BE2C39465500B782EE2B40305785B746B
:1003B30065F2785BE2C3944C500B782EE2B40205ED
:1003C300785B744CF2785BE2FFD394665007782E27
:1003D300E26403600CEFD3944E502C782EE2B40207
:1003E300267859E22401F218E23400F2C308E294B9
:1003F300F418E294014010D21A7841E4F208742808
:10040300F2E47858F208F2782FE2D394395013E4E7
:100413007858F208F2C2037800741BF28004E4787F
:100423005BF27808E204F2E2C3942950030208B5B0
:10043300E4F2783AE2D394645003E204F2203C6598
:10044300303B0E20310B201D08201C057831E26063
:10045300137843E204F2D39405404AE4F2A292B340
:10046300929280417843E204F2D3940C4037E4F251
:10047300780AE204F27835E2FF600F780AE29F50CF
:1004830007A292B392928002C292EF2404FDE43356
:10049300FC780AE2C39DEC6480F87480984006E41B
:1004A300780AF2D292785EE2FFB401077835740CD1
:1004B300F28040EFB402077835740EF28035202CB9
:1004C3000330080778357408F2802830140778352C
:1004D3007404F2801E201A06201903302007783591
:1004E3007406F2800E30110778357402F28004E44A
:1004F3007835F27817E2FFD394B24007782E74036D
:10050300F2801EEFD394804007782E7402F280119C
:10051300EFD3941A4007782E7401F28004E4782E06
:10052300F27804E204F2D39419500302078EE4F242
:10053300302D5720021D782EE26003B40115785345
:10054300E204F2C394F0400BD21AE4F27841F208C9
:100553007428F2782EE2FFB402157853E204F2C352
:1005630094F0400BD21AE4F27841F2087428F2EFC7
:10057300B403267853E204F2C394F0401CD21AE485
:10058300F27841F2087428F2800FE47853F278424B
:10059300E2700218E27002C21A303655782EE26019
:1005A30003B40115785DE204F2C3945A400BD220E0
:1005B300E4F27841F2087428F2782EE2B402157856
:1005C3005DE204F2C3943C400BD220E4F27841F2A2
:1005D300087428F2782EE2B40326785DE204F2C3AD
:1005E3009428401CD220E4F27841F2087428F28067
:1005F3000FE4785DF27842E2700218E27002C220E2
:10060300303340782EE26003B401157851E204F2EE
:10061300C39414400BD219E4F27841F2087428F21F
:10062300782EE2FF64026004EFB403267851E204FB
:10063300F2C3940A401CD219E4F27841F2087428F8
:10064300F2800FE47851F27842E2700218E270020D
:10065300C219302E2D7854E204F2C394054052D2CD
:1006630006D21CE4F2D22F7841202709F208743C09
:10067300F2C2328009740EF2087410F2D232D2241C
:10068300802FE47854F27842E2700218E27022205C
:10069300321D302F1CC292D295D23C302413782BBA
:1006A300E204F2E2C394034002D227C2248002C2CE
:1006B3009430302D7855E204F2C394024052D206AE
:1006C300D21DD22FE4F27841202709F208743CF2BC
:1006D300C2328009740EF2087410F2D232D224802E
:1006E3002FE47855F27842E2700218E27022203249
:1006F3001D302F1CC292D295D23C302413782BE2AA
:1007030004F2E2C394034002D227C2248002C294BB
:1007130030342D7857E204F2C394014052D206D20A
:100723002FD231E4F27841202709F208743CF2C257
:10073300328009740EF2087410F2D232D224802F60
:10074300E47857F27842E2700218E2702220321DF8
:10075300302F1CC292D295D23C302413782BE20462
:10076300F2E2C394034002D227C2248002C29478E7
:1007730042E2700218E2600B7842E224FFF218E2D0
:1007830034FFF2781BE26003E214F230391B300BC2
:1007930004C20BD20EE4784CF27838F208F220113E
:1007A30004D201801FC201801BD20B783808E224D7
:1007B30001FDF218E23400FCF2D3ED9498EC943A84
:1007C3004002C2017830E2FFC394865014781AE2E3
:1007D30004F2E294E1401AD214C216087428F2809B
:1007E30010E4781AF2EFD394A1400608E27002C233
:1007F3001420800D785FE2C394FA5009E204F2807A
:1008030004E4785FF220900D7849E2C394FA50092A
:10081300E204F28004E47849F27826E2FFD39401FB
:10082300400BE214F2783F7402F20208B3783FE21D
:100833006005E214F28002C287EF6069E47826F271
:10084300785BF2120DAA202A06785B740A8003E40F
:10085300785BF2120DAAE47826F2303907300E04E1
:10086300C20E801FE47832F27832E2D39414500A35
:100873003039F5300EF2C20E80097826E204F2E236
:10088300B432D7E47826F2C280C2907832F278325A
:10089300E2D3946450083039F5300EF2C20EE47896
:1008A3005BF2120DAAC280C290E4780EF27825F2B0
:1008B300C20E22C2EFABC37856E2FD6405600302A9
:1008C3000A6C7407F253E8F043B38053B47FE4F542
:1008D300F643F60143E101C2EFD2EEC2AEEBFF787D
:1008E30050E22FF218E23400F2781EE204F2E2C37F
:1008F30094085003020C3DE4F2784FE2FE08E278DC
:1009030003CEC313CE13D8F9782FF2E4784FF2084D
:10091300F2783AE2C394645004E4782FF2782FE239
:10092300FFC39449400618E264016014EFC394497D
:10093300400320220B782FE2C394494018301E1540
:10094300781DE204F2E47837F2781DE2D39405408F
:1009530015D22E8011E4781DF27837E204F2E2D347
:1009630094054002C22E782FE2FFC3947340061809
:10097300E264026009EFC3947340183025157820B0
:10098300E204F2E4783BF27820E2D394054015D2F6
:10099300308011783BE204F2E2D394054006C23082
:1009A300E47820F2782FE2FFD3948F40157821E288
:1009B30004F2E4783CF27821E2D394014015D23476
:1009C3008011E47821F2783CE204F2E2D39405400A
:1009D30002C2347806E2FEEFD39E40157822E20489
:1009E300F2E4783DF27822E2D394054015D23380C5
:1009F30011E47822F2783DE204F2E2D39405400256
:100A0300C2337805E2FF782FE2FED39F4015781CAE
:100A1300E204F2E47836F2781CE2D3940A4015D269
:100A23002D8011E4781CF27836E204F2E2D39405C7
:100A33004002C22D7807E2FFEED39F40177824E2ED
:100A430004F2E47840F27824E2D394055003020CD4
:100A53003DD23622E47824F27840E204F2E2D394E1
:100A6300055003020C3DC23622ED64076003020BFE
:100A73009E78567404F253E8F043E80143AC015303
:100A8300ADFEE4F5F643F60243E101C2EFD2EEC256
:100A9300AEEBD394F54002D208EBD3944250030259
:100AA3000B6AE47829F2785CE29464401230160F02
:100AB3007848E2700204F27848E2B40202D2397450
:100AC300BE2BFBD3947F40027B7F302647782EE2F8
:100AD30064037040EBC3942F500978037450F2D22F
:100AE30022C225EBC3942F400EEB94565009780392
:100AF300748FF2D225C222EBC394564017EB75F0E4
:100B0300DAA4FFAEF07C007D7F12100A7803EFF2C7
:100B1300C222C225202620782EE2B4021AEBC39407
:100B23005F500778037450F2D21EEBC3945F400703
:100B33007803748FF2C21E20260B782EE2B40105CF
:100B430078037450F2202618782EE27013EB75F0B8
:100B53004FA4FFAEF07C007D7F12100A7803EFF202
:100B63007803E22419F222EBD3941A402BE4785C45
:100B7300F2C2087829E294645003020C3D20110567
:100B8300201402D216D2DFC239E47848F2C203C27B
:100B93001FC222C225C21E22D208227856E2FD6459
:100BA3000470517406F253E8F043E80743B3025369
:100BB300B4FDE4F5F643F68043E101C2EFD2EEC2A1
:100BC300AE7834EBF2FF7845E22FF218E23400F20C
:100BD300782AE204F2E2C39440405FE4F27844E20C
:100BE300FE08E27806CEC313CE13D8F97817F2E4E1
:100BF30078448043ED6406704178567405F253E8F7
:100C0300F043E80443B12053B2DFE4F5F643F610B2
:100C130043E101C2EFD2EEC2AEAF037847E22BF25B
:100C230018E23400F2782CE204F2E2700DF2784616
:100C3300E27830F2E47846F208F222C290C280C22F
:100C43001343B30853B4F7C208C20353B1BF53B23B
:100C5300BFC20353B1FB53B2FBC22F43B12053B204
:100C6300DF53B17F43B28053B3FE43B40153B1FEAC
:100C730043B201C290C28053B1F743B20853B1FDEE
:100C830043B20253B1FB53B2FB43B30253B4FD531C
:100C9300B3FB43B40453B3DF43B42043B11053B2A3
:100CA300EF43DE2043DE1043DF4053DF7F43D62094
:100CB300A2AF9221C2AF75C7AA75C75543F904A263
:100CC3002192AF43DF0553DFFDE4F5D175D9FF1260
:100CD3000003A2AF9221C2AF75C7AA75C75543914E
:100CE30001A22192AFE4F5C4F5CCA2AF9221C2AF29
:100CF30075C7AA75C7555391FEA22192AFD2DED212
:100D0300DF75C6E075C5C0439C02D2AF43C4084338
:100D1300E80853E8F843E10153E8F043B38053B4E0
:100D23007FF5F643F60143E10178567405F2C2EF0D
:100D3300D2EEC2AE7580FEE4785BF2781FF27833B0
:100D430074FFF2782D7401F2D201D282D212D23B17
:100D530078607480F2D292C295E4783AF2C22AC2E1
:100D630002C21BD22853B3EF43B410D294C22378E8
:100D730016F27814F2C21FC295784BF2C206C22B48
:100D8300784EF2780FF208F27812F208F27815F240
:100D9300C222C225C21EC23CC2107823F2C22778E7
:100DA3002BF2C224C23222308003020E3C30900365
:100DB300020E3C7848E264016003020E417402F2C1
:100DC300E4785EF253B1EF43B210C2847832F27822
:100DD30032E2D3942840F843B11053B2EFE47832AF
:100DE300F27832E2D3940340F8E47832F27832E2D4
:100DF300D39402500F3084F5785E7401F27848740E
:100E0300FFF280E953B1EF43B210D284E47832F2B7
:100E13007832E2D3942840F843B11053B2EFE47828
:100E230032F27832E2D3940250142084F5785E745F
:100E330002F2784874FFF280E978487402F2785B32
:100E4300E2FF782DE26F6065EFF2A2AF9221C2AFAD
:100E530075C7AA75C755439101A22192AFE4F5C4A2
:100E6300C374FF9FF5CCA2AF9221C2AF75C7AA7519
:100E7300C7555391FEA22192AFD2DEEFC394FE4039
:100E83000D53DEDF53DEEFD237C281C28322EF7010
:100E93000D53DEDF53DEEFD237C281D283223037E8
:100EA3000C43DE20E47832F243DE10C237222038CE
:100EB30003020F6FC238203C1C2006193013163072
:100EC30093137811E204F2E2C394054008309305CA
:100ED300C2947405F2303C3F20102530931E7811E4
:100EE300E204F2E2C394054013309310D210D2927D
:100EF300C22FC206C231C21DC21CE4F2E47823F23F
:100F03003010142093117823E204F2E2C3940A40D0
:100F130006C23CE4F2C210209352E47811F27852F4
:100F2300E204F2E2C3940A4004E4F2D213209732BB
:100F33003082397842E2700218E270307802E204BB
:100F4300F2E2C394FA4025E4F2780DE204F2E2946B
:100F53003C4019E4F2784DE204F2E2940A400DC2F7
:100F63009422E47802F2780DF2784DF222787FE44D
:100F7300F6D8FD9000007FFF7E03E4F0A3DFFCDEE4
:100F8300FA758128020FC502105FE493A3F8E49376
:100F9300A34003F68001F208DFF48029E493A3F869
:100FA3005407240CC8C333C4540F4420C8834004DB
:100FB300F456800146F6DFE4800B0102040810209A
:100FC300408090002EE47E019360BCA3FF543F3029
:100FD300E509541FFEE493A360010ECF54C025E03E
:100FE30060A840B8E493A3FAE493A3F8E493A3C8F6
:100FF300C582C8CAC583CAF0A3C8C582C8CAC58387
:10100300CADFE9DEE780BEBC000BBE0029EF8DF02E
:1010130084FFADF022E4CCF875F008EF2FFFEE3338
:10102300FEEC33FCEE9DEC984005FCEE9DFE0FD5E7
:10103300F0E9E4CEFD22EDF8F5F0EE8420D21CFEBB
:10104300ADF075F008EF2FFFED33FD400798500624
:10105300D5F0F222C398FD0FD5F0EA22120C3E75AB
:10106300C7AA75C75575AA07A2AF9221C2AF75C7A4
:10107300AA75C75543AA80A22192AFA2AF9221C2FB
:10108300AF75C7AA75C75543AA40A22192AF439B28
:101093001075E98075EA40759B02120EB112008645
:1010A300120DAA30EFB91208B680B4C0E0C0D075F3
:1010B300D000C000C007E5EC6440702C120027206C
:1010C300862378317414F2D20DC20FC21553DEDFBA
:1010D30053DEEFD237D283C281C216C2DF785BE41C
:1010E300F2D22AF5EC75EC00D007D000D0D0D0E0D6
:0110F30032CA
:00000001FF
