:10000000020F1A7F5E7E0BA2AF921FEEB4010BC2ED
:10001000AF75C7AA75C75543F91075C7AA75C755F7
:100020008FFAA21F92AF2200007F09DFFE22813BE0
:0500300000811C00002E
:10003B000210C6C0E0C0D075D000C00053C4EF782A
:0B004B0030E204F2D000D0D0D0E03250
:1000830002003E7830E27003020988E4F27859E214
:10009300C394FA5003E204F27828E2C394FA5003BB
:1000A300E204F27857E204F2E2C394084023E4F254
:1000B300780BE204F2D231D22EE2D394FA4012E466
:1000C300F2782FE26003E214F2781FE26003E21495
:1000D300F2785BE2703230342F201B2C201C292055
:1000E3001E26201923201820202B1D20261A200825
:1000F30017782FE2701220250F20040C2005092009
:100103000706200A03300C0AD20DC20FC214D224F0
:10011300800B203208C20DC20FC214C22430820ADF
:10012300C222E47826F208F2C21020821A7827E26B
:100133002401F218E23400F2D308E294A018E29406
:100143000F4004D210C21A7817E2FFC394F4500987
:100153007832E2FDC394F4401F781808E22401FBCF
:10016300F218E23400FAF2D3EB9470EA94175003D6
:1001730002024BD22602024BE47818F208F2C2269E
:10018300EFD39D400B7832E2FF7817E29FFE800A9F
:100193007817E2FF7832E2C39FFEEEC3940A40036E
:1001A30002024B782CE2B403207805744EF20874F3
:1001B30064F208745CF2783C740AF2D233780C74FB
:1001C300FFF2782C7403F2D221782CE2B40222C21B
:1001D300267805743DF2087452F2087447F2783CAD
:1001E3007414F2D233780C7499F2782C7402F2C23C
:1001F30021782CE2B40122C2267805742AF208740D
:1002030037F2087432F2783C7414F2D233780C74F7
:100213004CF2782C7401F2C221782CE27021C226B0
:100223007805742AF2087437F2087432F2783C7451
:1002330014F2C233780C744CF2E4782CF2C22178B5
:100243000CE2785DF27831F2781FE27015303212E9
:10025300200D0F303306D238C200800AC238D200D4
:100263008004C238C200A237302101B3500CA2214E
:100273009237C20FC214E47809F220100330130D31
:10028300E4780EF27824F2C215C232806E30382F31
:10029300308006783CE27825F2E4780EF27824E2A6
:1002A300C394FA5003E204F27846E2D39418400C64
:1002B300C290E4785CF2D280D287803FE480393008
:1002C3000032309006783CE27825F2E47824F27824
:1002D3000EE2C394FA5003E204F2785CE2D394187A
:1002E300400CC280E47846F2D290D287800DE47845
:1002F3000EF28007E4780EF27824F2780EE2D394BB
:1003030064500A7824E2946450030203D27858E2DA
:10031300C3941950037419F27847E204F27800E2A7
:10032300FF7847E2D39F50030203D6E4F220031F72
:100333007803E2FF7858E2FDD39F4009EDD3941987
:100343004003E214F27858E2C39F5003E204F278C8
:100353002DE2D39439406F18E2FF64037068785834
:10036300E2D394CC4002D21D301D68D2037858E208
:1003730014F27800740AF27858E2C3946550037457
:1003830065F27858E2FDD394665027EFB4032378DF
:1003930056E22401F218E23400F2C308E294F4189E
:1003A300E29401400DD219783F7428F2E47855F2B3
:1003B30008F2EDD39466401B782CE2B40315E4787D
:1003C30055F208F2800DC2037800741BF28004E436
:1003D3007858F27808E204F2E2C394295003020940
:1003E30088E4F27838E2D394645003E204F23034C0
:1003F3000E202B0B201C08201B05782FE26013789E
:1004030040E204F2D39405404AE4F2A292B39292FA
:1004130080417840E204F2D3940C4037E4F2780A46
:10042300E204F27833E2FF600F780AE29F5007A2FA
:1004330092B392928002C292EF2404FDE433FC78DB
:100443000AE2C39DEC6480F87480984006E4780A5D
:10045300F2D292785BE2FFB401077833740CF28036
:1004630052EFB402077833740EF28047202603302C
:10047300080778337408F2803A301307783374042A
:10048300F28030201918201815201E1220250F2065
:10049300040C200509200706200A03300C077833D3
:1004A3007406F2800E30100778337402F28004E48D
:1004B3007833F27817E2FFD394B24007782C7403B1
:1004C300F28037EFD394804010C220E47816F2789C
:1004D30014F2782C7402F28021EFD3941A400FC2E5
:1004E30020E47816F27814F2782C04F2800CC220FF
:1004F300E47816F27814F2782CF27804E204F2D35A
:1005030094195003020861E4F230275120021B784A
:100513002CE26003B401137850E204F2C394F04078
:1005230009D219E4F2783F7428F2782CE2FFB4027E
:10053300137850E204F2C394F04009D219E4F2783C
:100543003F7428F2EFB403207850E204F2C394F02E
:100553004016D219E4F2783F7428F2800BE4785005
:10056300F2783FE27002C219302F4F782CE2600319
:10057300B40113785AE204F2C3945A4009D21EE438
:10058300F2783F7428F2782CE2B40213785AE2042A
:10059300F2C3943C4009D21EE4F2783F7428F27807
:1005A3002CE2B40320785AE204F2C394284016D212
:1005B3001EE4F2783F7428F2800BE4785AF2783F15
:1005C300E27002C21E302C3C782CE26003B40113AB
:1005D300784EE204F2C394144009D218E4F2783F4F
:1005E3007428F2782CE2FF64026004EFB4032078ED
:1005F3004EE204F2C3940A4016D218E4F2783F7430
:1006030028F2800BE4784EF2783FE27002C2183091
:1006130028197851E204F2C39405401FD206D21B75
:10062300E4F2783F743CF2D2298010E47851F278F6
:100633003FE27007C21B302902C294302A19785254
:10064300E204F2C39404401FD206D21CD229E4F27E
:10065300783F743CF28010E47852F2783FE27007FE
:10066300C21C302902C294302D197854E204F2C31B
:100673009401401FD206D229D22BE4F2783F743C76
:10068300F28010E47854F2783FE27007C22B3029ED
:1006930002C294301D030208517858E2FFC394AF9D
:1006A300402AEF94CC5025782CE2B4031F08E2D300
:1006B300947240187815E204F29406401FD20CE4B9
:1006C300F2783F743CF2D206D2298010E47815F216
:1006D300783FE27007C20C302902C2947858E2FFD7
:1006E300C394964031EF94AF502C782CE2FF64030F
:1006F3006004EFB40220782DE2D3945C40187813A1
:10070300E204F29406401FD20AE4F2783F743CF20A
:10071300D206D2298010E47813F2783FE27007C240
:100723000A302902C2947858E2FFC3947D4031EF26
:100733009496502C782CE2FF64036004EFB40220FB
:10074300782DE2D394504018784BE204F29406409B
:100753001FD225E4F2783F743CF2D206D2298010EE
:10076300E4784BF2783FE27007C225302902C29445
:100773007858E2FFC394664031EF947D502C782C77
:10078300E2FF64036004EFB40220782DE2D39448BF
:100793004018780FE204F29406401FD204E4F27882
:1007A3003F743CF2D206D2298010E4780FF2783FEE
:1007B300E27007C204302902C2947858E2FFC3945E
:1007C3004C4031EF9466502C782CE2FF64036004B4
:1007D300EFB40220782DE2D3943940187810E20464
:1007E300F29406401FD205E4F2783F743CF2D2063D
:1007F300D2298010E47810F2783FE27007C2053006
:100803002902C2947858E2FFC394334031EF944CE9
:10081300502C782CE2FF64036004EFB40220782D9F
:10082300E2D3942A40187812E204F29406401FD2CD
:1008330007E4F2783F743CF2D206D2298010E478C0
:1008430012F2783FE27007C207302902C294783F60
:10085300E26003E214F2781BE26003E214F2303246
:100863001B300B04C20BD20EE47849F27836F2083F
:10087300F2201004D201801FC201801BD20B7836F4
:1008830008E22401FDF218E23400FCF2D3ED94985F
:10089300EC943A4002C201782EE2FFC394865014CE
:1008A300781AE204F2E294E1401AD213C2150874F2
:1008B30028F28010E4781AF2EFD394A1400608E2FC
:1008C3007002C21320800D785CE2C394FA5009E2EF
:1008D30004F28004E4785CF220900D7846E2C3943D
:1008E300FA5009E204F28004E47846F27825E2FF44
:1008F300D39401400BE214F2783D7402F2020986AC
:10090300783DE26005E214F28002C287EF6069E499
:100913007825F27858F2120E132024067858740AB8
:100923008003E47858F2120E13E47825F23032078C
:10093300300E04C20E801FE47830F27830E2D39494
:1009430014500A3032F5300EF2C20E80097825E2D7
:1009530004F2E2B432D7E47825F2C280C290783050
:10096300F27830E2D3946450083032F5300EF2C29C
:100973000EE47858F2120E13C280C290E4780EF29D
:100983007824F2C20E22C2EFABC37853E2FD6405B2
:100993006003020B267407F253E8F043B38053B4A9
:1009A3007FE4F5F643F60143E101C2EFD2EEC2AEB6
:1009B300EBFF784DE22FF218E23400F2781EE204E6
:1009C300F2E2C394085003020CBCE4F2784CE2FE5A
:1009D30008E27803CEC313CE13D8F9782DF2E47866
:1009E3004CF208F27838E2C394645004E4782DF2B0
:1009F300782DE2FFC39449401A18E2B40115781D1B
:100A0300E204F2E47835F2781DE2D394054015D27E
:100A1300288011E4781DF27835E204F2E2D39405DC
:100A23004002C228EFC39473401B782CE2B4021532
:100A33007820E204F2E47839F27820E2D394054096
:100A430015D22A80117839E204F2E2D394054006E4
:100A5300C22AE47820F2782DE2D3948F401C18E266
:100A6300B40317D2957821E204F2E4783AF27821BC
:100A7300E2D394014015D22D8011E47821F2783A23
:100A8300E204F2E2D394054002C22D7806E2FF7835
:100A93002DE2FED39F40157822E204F2E4783BF284
:100AA3007822E2D394054015D22C8011E47822F207
:100AB300783BE204F2E2D394054002C22C7805E2CB
:100AC300FFEED39F4015781CE204F2E47834F27809
:100AD3001CE2D3940A4015D2278011E4781CF278E3
:100AE30034E204F2E2D394054002C2277807E2FF1E
:100AF300782DE2D39F40177823E204F2E4783EF2A4
:100B03007823E2D394055003020CBCD22F22E4785D
:100B130023F2783EE204F2E2D394055003020CBCC4
:100B2300C22F22ED64076003020C1D78537404F294
:100B330053E8F043E80143AC0153ADFEE4F5F6435B
:100B4300F60243E101C2EFD2EEC2AEEBD394F5401D
:100B530002D208EBD394425003020BEFE47828F25D
:100B63007859E29464401230150F7845E27002041C
:100B7300F27845E2B40202D23274BE2BFBD3947FE7
:100B830040027B7F302119782CE2B40313EB75F01C
:100B9300DAA4FFAEF07C007D7F1210227803EFF21F
:100BA300202119782CE2B40213EB75F08FA4FFAE69
:100BB300F07C007D7F1210227803EFF220210B7866
:100BC3002CE2B4010578037450F2202118782CE24A
:100BD3007013EB75F04FA4FFAEF07C007D7F121015
:100BE300227803EFF27803E22419F222EBD3941A6A
:100BF3004025E47859F2C2087828E294645003024D
:100C03000CBC201005201302D215D2DFC232E478C7
:100C130045F2C203C21D22D208227853E2FD6404C6
:100C230070517406F253E8F043E80743B30253B438
:100C3300FDE4F5F643F68043E101C2EFD2EEC2AE26
:100C43007832EBF2FF7842E22FF218E23400F278C6
:100C530029E204F2E2C39440405FE4F27841E2FE09
:100C630008E27806CEC313CE13D8F97817F2E478E6
:100C7300418043ED6406704178537405F253E8F004
:100C830043E80443B12053B2DFE4F5F643F61043DF
:100C9300E101C2EFD2EEC2AEAF037844E22BF21809
:100CA300E23400F2782AE204F2E2700DF27843E2D1
:100CB300782EF2E47843F208F222C290C280C21284
:100CC30043B30853B4F7C208C20353B1BF53B2BF0F
:100CD300C20353B1FB53B2FBC22943B12053B2DF6A
:100CE30053B17F43B28053B3FE43B40153B1FE43C8
:100CF300B201C290C28053B1F743B20853B1FD436E
:100D0300B20253B1FB53B2FB43B30253B4FD53B32B
:100D1300FB43B40453B3DF43B42043B11053B2EFE6
:100D230043DE2043DE1043DF4053DF7F43D620A260
:100D3300AF921FC2AF75C7AA75C75543F904A21F67
:100D430092AF43DF0553DFFDE4F5D175D9FF120000
:100D530003A2AF921FC2AF75C7AA75C755439101CE
:100D6300A21F92AFE4F5C4F5CCA2AF921FC2AF7538
:100D7300C7AA75C7555391FEA21F92AFD2DED2DF29
:100D830075C6E075C5C0439C02D2AF43C40843E8AF
:100D93000853E8F843E10153E8F043B38053B47FC9
:100DA300F5F643F60143E10178537405F2C2EFD23D
:100DB300EEC2AE7580FEE47858F2781FF278317493
:100DC300FFF2782B7401F2D201D282D211D234789D
:100DD3005D7480F2D292C295E47838F2C224C202E2
:100DE300C21AD22253B3EF43B410D294C22078165E
:100DF300F27814F2C21DC2957848F2C206C2257871
:100E03004BF2780FF208F27812F208F27815F22218
:100E1300308003020EA5309003020EA57845E264EC
:100E2300016003020EAA7402F2E4785BF253B1EF9D
:100E330043B210C2847830F27830E2D3942840F879
:100E430043B11053B2EFE47830F27830E2D3940335
:100E530040F8E47830F27830E2D39402500F3084D3
:100E6300F5785B7401F2784574FFF280E953B1EFD2
:100E730043B210D284E47830F27830E2D39428403D
:100E8300F843B11053B2EFE47830F27830E2D39400
:100E93000250142084F5785B7402F2784574FFF2F3
:100EA30080E978457402F27858E2FF782BE26F60AC
:100EB30065EFF2A2AF921FC2AF75C7AA75C75543BC
:100EC3009101A21F92AFE4F5C4C374FF9FF5CCA2B6
:100ED300AF921FC2AF75C7AA75C7555391FEA21F24
:100EE30092AFD2DEEFC394FE400D53DEDF53DEEF4D
:100EF300D230C281C28322EF700D53DEDF53DEEFA7
:100F0300D230C281D2832230300C43DE20E47830E9
:100F1300F243DE10C23022787FE4F6D8FD90000061
:100F23007FFF7E03E4F0A3DFFCDEFA758127020F67
:100F33006F021077E493A3F8E493A34003F68001D0
:100F4300F208DFF48029E493A3F85407240CC8C300
:100F530033C4540F4420C8834004F456800146F63A
:100F6300DFE4800B010204081020408090002EE48F
:100F73007E019360BCA3FF543F30E509541FFEE498
:100F830093A360010ECF54C025E060A840B8E4935A
:100F9300A3FAE493A3F8E493A3C8C582C8CAC5839C
:100FA300CAF0A3C8C582C8CAC583CADFE9DEE78021
:100FB300BE30316AC23120061930121630931378CD
:100FC30011E204F2E2C394054008309305C294741D
:100FD30005F2209349E47811F2784FE204F2E2C378
:100FE300940A4004E4F2D212209729308230780226
:100FF300E204F2E2C394FA4025E4F2780DE204F24B
:10100300E2943C4019E4F2784AE204F2E2940A40A2
:101013000DC29422E47802F2780DF2784AF222BCEF
:10102300000BBE0029EF8DF084FFADF022E4CCF875
:1010330075F008EF2FFFEE33FEEC33FCEE9DEC98DA
:101043004005FCEE9DFE0FD5F0E9E4CEFD22EDF860
:10105300F5F0EE8420D21CFEADF075F008EF2FFF03
:10106300ED33FD4007985006D5F0F222C398FD0FEB
:10107300D5F0EA22120CBD75C7AA75C75575AA0724
:10108300A2AF921FC2AF75C7AA75C75543AA80A264
:101093001F92AFA2AF921FC2AF75C7AA75C75543C0
:1010A300AA40A21F92AF439B1075E98075EA407571
:1010B3009B02120FB4120086120E1330EFB91209FD
:1010C3008980B4C0E0C0D075D000C000C007E5EC93
:1010D3006440702C120027208623782F7414F2D2D8
:1010E3000DC20FC21453DEDF53DEEFD230D283C200
:1010F30081C215C2DF7858E4F2D224F5EC75EC0016
:09110300D007D000D0D0D0E032BA
:00000001FF
