:101050000A2056616C7565203D2030782562780045
:100E97007F007EC27D017C00120FC453E8F043E857
:100EA7000343B14053B2BFE4F5F643F60843E1010B
:100EB700C2EFD2EE30EFFD7BFF7A10795085C30B7E
:100EC7001208627BFF7A10795085C20B1208627F85
:0C0ED700647E007D007C00120F2E80D491
:100FC40053B1BF53B2BF53B17F53B27F75985043EF
:100FD4008920438780438E1053C4DFAB07AA06A938
:100FE40005A8047F407E427D0F7C00120B98EF041D
:090FF400F404F58DD28ED299228D
:100CDC008F1F8E1E8D1D8C1C53B1BF53B2BF53B1D1
:100CEC007F53B27F75985043878053C4F843C42018
:100CFC00AB1FAA1EA91DA81C7F407E427D0F7C0045
:100D0C00120B98C374FF9FFF74FF9EFEE49DFDE4DD
:100D1C009CFC7808120C3B8FC6AB1FAA1EA91DA801
:100D2C001C7F407E427D0F7C00120B98C374FF9F8A
:090D3C00FF8FC543C408D29922BF
:071060003098FDAF99C29822
:011067002266
:08106800C2998F993099FD2215
:100D45008F258E248D238C2253B1FB53B2FB53B3D5
:100D5500BF53B4BF75F85075C40853C4DFAB25AA9B
:100D650024A923A8227F407E427D0F7C00120B9888
:100D7500C374FF9FFF74FF9EFEE49DFDE49CFC7819
:100D850008120C3B8FC6AB25AA24A923A8227F40B5
:100D95007E427D0F7C00120B98C374FF9FFF8FC5A9
:040DA50043C4082219
:0710700030F8FDAF9AC2F851
:011077002256
:08107800C2F98F9A30F9FD2244
:100EE3008F298E288D278C26538EF7438901D28C28
:100EF300E4FFFEFDFCAB29AA28A927A826C3120CF0
:100F03002A6025758A7E758CFF308DFDC28DE5299B
:100F130024FFF529E52834FFF528E52734FFF527D5
:0B0F2300E52634FFF52680C8C28C22B2
:100F2E008F0B8E0A8D098C08538EF7438901D28C54
:100F3E00E4FFFEFDFCAB0BAA0AA909A808C3120C1C
:100F4E002A6025758ACA758CFA308DFDC28DE50B27
:100F5E0024FFF50BE50A34FFF50AE50934FFF50920
:0B0F6E00E50834FFF50880C8C28C22A3
:100F79008F2D8E2C8D2B8C2A538EEF438910D28E78
:100F8900E4FFFEFDFCAB2DAA2CA92BA82AC3120C49
:100F99002A6025758BEA758DCB308FFDC28FE52DC3
:100FA90024FFF52DE52C34FFF52CE52B34FFF52B2B
:0B0FB900E52A34FFF52A80C8C28E2212
:100E49008F318E308D2F8C2E53C9BF53C9DF43C9C3
:100E590010D2CAE4FFFEFDFCAB31AA30A92FA82E9F
:100E6900C3120C2A602575CC3075CDF830CFFDC280
:100E7900CFE53124FFF531E53034FFF530E52F3486
:0E0E8900FFF52FE52E34FFF52E80C8C2CA22D9
:100DA9008F358E348D338C3275C40743C408E4FF04
:100DB900FEFDFCAB35AA34A933A832C3120C2A6054
:100DC9002B75C52C75C6CFE5C45410641070F85343
:100DD900C4EFE53524FFF535E53434FFF534E53363
:100DE90034FFF533E53234FFF53280C253C4F722BC
:100DF9008F398E388D378C3675C40743C408E4FFA4
:100E0900FEFDFCAB39AA38A937A836C3120C2A60F3
:100E19002B75C5D875C6FFE5C45410641070F85316
:100E2900C4EFE53924FFF539E53834FFF538E537FE
:100E390034FFF537E53634FFF53680C253C4F7225F
:03000000020FFDEF
:100FFD0075C7AA75C75575FD5A75C7AA75C75575B5
:10100D00FDA5787FE4F6D8FD9000007FFF7E03E418
:0C101D00F0A3DFFCDEFA758139020E97AB
:100B5C0075F008758200EF2FFFEE33FECD33CDCC50
:100B6C0033CCC58233C5829BED9AEC99E5829840D3
:100B7C000CF582EE9BFEED9AFDEC99FC0FD5F0D6B0
:100B8C00E4CEFBE4CDFAE4CCF9A88222B800C1B9DA
:100B9C000059BA002DEC8BF084CFCECDFCE5F0CB18
:100BAC00F97818EF2FFFEE33FEED33FDEC33FCEB51
:100BBC0033FB10D703994004EB99FB0FD8E5E4F90C
:100BCC00FA227818EF2FFFEE33FEED33FDEC33FCF9
:100BDC00C933C910D7059BE99A4007EC9BFCE99AED
:100BEC00F90FD8E0E4C9FAE4CCFB2275F010EF2F32
:100BFC00FFEE33FEED33FDCC33CCC833C810D70732
:100C0C009BEC9AE899400AED9BFDEC9AFCE899F86C
:0E0C1C000FD5F0DAE4CDFBE4CCFAE4C8F922FF
:100C2A00EB9FF5F0EA9E42F0E99D42F0E89C45F020
:010C3A002297
:100C3B00E8600FECC313FCED13FDEE13FEEF13FF97
:030C4B00D8F122BB
:10080000E517240BF8E60517227808300702780B65
:10081000E475F001120CA6020C4E2000EB7F2ED2E4
:10082000008018EF540F2490D43440D4FF30040BD0
:10083000EF24BFB41A0050032461FFE518600215CD
:1008400018051BE51B7002051A30070D7808E475C2
:10085000F001120CA6EF020C940210297403D207C7
:100860008003E4C207F5178B088A09890AE4F518A2
:10087000F51AF51BE51860077F2012083B80F57517
:1008800019FFC201C200C202C203C205C206C208E9
:10089000120809FF700D3007057F0012084CAF1BCE
:1008A000AE1A22B4255FC2D5C204120809FF24D0B3
:1008B000B40A00501A75F00A781830D50508B6FF4A
:1008C0000106C6A426F620D5047002D20380D924DE
:1008D000CFB41A00EF5004C2E5D204020A4CD20190
:1008E00080C6D20080C0D20280BCD2D580BAD205E8
:1008F00080B47F2012083B2002077401B518004025
:10090000F1120800FF12083B020874D208D20680D8
:1009100095120800FB120800FA120800F94A4B7001
:1009200006791D7A0B7BFF20022EE518602A7E00D7
:100930008E82758300120C6760060EEE651970F0EA
:10094000C2D5EBC0E0EAC0E0E9C0E0EE120A93D005
:10095000E0F9D0E0FAD0E0FB120C4EFF60AAEBC049
:10096000E0EAC0E0E9C0E012083BD0E02401F9D0A1
:10097000E03400FAD0E0FBE5190460DCD519D98039
:10098000877BFF7A0A798FD202809C791080027966
:1009900008C206C2088008D2D5790A8004790AC242
:1009A000D5E519047002F519E4FAFDFEFF120800FE
:1009B000FC7B08200113120800FD7B1030000A1296
:1009C0000800FE120800FF7B20EC3382D592D55040
:1009D00013C3E43000069FFFE49EFEE42001039D64
:1009E000FDE49CFCE4CBF8C201EC700CCFCECDCC86
:1009F000E824F8F870F38017C3EF33FFEE33FEED11
:100A000033FDEC33FCEB33FB994002FB0FD8E9EBF1
:100A1000300105F8D0E0C448B201C0E00AEC4D4E08
:100A20004F78207B0070C2EAB5190040BCC0E012CC
:100A30000A95D0F0D0E0200104C4C0E0C4B201C0E7
:100A4000F0120824D0F0D5F0EB020874120CB609AD
:100A50001153098B5808E24C08DE42098F4F099761
:0F0A60004409974908F743099D550981460981C3
:100A6F00450981470B3D5008E62D08EA2E090D2B4D
:100A7F0008EE23090B200B262A08A64800000905BB
:100A8F003F3F3F00790AA2D5200314300509B91062
:100A9F00020404B9080104A2D52006025001042063
:100AAF0002689202B518005034C0E07F203003195D
:100ABF007F30A20272067205500F120AECC202C2F8
:100ACF0006C205C2087F30800F300503E9C0E0126F
:100ADF00083B300503D0E0F9D0E0B518CC3005174E
:100AEF007F30B9100C12083B7F583004077F788095
:100AFF0003B9080312083B3002057F2D02083B7F24
:100B0F00202008F87F2B2006F322920280CF286E38
:100B1F00756C6C2900D2011208003001F8C20178FF
:100B2F001830D50108F60208A62D5043495812086F
:100B3F00002403B405004001E4900B389312082CF5
:0D0B4F00743A12082CD20375180402098BA9
:100C4E00BB010689828A83E0225002E722BBFE02A4
:090C5E00E32289828A83E49322D7
:100C6700BB010CE58229F582E5833AF583E0225042
:100C770006E92582F8E622BBFE06E92582F8E2228C
:0D0C8700E58229F582E5833AF583E49322A6
:100C9400BB010689828A83F0225002F722BBFE013F
:020CA400F32239
:100CA600FAE6FB0808E6F925F0F618E6CA3AF6224F
:100CB600D083D082F8E4937012740193700DA3A3CD
:100CC60093F8740193F5828883E4737402936860E1
:060CD600EFA3A3A380DFE1
:10102900EFB40A07740D121034740A309811A89994
:10103900B8130CC2983098FDA899C298B811F63027
:0710490099FDC299F59922FF
:00000001FF
