:100BE800A2AF9200C2AF75C7AA75C755439F01A2AD
:100BF8000092AFEF2420F5A6E4F5A775AF04A2AFE5
:100C08009200C2AF75C7AA75C75543A401A2009246
:100C1800AFAFAEA2AF9200C2AF75C7AA75C75553A2
:060C28009FFEA20092AF46
:010C2E0022A3
:1009BF00E4F5B1F5B2F5B3F5B4F5ACF5ADFF7EC224
:1009CF007D01FC1208F2C2927F647E007D007C00E4
:1009DF00120B52D2927F647E007D007C00120B526C
:1009EF00C2927F647E007D007C00120B52D2927FF8
:1009FF00647E007D007C00120B527F02120BE88F89
:0A0A0F00087F05120BE88F0980FE36
:03000000020C6887
:100C680075C7AA75C75575FD5A75C7AA75C755754D
:100C7800FDA5787FE4F6D8FD9000007FFF7E03E4B1
:0C0C8800F0A3DFFCDEFA7581280209BF32
:100B07008F118E108D0F8C0E538EF7438901D28C67
:100B1700E4FFFEFDFCAB11AA10A90FA80EC3120833
:100B2700CE6025758A7E758CFF308DFDC28DE511EF
:100B370024FFF511E51034FFF510E50F34FFF50F2D
:0B0B4700E50E34FFF50E80C8C28C22C2
:100B52008F0D8E0C8D0B8C0A538EF7438901D28C2C
:100B6200E4FFFEFDFCAB0DAA0CA90BA80AC31208F8
:100B7200CE6025758ACA758CFA308DFDC28DE50D61
:100B820024FFF50DE50C34FFF50CE50B34FFF50BF6
:0B0B9200E50A34FFF50A80C8C28C227F
:100B9D008F158E148D138C12538EEF438910D28EB8
:100BAD00E4FFFEFDFCAB15AA14A913A812C312088D
:100BBD00CE6025758BEA758DCB308FFDC28FE51517
:100BCD0024FFF515E51434FFF514E51334FFF51383
:0B0BDD00E51234FFF51280C8C28E2222
:100AB9008F198E188D178C1653C9BF53C9DF43C9B7
:100AC90010D2CAE4FFFEFDFCAB19AA18A917A81693
:100AD900C31208CE602575CC3075CDF830CFFDC274
:100AE900CFE51924FFF519E51834FFF518E5173492
:0E0AF900FFF517E51634FFF51680C8C2CA22B5
:100A19008F1D8E1C8D1B8C1A75C40743C408E4FFF7
:100A2900FEFDFCAB1DAA1CA91BA81AC31208CE60A7
:100A39002B75C52C75C6CFE5C45410641070F853D6
:100A4900C4EFE51D24FFF51DE51C34FFF51CE51B6E
:100A590034FFF51BE51A34FFF51A80C253C4F72297
:100A69008F248E238D228C2175C40743C408E4FF8B
:100A7900FEFDFCAB24AA23A922A821C31208CE603B
:100A89002B75C5D875C6FFE5C45410641070F853AA
:100A9900C4EFE52424FFF524E52334FFF523E522FB
:100AA90034FFF522E52134FFF52180C253C4F72232
:100C2F0053B1BF53B2BF53B17F53B27F7598504387
:100C3F008920438780438E1053C4DFAB07AA06A9D0
:100C4F0005A8047F407E427D0F7C0012083CEF0414
:090C5F00F404F58DD28ED2992225
:1008F2008F0D8E0C8D0B8C0A53B1BF53B2BF53B107
:100902007F53B27F75985043878053C4F843C42005
:10091200AB0DAA0CA90BA80A7F407E427D0F7C007A
:1009220012083CC374FF9FFF74FF9EFEE49DFDE42A
:100932009CFC78081208DF8FC6AB0DAA0CA90BA885
:100942000A7F407E427D0F7C0012083CC374FF9FE9
:09095200FF8FC543C408D29922AD
:070C94003098FDAF99C298F2
:010C9B002236
:080C9C00C2998F993099FD22E5
:10095B008F288E278D268C2553B1FB53B2FB53B3B7
:10096B00BF53B4BF75F85075C40853C4DFAB28AA86
:10097B0027A926A8257F407E427D0F7C0012083CCC
:10098B00C374FF9FFF74FF9EFEE49DFDE49CFC7807
:10099B00081208DF8FC6AB28AA27A926A8257F40F7
:1009AB007E427D0F7C0012083CC374FF9FFF8FC5F6
:0409BB0043C4082207
:070CA40030F8FDAF9AC2F821
:010CAB002226
:080CAC00C2F98F9A30F9FD2214
:1008000075F008758200EF2FFFEE33FECD33CDCCAF
:1008100033CCC58233C5829BED9AEC99E582984032
:100820000CF582EE9BFEED9AFDEC99FC0FD5F0D60F
:10083000E4CEFBE4CDFAE4CCF9A88222B800C1B939
:100840000059BA002DEC8BF084CFCECDFCE5F0CB77
:10085000F97818EF2FFFEE33FEED33FDEC33FCEBB0
:1008600033FB10D703994004EB99FB0FD8E5E4F96B
:10087000FA227818EF2FFFEE33FEED33FDEC33FC58
:10088000C933C910D7059BE99A4007EC9BFCE99A4C
:10089000F90FD8E0E4C9FAE4CCFB2275F010EF2F91
:1008A000FFEE33FEED33FDCC33CCC833C810D70791
:1008B0009BEC9AE899400AED9BFDEC9AFCE899F8CC
:0E08C0000FD5F0DAE4CDFBE4CCFAE4C8F9225F
:1008CE00EB9FF5F0EA9E42F0E99D42F0E89C45F080
:0108DE0022F7
:1008DF00E8600FECC313FCED13FDEE13FEEF13FFF7
:0308EF00D8F1221B
:00000001FF
