:020000040800F2
:10000000800B002039020008371000082F1000086C
:1000100033100008B90D0008CF12000800000000DE
:100020000000000000000000000000007D1000083B
:10003000BD0D00080000000039100008D5110008AF
:10004000530200085302000853020008530200083C
:100050005302000853020008C10D000853020008B3
:10006000530200085302000853020008530200081C
:10007000530200085302000853020008530200080C
:1000800053020008530200085302000853020008FC
:1000900053020008530200085302000853020008EC
:1000A00053020008530200085302000853020008DC
:1000B00053020008530200085302000853020008CC
:1000C00053020008530200085302000853020008BC
:1000D00053020008411200085302000853020008AE
:1000E000530200085302000853020008530200089C
:1000F000530200085302000853020008530200088C
:10010000530200085302000853020008530200087B
:10011000530200085302000853020008530200086B
:10012000530200085302000853020008530200085B
:10013000530200085302000853020008530200084B
:10014000530200085302000853020008530200083B
:10015000530200085302000853020008530200082B
:10016000530200085302000853020008530200081B
:10017000530200085302000853020008530200080B
:10018000530200085302000800F002F800F044F89F
:100190000AA090E8000C82448344AAF10107DA45E2
:1001A00001D100F039F8AFF2090EBAE80F0013F0F0
:1001B000010F18BFFB1A43F0010318473412000067
:1001C00054120000103A24BF78C878C1FAD85207F8
:1001D00024BF30C830C144BF04680C6070470000C1
:1001E0000023002400250026103A28BF78C1FBD840
:1001F000520728BF30C148BF0B6070471FB501F0E0
:10020000EBF89DE8030000F0A9FB00F073F81FBDB8
:1002100010B500F0D8F810BD00F03BF91146FFF71B
:10022000EDFF01F0C5F800F03FFB03B4FFF7F0FF6E
:1002300003BC00F025FD000009488047094800473D
:10024000FEE7FEE7FEE7FEE7FEE7FEE7FEE7FEE786
:10025000FEE7FEE704480549054A064B70470000E3
:10026000D91100088901000880010020800B0020BE
:1002700080030020800300200FB4044910B503AAB6
:10028000029800F009F810BC5DF814FB780000201B
:100290007047704770470000074B70B50D467B44B0
:1002A00000F011F80446284600F020F810B14FF095
:1002B000FF3070BD204670BDF310000001694A1C7C
:1002C00002610878704700B58FB0CDE90131002197
:1002D000059105497944CDE903101146684600F0BF
:1002E00024F90FB000BD0000E5FFFFFF007B00F028
:1002F0008000704710B54248542100F0E5FA4148AB
:10030000542100F0E1FA4048542100F0DDFA3F4961
:100310003B483C4A3F4B08603D490A603A491960F6
:10032000531C0365481C1065012008653B48344A8E
:1003300039A1784400F01CFA20B9384878440A38CA
:1003400000F0BBFA37482F4A35A1784400F010FA84
:1003500020B9344878440A3800F0AFFA32482A4AC3
:100360002FA1784400F004FA20B92F4878440A38C5
:1003700000F0A3FA40232248DC000021224600F0CE
:10038000D3F920B125487844543800F096FA1D4836
:1003900022464023002100F0C7F920B121487844CB
:1003A000543800F08AFA184822461023002100F041
:1003B000BBF9002806D01C487844BDE810405638E8
:1003C00000F07BBA10BD104870B5006D20F001043C
:1003D0000B4800F043FA0B4800F040FA0A4800F0DE
:1003E0003DFA09E0206D20F00105204600F036FAC4
:1003F000204600F073F82C46002CF3D170BD0000AD
:100400002400002078000020CC00002018000020EC
:100410001C0000202000002072000000AC10000032
:100420007700000098100000841000000EB5CDE9A0
:10043000000100F005FC029069460120ABBE0EBD34
:1004400008B5694600900220ABBE08BD1FB58DE817
:10045000070069460520ABBE04B010BD1FB58DE88E
:100460000F0069460620ABBEF6E708B56946009066
:100470000920ABBE08BD1CB5CDE9000169460A20C4
:10048000ABBE1CBD704708B5694600900C20ABBEE2
:1004900008BD754600F040FAAE4605006946534671
:1004A00020F00700854618B020B5FFF7D3FEBDE861
:1004B00020404FF000064FF000074FF000084FF0CB
:1004C000000B21F00701AC46ACE8C009ACE8C0095C
:1004D000ACE8C009ACE8C0098D46704770B5044669
:1004E000051F00F01FFA0068002C14BF446870BD9F
:1004F000002C18BFAC423CBF20466468F8D30168AA
:100500000A18AA4218BF456003D12A68054611445B
:10051000016028684119A1421CBF6C6070BD616810
:10052000696021680844286070BD2DE9F0410646E5
:100530000024D6E90170F5688046304603E0414664
:10054000B847641C3046A8470028F8D12046BDE8CB
:10055000F0812DE9F04705460C46C86820F42010CC
:1005600040F48000C860800602D5084600F027FBF2
:10057000E06841F282014FF0FF390140022903D0C7
:10058000204600F0C5FAB5E000F42041B1F5004F77
:100590000FD1C00306D56168E06A884200D80846DA
:1005A000606006E02069E06260606069FFF76BFFF1
:1005B000A061A0680022EEB200280DDAE1688B0588
:1005C0000AD4C043A06041F490302260E0606068CB
:1005D000411C61600670A5E0E0689046226040F42E
:1005E0000050E060206968BB6069FFF73EFF0127AB
:1005F00004F12405A0B1A08910F4407F08D0E0697F
:1006000000F0DBF9206118B1E06840F4006016E00A
:10061000E7612561E06820F4407040F480600EE0FE
:10062000E06900F0CAF900282061F1D0E06840F4E8
:10063000006010F4407FE06002D140F48070E06020
:1006400020696060E06825696FF0010AC1051FD567
:100650006168E06A884200D80846411B04D02246FF
:10066000284600F05FFAF0BBE068010203D5E562BE
:10067000C4E9015854E0691CE1626160E16940F439
:100680008030491EC4E9021030462E70BDE8F08764
:10069000010202D500F480320AE06068411C61600A
:1006A0000670E0680A2E40F48030E06006D0002238
:1006B000E16A6068814203D90B4602E00122F7E754
:1006C0000346A7895B1B7F0503D4E7699F4200DDD2
:1006D000E2B1814200D80146E5620F1AC4E901582F
:1006E000002B09DD00E005E022461946284600F00F
:1006F00019FA08B14846C9E747B1A069E5626560E3
:10070000C01BA061E06840F01000E060E0680002FB
:1007100008D56168A069E562491B08446560A0616D
:100720005046B3E73046B1E770B5C468A50713D0AB
:10073000650211D4B2F5807F09D0B2F5007F06D0F2
:10074000B2F5806F08D1012300F1240106E05D1E9F
:100750006FF07F46B54201D3012070BD0161C361D6
:10076000416024F470611143C160002070BD00003D
:100770002DE9F0410C4607461646104600F06EF88B
:100780002078611C61280AD0722802D077283CD1D9
:1007900002E00125002405E00225042402E00824EB
:1007A00048F2020511F8010B2B2806D0622809D067
:1007B00011F8010C74280AD00BE045F0030544F051
:1007C0000204EFE745F0040544F00104EAE744F0D1
:1007D000100438462146FFF729FE411C15D00021A0
:1007E000316171604FF40071F560F1617061200753
:1007F00004D530460222002100F00EF9306D40F0A1
:10080000010030653046BDE8F0810020FBE72DE9AE
:10081000F0410D460646104C206DC10704D041083A
:1008200004D020F00104F7E722460EE0542000F047
:10083000C4F807000ED0206D47F001010843542191
:100840002065384600F040F83A4629463046BDE873
:10085000F0418DE70020D6E7240000202DE9F04785
:1008600004464FF000094FF0FF37C568D4E904860D
:10087000A80707D0204600F07FF93046FFF7E0FDDB
:10088000002802DA3846BDE8F087280502D5404640
:10089000FFF724FE4C21204600F016F8206D20F0D2
:1008A000010020654846EEE710B50446AFF300802E
:1008B0002046BDE81040FFF7B8BC10B500F0A6F91F
:1008C000BDE8104000F09CB94FF0000200B513469F
:1008D00094469646203922BFA0E80C50A0E80C5060
:1008E000B1F12001BFF4F7AF090728BFA0E80C5011
:1008F00048BF0CC05DF804EB890028BF40F8042B0A
:1009000008BF704748BF20F8022B11F0804F18BF76
:1009100000F8012B704700000048704720010020BC
:10092000704700000048704728010020704770475A
:100930007047704738B504460A4600206946AFF351
:100940000080002808BF38BD02460099204600F00C
:10095000A4F9012038BD012000F0F3B9F8B5AFF3D8
:100960000080054600200C46102000BF0646A8194E
:10097000A0420DD9324669460020AFF3008007003F
:1009800008BF00F0DEF90098A04218BF0546C41960
:10099000FFF7C8FF05600746F01D20F00700461965
:1009A000284600F073F9B44208BFF8BDA21B3146D7
:1009B0003868BDE8F84000F070B970B50646FFF73A
:1009C000B1FF056806F10B0020F00704B4429CBF9C
:1009D000002070BD2B466A68BAB11068A04210D3DF
:1009E00004F1080188423CBF5068586007D3516841
:1009F000101941601168091B016058601460101DD6
:100A000070BD13465268002AE7D121462846FFF7F9
:100A100091FF0028DED170BD2DE9F0410446164655
:100A20000D464769007B80072ED03846FFF71DFD35
:100A300050BB3EB3012E02D0022E25D104E0204649
:100A400000F045F905441DE03846FFF71CFDE1685C
:100A5000002841F01001E16005DA204600F058F866
:100A60000120BDE8F081C9030BD56268E16A9142BB
:100A700000D81146A26911442269891A814200DD19
:100A800008460544002D01DA0220EAE7E16A6068C1
:100A9000E268814206D29103E06203D522F400317C
:100AA00041F01002A6690027AE4213DCE16A8142E0
:100AB00001D90B4600E0034603EB060C2369ACEBBF
:100AC000030CAC4506DD814201D98C4600E084462A
:100AD0009C4505D1A760276042F02000A5620DE08B
:100AE000AD1BE669AE1B8142A66000D90846C01A5C
:100AF000281A20605819606022F02000034908403D
:100B0000E060002084F84870ABE70000BFCFD7FF5B
:100B1000C16821F4001141F08001C16000218160B1
:100B2000016070472DE9F047814614460E464FF0AC
:100B3000FF383248D5685769054209D03846A1695F
:100B4000FFF799FC002811DB2C48C0430540E56005
:100B50002B46324649463846FFF778FCA16920F01B
:100B60000042B21A11440028A16103D02046FFF7C9
:100B7000CFFF4046BDE8F08770B504460569C06AFE
:100B80006168884200D80846E16821F42011E160DC
:100B9000C90312D5A84208D02246411B2846FFF7B8
:100BA000C1FF10B14FF0FF3070BD0020E562C4E915
:100BB0000150E06820F48030E060002070BD10B586
:100BC0000446C06820F02000E060A16AA069884265
:100BD0000DD02046FFF7D0FFE06820F4405040F0F1
:100BE0001000E060A06AA0612069E062606044F2E9
:100BF0004001E0688843E06010BD00001000020082
:100C0000002801D000F03CB87047000010B5014644
:100C100002A000F07DF8012010BD000053494752AA
:100C2000545245443A2052656469726563743A20AF
:100C300063616E2774206F70656E3A2000000000BB
:100C400010B5431C02E010F8011B71B18107FAD105
:100C50004FF0013202C88C1A8C4314EAC211F9D049
:100C6000C01A0A0603D0C01E10BDC01A10BD0A0467
:100C700001D0801E10BD0902FCD0401E10BD000036
:100C800001491820ABBEFEE72600020000210160EA
:100C9000C0E90110704710207047034640688C4639
:100CA000002818BF88423CBF03464068F8D3186844
:100CB0001844884207D00CF1030020F00700001D03
:100CC000411A521A0146081D0A60FFF707BC10B509
:100CD0000146C268900703D0900607D5886A0AE0EB
:100CE00000F03EF801210160881E10BD8B69486844
:100CF00018440B69C01A91F848301BB191F849109B
:100D0000401A10BD1103FCD50028FADD401E10BDAD
:100D100070B505460C460A2000E06D1C00F018F87E
:100D200035B128780028F8D102E0641C00F010F8F2
:100D300014B120780028F8D1BDE870400A2000F0F6
:100D400007B810B500F010F8BDE81040FFF758BF25
:100D500008B569468DF800000320ABBE08BD000051
:100D6000004870472001002010B5012805D000215F
:100D700003A0FFF7CDFF012010BD09A1F8E7000097
:100D800053494752544D454D3A204F7574206F6674
:100D90002068656170206D656D6F727900000000DC
:100DA0003A2048656170206D656D6F727920636FC0
:100DB000727275707465640000BFFEE770470000D2
:100DC00010B50A2000F0A4FA10210D4800F022F915
:100DD00090B900240CB9012000E0002004462CB991
:100DE0004FF48061074800F01EF904E04FF4806181
:100DF000044800F01AF900BF102000F005F810BDFB
:100E000000100240001402400149086070470000D1
:100E1000143C0140002123498279002A3AD00A4635
:100E2000126803689A430B461A600A1D1268036829
:100E30009A430B1D1A60027911440A6803681A4329
:100E40000A60184A0832126803689A43154B08333F
:100E50001A601A1D126803689A43124B0C331A6009
:100E60004279102A0ED11A1F126803681A430D4BDB
:100E700008331A601A1D126803681A43094B0C33B1
:100E80001A600DE00749427911440A6803681A4361
:100E90000A6005E0027911440A6803689A430A600F
:100EA00070470000003C014010B50121102000F007
:100EB000C5F800200F4908711020086000208871D3
:100EC0000120C8710C4800F05DF80121880300F092
:100ED000C5F80421084600F0D3F81020074908603F
:100EE000002008710C204871012088710846FFF726
:100EF00091FF10BD040000200010024010000020EF
:100F000010B50121202000F099F801201A4908713C
:100F10000020887140F2AA7008600120C871032087
:100F20004871164800F02EF80221144800F07BF8B2
:100F30000821124800F077F82021104800F073F8DB
:100F40004FF480710D4800F06EF880210B4800F0DE
:100F50006CF80121102000F071F80020064908719A
:100F600088711C2008600120C87100204871044865
:100F700000F008F810BD000004000020001402403A
:100F800000100240F0B50A4600210023002400BFF3
:100F90003DE0012505FA01F3156805EA03049C42CA
:100FA00034D105684F000326BE40B543056015796E
:100FB0004E00B5400668354305601579012D02D015
:100FC0001579022D16D185684F000326BE40B54322
:100FD000856055794E00B540866835438560456823
:100FE00001268E40B5434560456896798E40B6B27D
:100FF00035434560C5684F000326BE40B543C56014
:10100000D5794E00B540C6683543C560491C1029E6
:10101000BFD3F0BD0246002013690B400BB1012085
:1010200000E000207047418370470183704700BF94
:10103000FEE700BFFEE770477047000029B1064A8F
:1010400012680243044B1A6004E0034A12688243A8
:10105000014B1A60704700003038024029B1064A3F
:1010600012680243044B1A6004E0034A1268824388
:10107000014B1A607047000044380240704700007E
:1010800030B500228B071C0F0F2303FA04F20B4B21
:101090008C1053F824309343084C8D1044F82530BD
:1010A00023468C1053F824308C07240F00FA04F4E4
:1010B0002343024C8D1044F8253030BD08380140E0
:1010C0000CB50020019000903448006840F4803056
:1010D0003249086000BF3148006800F400300090D9
:1010E0000198401C0190009818B90198B0F5A04FE4
:1010F000F1D12A48006800F4003010B101200090BE
:1011000001E0002000900098012846D1234840309B
:10111000006840F080502149403108602048006854
:1011200040F440401E4908601C48083000681B49D4
:10113000083108600846006840F40040086008462E
:10114000006840F4A05008601648091F0860081F96
:10115000006840F08070091F086000BF0F480068F9
:1011600000F000700028F9D040F205700E490860C8
:101170000A480830006820F0030008490831086078
:101180000846006840F00200086000BF03480830CD
:10119000006800F00C000828F8D10CBD00380240AF
:1011A0000070004008544007003C0240042808D169
:1011B0004FF0E021096941F004014FF0E022116194
:1011C00007E04FF0E021096921F004014FF0E0222F
:1011D000116170477047000010B51548006840F471
:1011E0007000134908601348006840F0010011497D
:1011F000086000200F49083108600E4800680E4959
:1012000008400C4908600D48091D0860081F006867
:1012100020F48020091F0860002006490C31086076
:10122000FFF74EFF4FF0006001498039086010BDA4
:1012300088ED00E000380240FFFFF6FE1030002489
:1012400010B540F22551074800F00EF840B10548AE
:1012500000F034F8C4B22146024800F034F800BF70
:1012600010BD00000010014070B5024600240023AC
:101270000025002040F66A16B14200D100BFC1F33C
:10128000421501F01F03012606FA03F3012D02D1D6
:101290009689334006E0022D02D1168A334001E0E0
:1012A000968A33400C12012606FA04F4168834405C
:1012B00013B10CB1012000E0002070BD0146888808
:1012C000C0F308007047C1F308028280704700BF76
:1012D000FEE7000010B504466FF00400FFF766FF5C
:1012E000E11704EB5171C1F3C701074A11701046B1
:1012F000007800EB4001C1EBC0104FF6FF7101EA2E
:10130000C0000249088010BD00000020020000203B
:1013100070B504464FF4077094FBF0F0C6B24FF47A
:10132000077094FBF0F100FB114085B205E04FF42B
:10133000077000F009F8701EC6B2002EF7D115B183
:10134000284600F001F870BD0146114A12884A4350
:101350004FF0E0235A6100229A611A46126942F066
:1013600001021A6100BF4FF0E022106900F0010293
:101370001AB100F48032002AF5D04FF0E022126951
:1013800022F001024FF0E0231A6100229A617047B7
:10139000020000208A68002A01DCFFF7DAB8521E3A
:1013A0008A604A68C0B2531C4B60107070470000DE
:1013B000FFF7A6FDA820FFF78DFFFFF775FD06E0FC
:1013C00003A0FEF759FF4FF47A70FFF7A1FFF7E78C
:1013D0004F4B0D0A000000004FF04070E1EE100A84
:1013E00070473A7474003A7474003A7474000000E0
:1013F000101400080000002024000000C4010008B0
:1014000034140008240000205C0B0000E0010008F8
:1014100000000000000000000000000000000000CC
:1014200000000000000000000000000000000000BC
:0414300000000000B8
:040000050800018965
:00000001FF
