:020000040800F2
:10000000B80A0020290200081105000809050008A7
:100010000D050008E30200082F0A00080000000098
:10002000000000000000000000000000CD060008F5
:10003000E702000800000000A1050008FD07000815
:10004000430200084302000843020008430200087C
:100050004302000843020008E902000843020008C6
:10006000430200084302000843020008430200085C
:10007000430200084302000843020008430200084C
:10008000430200084302000843020008430200083C
:10009000430200084302000843020008430200082C
:1000A000430200084302000843020008430200081C
:1000B000430200084302000843020008430200080C
:1000C00043020008430200084302000843020008FC
:1000D00043020008690800084302000843020008C0
:1000E00043020008430200084302000843020008DC
:1000F00043020008430200084302000843020008CC
:1001000043020008430200084302000843020008BB
:1001100043020008430200084302000843020008AB
:10012000430200084302000843020008430200089B
:10013000430200084302000843020008430200088B
:10014000430200084302000843020008430200087B
:10015000430200084302000843020008430200086B
:10016000430200084302000843020008430200085B
:10017000430200084302000843020008430200084B
:10018000430200084302000800F002F800F03CF8C7
:100190000AA090E8000C82448344AAF10107DA45E2
:1001A00001D100F031F8AFF2090EBAE80F0013F0F8
:1001B000010F18BFFB1A43F001031847C4090000E0
:1001C000E4090000103A24BF78C878C1FAD8520771
:1001D00024BF30C830C144BF04680C6070470000C1
:1001E0000023002400250026103A28BF78C1FBD840
:1001F000520728BF30C148BF0B6070471FB500F0E1
:10020000B9FC1FBD10B510BD00F031F81146FFF765
:10021000F5FF00F051FC00F04FF803B4FFF7F2FFD8
:1002200003BC00F057F80000094880470948004720
:10023000FEE7FEE7FEE7FEE7FEE7FEE7FEE7FEE796
:10024000FEE7FEE704480549054A064B70470000F3
:100250000108000889010008B8000020B80A002041
:10026000B8020020B80200207047704770477546FA
:1002700000F02CF8AE4605006946534620F0070012
:10028000854618B020B5FFF7DDFFBDE820404FF0F0
:1002900000064FF000074FF000084FF0000B21F070
:1002A0000701AC46ACE8C009ACE8C009ACE8C0093D
:1002B000ACE8C0098D46704710B50446AFF3008026
:1002C0002046BDE81040FFF7A8BF00000048704777
:1002D0005800002001491820ABBEFEE726000200AE
:1002E000704700BFFEE7704710B50A2000F0A1FB81
:1002F00010210C4800F0FBF880B900240CB9012053
:1003000000E00020044624B90121064800F0F8F876
:1003100003E00121034800F0F5F800BF102000F0D1
:1003200003F810BD0010024001490860704700004A
:10033000143C0140002123498279002A3AD00A4620
:10034000126803689A430B461A600A1D1268036814
:100350009A430B1D1A60027911440A6803681A4314
:100360000A60184A0832126803689A43154B08332A
:100370001A601A1D126803689A43124B0C331A60F4
:100380004279102A0ED11A1F126803681A430D4BC6
:1003900008331A601A1D126803681A43094B0C339C
:1003A0001A600DE00749427911440A6803681A434C
:1003B0000A6005E0027911440A6803689A430A60FA
:1003C00070470000003C014010B50121202000F0E2
:1003D000E9F800200D4908714FF400700860002012
:1003E00088710120C8710A4800F016F8092105201B
:1003F00000F06EF9102007490860002008710820FD
:1004000048710846FFF796FF10BD00001400002059
:100410000014024020000020F0B50A46002100230D
:10042000002400BF3DE0012505FA01F3156805EA47
:1004300003049C4234D105684F000326BE40B543F7
:10044000056015794E00B54006683543056015799D
:10045000012D02D01579022D16D185684F00032693
:10046000BE40B543856055794E00B540866835433A
:100470008560456801268E40B5434560456896799C
:100480008E40B6B235434560C5684F000326BE4076
:10049000B543C560D5794E00B540C6683543C560E3
:1004A000491C1029BFD3F0BDF0B5002300244D072F
:1004B000ED0E02FA05F3CE1000F1200555F8265096
:1004C0004E07F70E0F26BE40B543CF1000F12006B1
:1004D00046F82750CE1000F1200555F8265045EA81
:1004E0000304CE1000F1200545F82640F0BD024679
:1004F000002013690B400BB1012000E00020704781
:10050000418370470183704700BFFEE700BFFEE7ED
:100510007047000070B5002100230F22C4781CB37F
:10052000174C246804F4E064C4F5E064C4F30721C4
:10053000C1F10404E3B20A4144789C40E1B28478FA
:10054000144021430C07210E0E4C057861550478A8
:1005500004F01F050124AC4005786D11AD0005F1D4
:10056000E025C5F8004109E0047804F01F050124E6
:10057000AC40054D0678761145F8264070BD000068
:100580000CED00E000E400E080E100E002490143FE
:10059000024A1160704700000000FA050CED00E00F
:1005A0007047000029B1064A12680243044B1A60E2
:1005B00004E0034A12688243014B1A60704700004E
:1005C0003038024029B1064A12680243044B1A60CF
:1005D00004E0034A12688243014B1A60704700002E
:1005E00044380240F0B500210022002402250026F4
:1005F0000223324F3F6807F00C0121B1042905D0D6
:10060000082937D105E02E4F076036E02D4F0760EF
:1006100033E02A4F3F1F3F68C7F38056274F3F1FE5
:100620003F6807F03F036EB1264FB7FBF3F7DFF8E3
:100630008CC0ACF1040CDCF800C0CCF3881C07FBC8
:100640000CF40CE01E4FB7FBF3F7DFF870C0ACF111
:10065000040CDCF800C0CCF3881C07FB0CF4174F2B
:100660003F1F3F68C7F301477F1C7D00B4FBF5F7D0
:10067000076002E0124F076000BF00BF0F4F3F68E6
:1006800007F0F0010909104F7A5C0768D74047600E
:100690000A4F3F6807F4E051890A0B4F7A5C4768BC
:1006A000D7408760054F3F6807F46041490B064F0C
:1006B0007A5C4768D740C760F0BD00000838024048
:1006C0000024F40000127A000000002070470000AF
:1006D00030B500228B071C0F0F2303FA04F20B4BDB
:1006E0008C1053F824309343084C8D1044F8253077
:1006F00023468C1053F824308C07240F00FA04F49E
:100700002343024C8D1044F8253030BD0838014099
:100710000CB50020019000903448006840F480300F
:100720003249086000BF3148006800F40030009092
:100730000198401C0190009818B90198B0F5A04F9D
:10074000F1D12A48006800F4003010B10120009077
:1007500001E0002000900098012846D12348403055
:10076000006840F08050214940310860204800680E
:1007700040F440401E4908601C48083000681B498E
:10078000083108600846006840F4004008600846E8
:10079000006840F4A05008601648091F0860081F50
:1007A000006840F08070091F086000BF0F480068B3
:1007B00000F000700028F9D040F205700E49086082
:1007C0000A480830006820F0030008490831086032
:1007D0000846006840F00200086000BF0348083087
:1007E000006800F00C000828F8D10CBD0038024069
:1007F0000070004008544007003C02407047000071
:1008000010B51548006840F470001349086013489B
:10081000006840F001001149086000200F490831CC
:1008200008600E4800680E4908400C4908600D48F1
:10083000091D0860081F006820F48020091F086057
:10084000002006490C310860FFF762FF4FF000609E
:1008500001498039086010BD88ED00E00038024091
:10086000FFFFF6FE1030002410B540F22551074876
:1008700000F01AF840B1054800F0D0F8C4B22146A3
:10088000024800F0D0F800BF10BD00000010014089
:1008900021B1828942F40052828104E082894DF6BE
:1008A000FF731A408281704770B50246002400230E
:1008B0000025002040F66A16B14200D100BFC1F306
:1008C000421501F01F03012606FA03F3012D02D1A0
:1008D0009689334006E0022D02D1168A334001E0AA
:1008E000968A33400C12012606FA04F41688344026
:1008F00013B10CB1012000E0002070BDF0B503463B
:10090000002400260025002040F66A17B94200D1D5
:1009100000BF1846C1F3421401F01F06012707FA71
:1009200006F5012C01D10C3004E0022C01D110306D
:1009300000E014301AB107682F43076002E007682F
:10094000AF430760F0BD00002DE9FF4705460E46A6
:100950000024A14600BFA046B08900B100BF2C8A88
:1009600024F44054F08804432C82AC8941F20C609A
:100970008443B08831890843718908430443AC81BA
:10098000AC8A24F44074B0890443AC826846FFF713
:1009900029FE2048854202D01F48854202D1DDF859
:1009A0000C9001E0DDF80890A88900F4004040B107
:1009B00009EBC90000EB091031684900B0FBF1F701
:1009C00007E009EBC90000EB091031688900B0FBB2
:1009D000F1F76420B7FBF0F004012009642101FB6A
:1009E0001078A88900F4004040B1322000EBC80024
:1009F000B0FBF1F000F00700044308E0322000EB08
:100A000008106421B0FBF1F000F00F0004432C81CA
:100A1000BDE8FF87001001400014014001468888AE
:100A2000C0F308007047C1F308028280704700BF1E
:100A3000FEE770B504464FF4077094FBF0F0C6B2C1
:100A40004FF4077094FBF0F100FB114085B205E014
:100A50004FF4077000F00AF8701EC6B2002EF7D1EE
:100A600015B1284600F002F870BD00000146114A99
:100A700012884A434FF0E0235A6100229A611A46D5
:100A8000126942F001021A6100BF4FF0E0221069C2
:100A900000F001021AB100F48032002AF5D04FF0C4
:100AA000E022126922F001024FF0E0231A610022D5
:100AB0009A617047120000204FF4A060FFF766FDB6
:100AC0004FF4E13000F004F8FFF77EFC00BFFEE7D2
:100AD00010B5044601211020FFF774FD01210846DE
:100AE000FFF760FD072209211C48FFF7DDFC072204
:100AF0000A211A48FFF7D8FC0220194908714FF45F
:100B0000C060086000208871022048710120C8710F
:100B10001448FFF781FC14480460002012498881C2
:100B20000C20488100200881C88088800F48FFF78A
:100B30000BFF01210D48FFF7ABFE012240F22551CA
:100B40000A48FFF7DBFE2520094908700120C8701C
:100B5000487088700846FFF7DDFC10BD00000240B9
:100B60001400002000140240480000200010014042
:100B70001C0000204FF04070E1EE100A70470000AA
:100B8000A00B00080000002028000000C40100089D
:100B9000C80B000828000020900A0000E0010008AF
:100BA0000000000001020304010203040607080913
:100BB0000000000000000000000000000000000035
:080BC00000000000000000002D
:040000050800018965
:00000001FF
