:100E420075B10075B20075B30075B40075AC00756C
:100E5200AD007F007EC27D017C0012150A120B9C40
:030E620012122643
:100E65001215FB8F2212158F8F23AF227E00EF24E0
:100E7500CDFFEE34FFFEC3EE64809480401CAF22AC
:100E85007E00EF24CDFFEE34FFFEEF25E0FFEE33CD
:100E9500FE7C007D0312056C80027F008F24AF224B
:100EA5007E00D3EF943EEE648094805003020F766B
:100EB50043DE2043DE10AF237E00D3EF9439EE648A
:100EC50080948040047F0180027F00EF1207070EA7
:100ED500DE000EF50100000E65D2807F647E007D88
:100EE500007C0012145EAF247E00120F91020E6585
:100EF500AC23E41202AB7B337A3379B3783E12002C
:100F0500FB1202DF8F237D14AF2312128C7C007D30
:100F15000312055A7C007D021205C1ADCC7C00EFA1
:100F25002DFFEE3CFED3EF9432EE64809480402199
:100F35007D14AF2312128C7C007D0312055A7C00B0
:100F45007D021205C1ADCC7C00EF2DFFEE3CFE808D
:100F5500047E007F008FCCD2DED2DFD2807F147E6C
:100F6500007D007C0012145E752300020E65020EE2
:100F75006553DEDF53DEEFD281D2837FF47E017DC0
:080F8500007C0012145EC28022
:040F8D00020E6522C9
:101408008F0B8E0A8D098C08538EF7438901D28C75
:101418007F007E007D007C00AB0BAA0AA909A80802
:10142800C31206D3602D758A7E758CFF308DFDC280
:101438008DAF0BAE0AAD09AC087BFF7AFF79FF7858
:10144800FFEF2BF50BEE3AF50AED39F509EC38F517
:061458000880BDC28C22D9
:10145E008F2B8E2A8D298C28538EF7438901D28C9F
:10146E007F007E007D007C00AB2BAA2AA929A8282C
:10147E00C31206D3602D758ACA758CFA308DFDC2E3
:10148E008DAF2BAE2AAD29AC287BFF7AFF79FF7882
:10149E00FFEF2BF52BEE3AF52AED39F529EC38F561
:0614AE002880BDC28C2263
:1014B4008F0F8E0E8D0D8C0C538EEF438910D28EB0
:1014C4007F007E007D007C00AB0FAA0EA90DA80C46
:1014D400C31206D3602D758BEA758DCB308FFDC298
:1014E4008FAF0FAE0EAD0DAC0C7BFF7AFF79FF789A
:1014F400FFEF2BF50FEE3AF50EED39F50DEC38F55F
:061504000C80BDC28E2226
:1013AF008F138E128D118C1053C9BF53C9DF43C9D0
:1013BF0010D2CA7F007E007D007C00AB13AA12A959
:1013CF0011A810C31206D3602D75CC3075CDF8302F
:1013DF00CFFDC2CFAF13AE12AD11AC107BFF7AFFB2
:1013EF0079FF78FFEF2BF513EE3AF512ED39F51182
:0913FF00EC38F51080BDC2CA22D1
:1012EF008F178E168D158C1475C40743C4087F0095
:1012FF007E007D007C00AB17AA16A915A814C31297
:10130F0006D3603875C52C75C6CFE5C45410FF7E63
:10131F0000EF64104E70F353C4EFAF17AE16AD1558
:10132F00AC147BFF7AFF79FF78FFEF2BF517EE3ABE
:10133F00F516ED39F515EC38F51480B253C4F722D4
:10134F008F1B8E1A8D198C1875C40743C4087F0024
:10135F007E007D007C00AB1BAA1AA919A818C31226
:10136F0006D3603875C5D875C6FFE5C45410FF7E27
:10137F0000EF64104E70F353C4EFAF1BAE1AAD19EC
:10138F00AC187BFF7AFF79FF78FFEF2BF51BEE3A56
:10139F00F51AED39F519EC38F51880B253C4F72268
:10150A008F288E278D268C2553B1BF53B2BF53B176
:10151A007F53B27F759850438920438780438E104A
:10152A0053C4DFAB28AA27A926A8257F407E427D7F
:10153A000F7C00120633EF04FFEFF404F58DD28E10
:03154A00D2992211
:101105008F1F8E1E8D1D8C1C53B1BF53B2BF53B1A3
:101115007F53B27F75985043878053C4F843C420EA
:10112500AB1FAA1EA91DA81C7F407E427D0F7C0017
:10113500120633A804A905AA06AB07C374FF9BFFD3
:1011450074FF9AFEE499FDE498FC78081206E48F92
:10115500C6AB1FAA1EA91DA81C7F407E427D0F7C21
:1011650000120633A804A905AA06AB07C374FF9BA2
:10117500FF74FF9AFEE499FDE498FCEF54FFFFEE3F
:101185005400FEED5400FDEC5400FC8FC543C4082B
:03119500D29922CA
:0A1656003098FD859961C298AF61DC
:011660002267
:0D1649008E5F8F60C2998560993099FD22F7
:101198008F5E8E5D8D5C8C5B53B1FB53B2FB53B39A
:1011A800BF53B4BF75F85075C40853C4DFAB5EAA0B
:1011B8005DA95CA85B7F407E427D0F7C00120633F0
:1011C800A804A905AA06AB07C374FF9BFF74FF9A7E
:1011D800FEE499FDE498FC78081206E48FC6AB5E3D
:1011E800AA5DA95CA85B7F407E427D0F7C00120649
:1011F80033A804A905AA06AB07C374FF9BFF74FFB5
:101208009AFEE499FDE498FCEF54FFFFEE5400FECB
:0E121800ED5400FDEC5400FC8FC543C40822C9
:0A16610030F8FD859A62C2F8AF620E
:01166B00225C
:0B166C008F63C2F985639A30F9FD22FC
:10154D000A42616E646761702076616C75653A253B
:10155D00640A000A42616E6467617020766F206CC8
:10156D00746167653A25646D560A004144432076DF
:10157D00616C75653A25640041444352483A2578BB
:02158D000A0052
:031677000141012D
:04128C008F258D26F7
:10129000C3E5259526F542AF47AE46AD45AC44C003
:1012A00004C005C006C007AF437E00AD427C00C34A
:1012B000ED9FFFEC9EFEAD417C0012055AAC06ADE1
:1012C00007EC1202A6A804A905AA06AB07D007D00E
:1012D00006D005D0041200068F478E468D458C44FB
:0E12E000854243AF47AE46AD45AC441202DF37
:0112EE0022DD
:100B9C00C292C29043B38053B47FC28553B1FD431C
:100BAC00B20253B3EF43B41053B3EF43B41053B189
:100BBC00FE43B20153B3FE43B401D294C280C2903F
:100BCC00A2AF9209C2AF75C7AA75C755439F01A2C0
:100BDC000992AF75A60D75A70075AF04A2AF920967
:100BEC00C2AF75C7AA75C75543A401A20992AF85B8
:100BFC00AE4DE54D54F0F55AAF5A7E00EF64804E81
:100C0C006003020C93534D0F75A60C75A700A2AF91
:100C1C009209C2AF75C7AA75C75543A401A2099220
:100C2C00AF85AE4CAF4C7E00EF75F010A4FFAEF06C
:100C3C00AD4D7C00EF2DFDEE3CFCEC1202A68F5965
:100C4C008E588D578C567F007E007D407C40AB5972
:100C5C00AA58A957A8561200FB7B007A0079807815
:100C6C00401202048F4B8E4A8D498C48AF4BAE4AD2
:100C7C00AD49AC487B007A00790478C212000A8F27
:100C8C004B8E4A8D498C48AF5A7E00EF4E7067539D
:100C9C004D0F75A60C75A700A2AF9209C2AF75C710
:100CAC00AA75C75543A401A20992AF85AE4CAF4CAF
:100CBC007E00EF75F010A4FFAEF0AD4D7C00EF2D73
:100CCC00FDEE3CFCEC1202A68F598E588D578C56BB
:100CDC007F007E007D407C40AB59AA58A957A8568E
:100CEC001200FB7B007A00798078401202048F4B53
:100CFC008E4A8D498C48AF5A7E00EF64904E60034B
:100D0C00020D9275A60E75A700A2AF9209C2AF751F
:100D1C00C7AA75C75543A401A20992AF85AE4C75FD
:100D2C00A60F75A700A2AF9209C2AF75C7AA75C767
:100D3C005543A401A20992AF85AE4D534D0FAF4C54
:100D4C007E00EF75F010A4FFAEF0AD4D7C00EF2DE2
:100D5C00FDEE3CFCEC1202A68F598E588D578C562A
:100D6C007F007E007D407C40AB59AA58A957A856FD
:100D7C001200FB7B007A00798078401202048F4BC2
:100D8C008E4A8D498C487BFF7A15794DAF59AE58F8
:100D9C00AD57AC568F2B8E2A8D298C2812078F7B42
:100DAC00FF7A157960AF4BAE4AAD49AC488F2B8EAC
:100DBC002A8D298C2812078FA2AF9209C2AF75C752
:100DCC00AA75C755539FFEA20992AF53E8F043B3DF
:100DDC008053B47F75F60043F60143E101754C0076
:100DEC00AF4C7E00C3EF9403EE648094805046C2F7
:100DFC00EFD2EE30EFFDAFC37E00EF75F010A4FF25
:100E0C00AEF0ADC27C00EF2DFDEE3CFCEC1202A668
:100E1C008F518E508D4F8C4E7BFF7A157978AF5158
:100E2C00AE50AD4FAC4E8F2B8E2A8D298C281207CD
:060E3C008F054C80AB2283
:10158F0053E8F043E80443B12053B2DF75F600434C
:10159F00F61043E101C2EFD2EE7BFF7A157978AFF7
:1015AF0051AE50AD4FAC4E8F2B8E2A8D298C2812F9
:0715BF00078FAFC37E00227D
:1015FB0053E8F043B38053B47F75F60043F60143D1
:10160B00E101C2EFD2EE7BFF7A15798585C32812F3
:07161B00078FAFC37E002220
:0415C6008E258F26B9
:1015CA00852628E525FF7E008F27A2AF9209AF273F
:1015DA007E00EF64014E700BC2AF75C7AA75C7557E
:1015EA0043F91075C7AA75C7558528FAA20992AF9B
:0115FA0022CE
:1012260043DE2043DE1043D62043DF4053DF7F43B7
:10123600DF0553DFFD75D10075D9FFA2AF9209C254
:10124600AF75C7AA75C755439101A20992AF75C478
:101256000075CCFFA2AF9209C2AF75C7AA75C75574
:101266005391FEA20992AFA2AF9209C2AF75C7AA67
:1012760075C75543F904A20992AF7F407E00121547
:06128600C6D2DED2DF2219
:100F91008E258F26A2AF9209C2AF75C7AA75C75514
:100FA100439101A20992AFD3E5269464E52594000B
:100FB1004025AFCC7E00D3EF9400EE648094805046
:100FC100030210587F0A7E007D007C0012145ED25D
:100FD100DED2DF15CC80DBD3E5269400E525940035
:100FE1005022AFCC7E00C3EF94FFEE64809480501A
:100FF100667F0A7E007D007C0012145ED2DED2DFA5
:0410010005CC80DEBC
:10100500AE25AF267C007D0512055AEEC313FEEF13
:1010150013FFC374FF9FF527E5CCC39527501AE549
:10102500CCC39527502D7F0A7E007D007C001214CD
:101035005ED2DED2DF05CC80E6E5CCD39527401322
:101045007F0A7E007D007C0012145ED2DED2DF15A1
:03105500CC80E666
:011058002275
:0300000002105992
:1010590075C7AA75C75575FD5A75C7AA75C7557558
:10106900FDA5787FE4F6D8FD9000007FFF7E03E4BC
:0C107900F0A3DFFCDEFA7581630210C0FA
:1000030002034BE86480F8E933E83360110460F0DD
:10001300ED33EC337009E8FCE9FDEAFEEBFF220463
:1000230060DED3EB9FEA9EE99DE8C2E78CF0C2F75E
:1000330095F0400CE8CCF8E9CDF9EACEFAEBCFFB2A
:1000430012031685D0F05804700320D5B3E804706A
:10005300075002B2D502035592D5EC0460F7E4CC05
:10006300C0E0C398F8603B94186008400DD0E0FBF3
:1000730002032DE4FBFAC9FC8028E830E406E4C956
:10008300FBE4CAFCE830E305E4C9CACBFCE8540747
:100093006010F8C3E913F9EA13FAEB13FBEC13FC52
:1000A300D8F130F52FC3E49CFCEF9BFFEE9AFEEDF5
:1000B30099FDD0E0FBEF4E4D4C701222DB0302039F
:1000C30052EC2CFCEF33FFEE33FEED33FDED30E766
:1000D300EB02032DEF2BFFEE3AFEED39FDD0E0FBF3
:1000E30050130BBB0003020355ED13FDEE13FEEF9C
:0800F30013FFEC13FC02032DC6
:1000FB00EC4D6011E8497017ED33EC3304600DE4FF
:10010B00FCFFFEFD22E933E8330470F802034B12C7
:10011B00031658046009E4CC2481500628500902C8
:10012B000355284003020352C0E0EB4A7044B980E8
:10013B0006D0E0FB020341EF4E701CBD8008EBFFC5
:10014B00EAFEE9FD80EBE98DF0A4FEE5F00201E4A7
:10015B00E9CDF9EAFEEBFFEF89F0A4FCE5F0CE89DF
:10016B00F0A42EFFE435F0CD89F0A42DFEE435F09C
:10017B008067EF4E7005BD80D780C3EF8BF0A4ACCA
:10018B00F0EE8BF0A42CFCE435F0F8EF8AF0A42C05
:10019B00E5F038FCE433CB8DF0A42CFCE5F03BF818
:1001AB00EE8AF0A42CFCE5F038F8E433CF89F0A408
:1001BB002CFCE5F038CF3400CE89F0A42FFFE5F00E
:1001CB003EFEE433C98DF0A42EFEE5F039CD8AF066
:1001DB00A42FFFE5F03EFEE43DFD33D0E0FB5007DE
:1001EB000BBB000F020355EC2CFCEF33FFEE33FE81
:0601FB00ED33FD02032DAF
:10020100020355EC5D046005E85904700302034BD9
:10021100120316580460F6EC4860F2EC7004FDFE1F
:10022100FF22C860DB2481C85009C39860025006D0
:100231000203529850CAF582E9294B4A7005AB82F4
:1002410002034175F0007C1A7880C3EF9BEE9AEDB2
:1002510099400DC3EF9BFFEE9AFEED99FDE842F048
:10026100DC23ACF0D0E0FFD0E0FED0E0FDAB82209B
:10027100E7101BEB60BAEC2CFCEF33FFEE33FEED25
:1002810033FD02032DE803F830E705C0F075F000F7
:10029100EF2FFFEE33FEED33FD40B830E7C280AA09
:1002A10075F020800E75F010800575F0087D007ED8
:1002B100007F003392D530D5031206C5EC334010D0
:1002C100EF33FFEE33FEED33FDEC33FCD5F0ED22E1
:0E02D100E5F0247EA2D513CC92E7CDCEFF221D
:1002DF00EDD2E7CD33EC3392D524814006E4FFFE17
:1002EF00FDFC22FCE4CFCECDCC24E0501174FF8076
:1002FF00EDC3CC13CCCD13CDCE13CECF13CF047013
:07030F00F030D5DE0206C547
:10072D00E53C2428F8E6053C227825300702782898
:10073D00E475F0011206F70205022000EB7F2ED2C0
:10074D00008018EF540F2490D43440D4FF30040BA4
:10075D00EF24BFB41A0050032461FFE53D6002157C
:10076D003D0540E5407002053F30070D7825E475E5
:10077D00F0011206F7EF0205480216227403D207A4
:10078D008003E4C207F53C8B258A268927E4F53DD5
:10079D00F53FF540E53D60077F2012076880F57550
:1007AD003EFFC201C200C202C203C205C206C20898
:1007BD00120736FF700D3007057F00120779AF4025
:1007CD00AE3F22B4255FC2D5C204120736FF24D036
:1007DD00B40A00501A75F00A783D30D50508B6FFF9
:1007ED000106C6A426F620D5047002D20380D924B2
:1007FD00CFB41A00EF5004C2E5D204020A66D2014A
:10080D0080C6D20080C0D20280BCD2D580BAD205BB
:10081D0080B47F201207682002077401B53D0040A7
:10082D00F112072DFF1207680207A1D208D2068028
:10083D009512072DFB12072DFA12072DF94A4B7051
:10084D0006795D7A0B7BFF20022EE53D602A7E0046
:10085D008E8275830012051B60060EEE653E70F0EC
:10086D00C2D5EBC0E0EAC0E0E9C0E0EE120AC6D0A6
:10087D00E0F9D0E0FAD0E0FB120502FF60AAEBC070
:10088D00E0EAC0E0E9C0E0120768D0E02401F9D049
:10089D00E03400FAD0E0FBE53E0460DCD53ED980C3
:1008AD0087D20280A2120AA960F7E53E70010412F8
:1008BD000360A93E600DE53E600914F53E120B5034
:1008CD00EF60F3EA30E702F404C3995077EAF425B8
:1008DD003E0430E701E404F53E800D120AA960C123
:1008ED00EA053E253E120360EA783BF630E701E467
:1008FD00253E04D53E0420050114120AC6E4C0E0CD
:10090D00120B50783BE6601320E70714F6120750E0
:10091D00802204F6D0E014C0E07F00120750E53EBF
:10092D006007120747153E800B300503120747D0AD
:10093D00E00207A1D0E00480C5120AA960A0E53E3F
:10094D0004120360783BEAF6E53E200502600104DF
:05095D002404120AC68B
:1009620074FF04C0E0120B50120750E53E2005024E
:100972006003120747D0E0B53EE87F4512075A7878
:100982003BE67F2B30E7047F2DF404C0E0120768BA
:10099200D0E075F00A84C0F0120751D0E01207517E
:1009A2000207A1791080027908C206C2088008D223
:1009B200D5790A8004790AC2D5E53E047002F53E73
:1009C200E4FAFDFEFF12072DFC7B0820011312073B
:1009D2002DFD7B1030000A12072DFE12072DFF7B22
:1009E20020EC3382D592D55013C3E43000069FFF2A
:1009F200E49EFEE42001039DFDE49CFCE4CBF8C2EE
:100A020001EC700CCFCECDCCE824F8F870F380174F
:100A1200C3EF33FFEE33FEED33FDEC33FCEB33FB80
:100A2200994002FB0FD8E9EB300105F8D0E0C44849
:100A3200B201C0E00AEC4D4E4F78207B0070C2EA52
:100A4200B53E0040BCC0E0120AC8D0F0D0E02001A0
:100A520004C4C0E0C4B201C0F0120751D0F0D5F016
:100A6200EB0207A1120707083E5309A558080F4CCD
:100A7200080B4209A94F09B14409B14908244309A5
:100A8200B75508E84609464508B2470B7D5008139A
:100A92002D08172E083A2B081B230838200B662A2C
:100AA20007D34800000832E53EB4FF03753E061244
:100AB200072DFC12072DFD12072DFE12072DFF78C0
:100AC2003402038F790AA2D5200314300509B91024
:100AD200020404B9080104A2D52006025001042030
:100AE20002689202B53D005034C0E07F2030031905
:100AF2007F30A20272067205500F120B1FC202C291
:100B020006C205C2087F30800F300503E9C0E0123B
:100B12000768300503D0E0F9D0E0B53DCC300517C9
:100B22007F30B9100C1207687F583004077F788035
:100B320003B908031207683002057F2D0207687F98
:100B4200202008F87F2B2006F322920280CF7F001C
:100B5200B4070050052434F8E6FF22286E756C6C49
:100B62002900D20112072D3001F8C201783D30D59B
:100B72000108F60207D32D5043495812072D2403CA
:100B8200B405004001E4900B7893120759743A12AD
:0A0B92000759D203753D040209A5BE
:10031600E9D2E7C933E833F892D5EDD2E7CD33EC2D
:0703260033FC5002B2D522A6
:10032D00EC30E7100FBF000C0EBE00080DBD000431
:10033D000BEB6014A2D5EB13FCED92E7FD2274FFDD
:10034D00FCFDFEFF22E480F8A2D574FF13FC7D8036
:03035D00E480EF4A
:10036000F920E72824F950037907E4F42402FB1864
:10037000DBFDE624FB5014E9600DE4F618E604F614
:0F038000B40A08E4F6D9F57401F60A22C2D522B0
:10038F00ED33EC3392D5FA602AB4FF33EDC2E77B3D
:10039F00FF60067A0379B4E4227A0379BD20D5048D
:1003AF007A0379B8224E614E002B494E46002D49F3
:1003BF004E4600E47A08F608DAFC7B00740722E860
:1003CF00C0E0ECC0E0EDC0E0EEC0E0EFC0E0EA75E9
:1003DF00F010A4CAABF075F04DA42BFBE435F0FC84
:1003EF00EA2410FAEB34C5FBEC34D9FCEDC2E7FF7D
:1003FF0075F056A4F42411C5F0F434C58FF0A42A77
:10040F00E5F03BE43CF620E7141204C2D0E0FFD045
:10041F00E0FED0E0FDD0E0FC1202048014F40412E0
:10042F0004C2D0E0FFD0E0FED0E0FDD0E0FC12002F
:10043F00FBD0E0F8E6FAEDD2E7CD33EC332482FBC4
:10044F00E4C3CF33CFCE33CECD33CD33DBF37B0706
:10045F0075F00A846004F6081B0AE5F0F6088FF0C1
:10046F00740AA4FFACF08EF0740AA42CFEACF0500A
:10047F00010C8DF0740AA42CFDE435F0F608DBDED8
:03048F00740722CD
:100492003F8000004120000042C80000447A000072
:1004A200461C400047C35000497424004B189680F4
:1004B2004CBEBC205A0E1BCA6753C21C749DC5AEEB
:1004C200FB60065407601C23231204F0EB543860CF
:1004D200091204DC1204EB1200FBECF8EDF9EEFA5F
:1004E200EFCB22EB1204EB80F1543803241C90046E
:1004F20092FE93FC0EEE93FD0EEE930ECE93FF2230
:10108500020E42E493A3F8E493A34003F68001F231
:1010950008DFF48029E493A3F85407240CC8C3336C
:1010A500C4540F4420C8834004F456800146F6DF3B
:1010B500E4800B0102040810204080901677E47E3E
:1010C500019360BCA3FF543F30E509541FFEE49330
:1010D500A360010ECF54C025E060A840B8E493A3F7
:1010E500FAE493A3F8E493A3C8C582C8CAC583CA22
:1010F500F0A3C8C582C8CAC583CADFE9DEE780BEDA
:01167A00006F
:10050200BB010689828A83E0225002E722BBFE02F7
:09051200E32289828A83E493222A
:10051B00BB010CE58229F582E5833AF583E0225095
:10052B0006E92582F8E622BBFE06E92582F8E222DF
:0D053B00E58229F582E5833AF583E49322F9
:10054800BB010689828A83F0225002F722BBFE0192
:02055800F3228C
:10055A00EF8DF0A4A8F0CF8CF0A428CE8DF0A42EB5
:02056A00FE226F
:10056C00BC000BBE0029EF8DF084FFADF022E4CC73
:10057C00F875F008EF2FFFEE33FEEC33FCEE9DEC3C
:10058C00984005FCEE9DFE0FD5F0E9E4CEFD22ED82
:10059C00F8F5F0EE8420D21CFEADF075F008EF2FCC
:1005AC00FFED33FD4007985006D5F0F222C398FDBD
:0505BC000FD5F0EA225A
:1005C100C2D5EC30E709B2D5E4C39DFDE49CFCEE55
:1005D10030E715B2D5E4C39FFFE49EFE12056CC35C
:1005E100E49DFDE49CFC800312056C30D507C3E457
:0605F1009FFFE49EFE22C4
:1005F70075F008758200EF2FFFEE33FECD33CDCCBB
:1006070033CCC58233C5829BED9AEC99E58298403D
:100617000CF582EE9BFEED9AFDEC99FC0FD5F0D61A
:10062700E4CEFBE4CDFAE4CCF9A88222B800C1B944
:100637000059BA002DEC8BF084CFCECDFCE5F0CB82
:10064700F97818EF2FFFEE33FEED33FDEC33FCEBBB
:1006570033FB10D703994004EB99FB0FD8E5E4F976
:10066700FA227818EF2FFFEE33FEED33FDEC33FC63
:10067700C933C910D7059BE99A4007EC9BFCE99A57
:10068700F90FD8E0E4C9FAE4CCFB2275F010EF2F9C
:10069700FFEE33FEED33FDCC33CCC833C810D7079C
:1006A7009BEC9AE899400AED9BFDEC9AFCE899F8D7
:0E06B7000FD5F0DAE4CDFBE4CCFAE4C8F9226A
:0E06C500C3E49FFFE49EFEE49DFDE49CFC2246
:1006D300EB9FF5F0EA9E42F0E99D42F0E89C45F07D
:0106E30022F4
:1006E400E8600FECC313FCED13FDEE13FEEF13FFF4
:0306F400D8F12218
:1006F700FAE6FB0808E6F925F0F618E6CA3AF62204
:10070700D083D082F8E4937012740193700DA3A381
:1007170093F8740193F5828883E473740293686095
:06072700EFA3A3A380DF95
:10162200EFB40A07740D12162D740A309811A89996
:10163200B8130CC2983098FDA899C298B811F63028
:0716420099FDC299F5992200
:00000001FF
