:100DA600E4F5B1F5B2F5B3F5B4F5ACF5AD43B38002
:100DB60053B47FC290FF7EC27D01FC1211E5120B77
:040DC6004312115B68
:100DCA00121296782FEEF208EFF2D39433EE9400D3
:020DDA004030A7
:100DDC00E224CDFF18E234FFFEEF25E0FFEE33FEF8
:100DEC007C007D031205357831EEF208EFF212111A
:0E0DFC0011D2807F147E007D007C00121065F5
:100E0A0080BEE4FFFE1211117FE87E037D007C00A4
:050E1A00121065C2800A
:020E1F0080A9A8
:10100F00780012068A538EF7438901D28CE4FFFED3
:10101F00FDFC7800E2FB08E2F908E2FA08E2CBF8FF
:10102F00C3120666602D758A7E758CFF308DFDC2EA
:10103F008D7800E2FC08E2FD08E2FE08E224FFFFE3
:10104F00EE34FFFEED34FFFDEC34FFFC78001206AA
:06105F008A80BAC28C2257
:10106500783312068A538EF7438901D28CE4FFFE4A
:10107500FDFC7833E2FB08E2F908E2FA08E2CBF876
:10108500C3120666602D758ACA758CFA308DFDC24D
:101095008D7833E2FC08E2FD08E2FE08E224FFFF5A
:1010A500EE34FFFEED34FFFDEC34FFFC7833120621
:0610B5008A80BAC28C2201
:1010BB00780412068A538EEF438910D28EE4FFFE1A
:1010CB00FDFC7804E2FB08E2F908E2FA08E2CBF84F
:1010DB00C3120666602D758BEA758DCB308FFDC202
:1010EB008F7804E2FC08E2FD08E2FE08E224FFFF31
:1010FB00EE34FFFEED34FFFDEC34FFFC78041206FA
:06110B008A80BAC28E22A8
:100FB600780812068A53C9BF53C9DF43C910D2CA7B
:100FC600E4FFFEFDFC7808E2FB08E2F908E2FA0815
:100FD600E2CBF8C3120666602D75CC3075CDF830BD
:100FE600CFFDC2CF7808E2FC08E2FD08E2FE08E287
:100FF60024FFFFEE34FFFEED34FFFDEC34FFFC78FA
:091006000812068A80BAC2CA224F
:100F0000780C12068A75C40743C408E4FFFEFDFC92
:100F1000780CE2FB08E2F908E2FA08E2CBF8C31227
:100F20000666603375C52C75C6CFE5C454106410D1
:100F300070F853C4EF780CE2FC08E2FD08E2FE080A
:100F4000E224FFFFEE34FFFEED34FFFDEC34FFFC46
:0B0F5000780C12068A80B453C4F7220C
:100F5B00781012068A75C40743C408E4FFFEFDFC33
:100F6B007810E2FB08E2F908E2FA08E2CBF8C312C8
:100F7B000666603375C5D875C6FFE5C4541064109A
:100F8B0070F853C4EF7810E2FC08E2FD08E2FE08AB
:100F9B00E224FFFFEE34FFFEED34FFFDEC34FFFCEB
:0B0FAB00781012068A80B453C4F722AD
:1011E50053B1BF53B2BF53B17F53B27F75985043CC
:1011F5008920438780438E1053C4DFAB07AA06A915
:1012050005A8047F407E427D0F7C001205C6EF04D1
:09121500F404F58DD28ED2992269
:100E2100781412068A53B1BF53B2BF53B17F53B284
:100E31007F75985043878053C4F843C4207814E2E7
:100E4100FB08E2F908E2FA08E2CBF87F407E427D36
:100E51000F7C001205C6C374FF9FFF74FF9EFEE462
:100E61009DFDE49CFC78081206778FC67814E2FB9E
:100E710008E2F908E2FA08E2CBF87F407E427D0FF2
:100E81007C001205C6C374FF9FFF8FC543C408D2FF
:020E91009922A4
:0712AD003098FDAF99C298D3
:0112B4002217
:0812B500C2998F993099FD22C6
:100E9300781812068A53B1FB53B2FB53B3BF53B452
:100EA300BF75F85075C40853C4DF7818E2FB08E235
:100EB300F908E2FA08E2CBF87F407E427D0F7C001E
:100EC3001205C6C374FF9FFF74FF9EFEE49DFDE4FD
:100ED3009CFC78081206778FC67818E2FB08E2F9C3
:100EE30008E2FA08E2CBF87F407E427D0F7C0012D5
:0D0EF30005C6C374FF9FFF8FC543C40822CE
:0712BD0030F8FDAF9AC2F802
:0112C4002207
:0812C500C2F98F9A30F9FD22F5
:1011A3000A42616E646761702076616C75653A25E9
:1011B300640A000A42616E6467617020766F206C76
:1011C300746167653A25646D560A0041444320768D
:1011D300616C75653A25640041444352483A257869
:0211E3000A0000
:100B4300C280C290C292D294A2AF9209C2AF75C7BB
:100B5300AA75C755439F01A20992AF75A60DE4F587
:100B6300A775AF04A2AF9209C2AF75C7AA75C755DF
:100B730043A401A20992AF7821E5AEF2E2FF54F05B
:100B8300782EF264806003020C0BEF540F7821F28D
:100B930075A60CE4F5A7A2AF9209C2AF75C7AA75F3
:100BA300C75543A401A20992AF18E5AEF2E275F06E
:100BB30010A4FF08E27C002FFDEC35F0FC1202A626
:100BC300782A12068AE4FFFE7D407C40782AE2FB05
:100BD30008E2F908E2FA08E2CBF81200FBE4FBFAB8
:100BE30079807840120204781C12068A781CE2FC91
:100BF30008E2FD08E2FE08E2FFE4FBFA790478C2AA
:100C030012000A781C12068A782EE270627821E2BA
:100C1300540FF275A60CE4F5A7A2AF9209C2AF7503
:100C2300C7AA75C75543A401A20992AF18E5AEF24E
:100C3300E275F010A4FF08E27C002FFDEC35F0FC18
:100C43001202A6782A12068AE4FFFE7D407C4078D1
:100C53002AE2FB08E2F908E2FA08E2CBF81200FB09
:100C6300E4FBFA79807840120204781C12068A7831
:100C73002EE264906003020CF975A60EF5A7A2AFED
:100C83009209C2AF75C7AA75C75543A401A20992B9
:100C9300AF7820E5AEF275A60FE4F5A7A2AF9209EF
:100CA300C2AF75C7AA75C75543A401A20992AF087D
:100CB300E5AEF2E2540FFFF2FD18E275F010A47CEA
:100CC300002DFDEC35F0FC1202A6782A12068AE408
:100CD300FFFE7D407C40782AE2FB08E2F908E2FA55
:100CE30008E2CBF81200FBE4FBFA798078401202A9
:100CF30004781C12068A7BFF7A1179A3782AE2FC16
:100D030008E2FD08E2FE08E2FF783612068A1207BF
:100D1300377BFF7A1179B6781CE2FC08E2FD08E222
:100D2300FE08E2FF783612068A120737A2AF92094D
:100D3300C2AF75C7AA75C755539FFEA20992AF5399
:100D4300E8F043B38053B47FE4F5F643F60143E19F
:100D5300017820F27820E2C3940374809480504297
:100D6300C2EFD2EE30EFFDAFC3EF75F010A4ADC20A
:100D73007C002DFDEC35F0FC1202A6782212068AC7
:100D83007BFF7A1179CE7822E2FC08E2FD08E2FECD
:100D930008E2FF783612068A1207377820E204F257
:030DA30080B222F9
:10129600C2EFD2EE7BFF7A1179DB7836E5C3F21224
:0712A6000737AFC37E0022F1
:10127100AD07EEA2AF92096401700BC2AF75C7AAA8
:1012810075C75543F91075C7AA75C755AF058FFACC
:04129100A20992AF6D
:011295002236
:10115B0053B1FD43B20253B1F743B20843DE204310
:10116B00DE1043DF0353DFFB43DF4053DF7F43D608
:10117B0020E4F5D175D996F5C5F5CDF5C4F5CCA21E
:10118B00AF9209C2AF75C7AA75C75543F904A20937
:08119B0092AF7F5FFE021271AA
:10111100AD07AC06A2AF9209C2AF75C7AA75C75594
:10112100439101A20992AFECF5C4D3ED9464EC9420
:1011310000400575CC97801AED4C7004F5CC8012F7
:10114100AE04AF057C007D03120523EEC313EF133C
:0A115100F5CC85CCCDD2DED2DF2232
:0300000002121ECB
:10121E0075C7AA75C75575FD5A75C7AA75C7557591
:10122E00FDA5787FE4F6D8FD9000007FFF7E03E4F5
:0C123E00F0A3DFFCDEFA758121020DA692
:10000300020314E86480F8E933E83360110460F014
:10001300ED33EC337009E8FCE9FDEAFEEBFF220463
:1000230060DED3EB9FEA9EE99DE8C2E78CF0C2F75E
:1000330095F0400CE8CCF8E9CDF9EACEFAEBCFFB2A
:100043001202DF85D0F05804700320D5B3E80470A2
:10005300075002B2D502031E92D5EC0460F7E4CC3C
:10006300C0E0C398F8603B94186008400DD0E0FBF3
:100073000202F6E4FBFAC9FC8028E830E406E4C98E
:10008300FBE4CAFCE830E305E4C9CACBFCE8540747
:100093006010F8C3E913F9EA13FAEB13FBEC13FC52
:1000A300D8F130F52FC3E49CFCEF9BFFEE9AFEEDF5
:1000B30099FDD0E0FBEF4E4D4C701222DB0302039F
:1000C3001BEC2CFCEF33FFEE33FEED33FDED30E79D
:1000D300EB0202F6EF2BFFEE3AFEED39FDD0E0FB2B
:1000E30050130BBB000302031EED13FDEE13FEEFD3
:0800F30013FFEC13FC0202F6FE
:1000FB00EC4D6011E8497017ED33EC3304600DE4FF
:10010B00FCFFFEFD22E933E8330470F802031412FE
:10011B0002DF58046009E4CC248150062850090200
:10012B00031E28400302031BC0E0EB4A7044B98056
:10013B0006D0E0FB02030AEF4E701CBD8008EBFFFC
:10014B00EAFEE9FD80EBE98DF0A4FEE5F00201E4A7
:10015B00E9CDF9EAFEEBFFEF89F0A4FCE5F0CE89DF
:10016B00F0A42EFFE435F0CD89F0A42DFEE435F09C
:10017B008067EF4E7005BD80D780C3EF8BF0A4ACCA
:10018B00F0EE8BF0A42CFCE435F0F8EF8AF0A42C05
:10019B00E5F038FCE433CB8DF0A42CFCE5F03BF818
:1001AB00EE8AF0A42CFCE5F038F8E433CF89F0A408
:1001BB002CFCE5F038CF3400CE89F0A42FFFE5F00E
:1001CB003EFEE433C98DF0A42EFEE5F039CD8AF066
:1001DB00A42FFFE5F03EFEE43DFD33D0E0FB5007DE
:1001EB000BBB000F02031EEC2CFCEF33FFEE33FEB8
:0601FB00ED33FD0202F6E7
:1002010002031EEC5D046005E85904700302031447
:100211001202DF580460F6EC4860F2EC7004FDFE57
:10022100FF22C860DB2481C85009C39860025006D0
:1002310002031B9850CAF582E9294B4A7005AB822B
:1002410002030A75F0007C1A7880C3EF9BEE9AEDE9
:1002510099400DC3EF9BFFEE9AFEED99FDE842F048
:10026100DC23ACF0D0E0FFD0E0FED0E0FDAB82209B
:10027100E7101BEB60BAEC2CFCEF33FFEE33FEED25
:1002810033FD0202F6E803F830E705C0F075F0002F
:10029100EF2FFFEE33FEED33FD40B830E7C280AA09
:1002A10075F020800E75F010800575F0087D007ED8
:1002B100007F003392D530D503120658EC3340103D
:1002C100EF33FFEE33FEED33FDEC33FCD5F0ED22E1
:0E02D100E5F0247EA2D513CC92E7CDCEFF221D
:1006D500E5082436F8E20508227833300702783633
:1006E500E475F0011206960204CB2000EB7F2ED2B2
:1006F500008018EF540F2490D43440D4FF30040BFD
:10070500EF24BFB41A0050032461FFE50960021508
:1007150009050CE50C7002050B30070D7833E475FF
:10072500F001120696EF02051102124A7403D20770
:100735008003E4C207F50878331206A6E4F509F547
:100745000BF50CE50960077F2012071080F5750A87
:10075500FFC201C200C202C203C205C206C208121C
:1007650006DEFF700D3007057F00120721AF0CAEC6
:100775000B22B4255FC2D5C2041206DEFF24D0B415
:100785000A00501A75F00A780930D50508B6FF0138
:1007950006C6A426F620D5047002D20380D924CF3C
:1007A500B41A00EF5004C2E5D204020A0DD201804A
:1007B500C6D20080C0D20280BCD2D580BAD2058014
:1007C500B47F201207102002077401B5090040F11B
:1007D5001206D5FF120710020748D208D2068095E7
:1007E5001206D5FB1206D5FA1206D5F94A4B700644
:1007F50079047A0B7BFF20022EE509602A7E008EA4
:10080500827583001204E460060EEE650A70F0C27C
:10081500D5EBC0E0EAC0E0E9C0E0EE120A6DD0E039
:10082500F9D0E0FAD0E0FB1204CBFF60AAEBC0E000
:10083500EAC0E0E9C0E0120710D0E02401F9D0E0F9
:100845003400FAD0E0FBE50A0460DCD50AD98087DC
:10085500D20280A2120A5060F7E50A700104120361
:1008650029A90A600DE50A600914F50A120AF7EFCD
:1008750060F3EA30E702F404C3995077EAF4250AF5
:100885000430E701E404F50A800D120A5060C1EA5C
:10089500050A250A120329EA7849F230E701E42519
:1008A5000A04D50A0420050114120A6DE4C0E012F9
:1008B5000AF77849E2601320E70714F21206F88078
:1008C5002204F2D0E014C0E07F001206F8E50A60C9
:1008D500071206EF150A800B3005031206EFD0E06C
:1008E500020748D0E00480C5120A5060A0E50A045A
:1008F5001203297849EAF2E50A2005026001042479
:0C09050004120A6D74FF04C0E0120AF72F
:100911001206F8E50A20050260031206EFD0E0B5E1
:100921000AE87F451207027849E27F2B30E7047F0E
:100931002DF404C0E0120710D0E075F00A84C0F075
:100941001206F9D0E01206F90207487910800279FF
:1009510008C206C2088008D2D5790A8004790AC281
:10096100D5E50A047002F50AE4FAFDFEFF1206D588
:10097100FC7B082001131206D5FD7B1030000A1202
:1009810006D5FE1206D5FF7B20EC3382D592D550D9
:1009910013C3E43000069FFFE49EFEE42001039DA3
:1009A100FDE49CFCE4CBF8C201EC700CCFCECDCCC5
:1009B100E824F8F870F38017C3EF33FFEE33FEED50
:1009C10033FDEC33FCEB33FB994002FB0FD8E9EB31
:1009D100300105F8D0E0C448B201C0E00AEC4D4E48
:1009E1004F78207B0070C2EAB50A0040BCC0E0121B
:1009F1000A6FD0F0D0E0200104C4C0E0C4B201C04D
:100A0100F01206F9D0F0D5F0EB0207481206AF0755
:100A1100E553094C5807B64C07B24209504F0958E3
:100A21004409584907CB43095E55088F4608ED45EF
:100A31000859470B245007BA2D07BE2E07E12B0793
:100A4100C22307DF200B0D2A077A48000007D9E5EA
:100A51000AB4FF03750A061206D5FC1206D5FD126B
:100A610006D5FE1206D5FF7842020358790AA2D5AF
:100A7100200314300509B910020404B9080104A2C5
:100A8100D52006025001042002689202B5090050E7
:100A910034C0E07F203003197F30A2027206720554
:100AA100500F120AC6C202C206C205C2087F3080B8
:100AB1000F300503E9C0E0120710300503D0E0F95B
:100AC100D0E0B509CC3005177F30B9100C120710F2
:100AD1007F583004077F788003B90803120710306C
:100AE10002057F2D0207107F202008F87F2B2006AA
:100AF100F322920280CF7F00B4070050052442F810
:100B0100E2FF22286E756C6C2900D2011206D530E5
:100B110001F8C201780930D50108F602077A2D5093
:100B21004349581206D52403B405004001E4900B53
:100B31001F93120701743A120701D20375090402C7
:020B4100094C5D
:1002DF00E9D2E7C933E833F892D5EDD2E7CD33EC65
:0702EF0033FC5002B2D522DE
:1002F600EC30E7100FBF000C0EBE00080DBD000469
:100306000BEB6014A2D5EB13FCED92E7FD2274FF14
:10031600FCFDFEFF22E480F8A2D574FF13FC7D806D
:03032600E480EF81
:10032900F920E72824F950037907E4F42402FB189B
:10033900DBFDE224FB5014E9600DE4F218E204F25B
:0F034900B40A08E4F2D9F57401F20A22C2D522EF
:10035800ED33EC3392D5FA602AB4FF33EDC2E77B74
:10036800FF60067A03797DE4227A03798620D50432
:100378007A037981224E614E002B494E46002D4961
:100388004E4600E47A08F208DAFC7B00740722E89B
:10039800C0E0ECC0E0EDC0E0EEC0E0EFC0E0EA7520
:1003A800F010A4CAABF075F04DA42BFBE435F0FCBB
:1003B800EA2410FAEB34C5FBEC34D9FCEDC2E7FFB4
:1003C80075F056A4F42411C5F0F434C58FF0A42AAE
:1003D800E5F03BE43CF220E71412048BD0E0FFD0B8
:1003E800E0FED0E0FDD0E0FC1202048014F4041218
:1003F800048BD0E0FFD0E0FED0E0FDD0E0FC12009E
:10040800FBD0E0F8E2FAEDD2E7CD33EC332482FBFF
:10041800E4C3CF33CFCE33CECD33CD33DBF37B073D
:1004280075F00A846004F2081B0AE5F0F2088FF000
:10043800740AA4FFACF08EF0740AA42CFEACF05041
:10044800010C8DF0740AA42CFDE435F0F208DBDE13
:0304580074072204
:10045B003F8000004120000042C80000447A0000A9
:10046B00461C400047C35000497424004B1896802B
:10047B004CBEBC205A0E1BCA6753C21C749DC5AE22
:10048B00FB60065407601C23231204B9EB5438603D
:10049B00091204A51204B41200FBECF8EDF9EEFA04
:1004AB00EFCB22EB1204B480F1543803241C9004DC
:1004BB005BFE93FC0EEE93FD0EEE930ECE93FF229E
:1004CB00BB010689828A83E0225002E722BBFE022F
:0904DB00E32289828A83E4932262
:1004E400BB010CE58229F582E5833AF583E02250CD
:1004F40006E92582F8E622BBFE06E92582F8E22217
:0D050400E58229F582E5833AF583E4932230
:10051100BB010689828A83F0225002F722BBFE01C9
:02052100F322C3
:10052300EF8DF0A4A8F0CF8CF0A428CE8DF0A42EEC
:02053300FE22A6
:10053500BC000BBE0029EF8DF084FFADF022E4CCAA
:10054500F875F008EF2FFFEE33FEEC33FCEE9DEC73
:10055500984005FCEE9DFE0FD5F0E9E4CEFD22EDB9
:10056500F8F5F0EE8420D21CFEADF075F008EF2F03
:10057500FFED33FD4007985006D5F0F222C398FDF4
:050585000FD5F0EA2291
:10058A0075F008758200EF2FFFEE33FECD33CDCC28
:10059A0033CCC58233C5829BED9AEC99E5829840AB
:1005AA000CF582EE9BFEED9AFDEC99FC0FD5F0D688
:1005BA00E4CEFBE4CDFAE4CCF9A88222B800C1B9B2
:1005CA000059BA002DEC8BF084CFCECDFCE5F0CBF0
:1005DA00F97818EF2FFFEE33FEED33FDEC33FCEB29
:1005EA0033FB10D703994004EB99FB0FD8E5E4F9E4
:1005FA00FA227818EF2FFFEE33FEED33FDEC33FCD1
:10060A00C933C910D7059BE99A4007EC9BFCE99AC4
:10061A00F90FD8E0E4C9FAE4CCFB2275F010EF2F09
:10062A00FFEE33FEED33FDCC33CCC833C810D70709
:10063A009BEC9AE899400AED9BFDEC9AFCE899F844
:0E064A000FD5F0DAE4CDFBE4CCFAE4C8F922D7
:0E065800C3E49FFFE49EFEE49DFDE49CFC22B3
:10066600EB9FF5F0EA9E42F0E99D42F0E89C45F0EA
:010676002261
:10067700E8600FECC313FCED13FDEE13FEEF13FF61
:03068700D8F12285
:0C068A00ECF208EDF208EEF208EFF222AC
:10069600FAE2FB0808E2F925F0F218E2CA3AF22279
:0906A600EBF208EAF208E9F22285
:1006AF00D083D082F8E4937012740193700DA3A3DA
:1006BF0093F8740193F5828883E4737402936860EE
:0606CF00EFA3A3A380DFEE
:10124A00EFB40A07740D121255740A309811A8994E
:10125A00B8130CC2983098FDA899C298B811F63004
:07126A0099FDC299F59922DC
:00000001FF
