:10000000020B58AD07AF06A2AF921ABF010BC2AFE9
:1000100075C7AA75C75543F91075C7AA75C7558D19
:10002000FAA21A92AF2200007F09DFFE22015D00D2
:0A003000013E000053C4EF055232F8
:10003B0002003EC0E0C0D075D000C007E5EC6440C4
:10004B00702812002620861F755114D208C20AC2CE
:10005B000F53DEDF53DEEFD22AD283C281C210C22E
:10006B00DFF579D21FF5EC75EC00D007D0D0D0E0DE
:01007B003252
:10008300020034E5527003020678E4F552E57AC3C0
:1000930094FA5002057AE54AC394FA5002054A05D8
:1000A30078E578C39408401FE4F5780532D22BD263
:1000B30028E532D394FA400FE4F532E55160021596
:1000C30051E54160021541E57C701F302E1C20165E
:1000D3001920171620191320141020130D20250A98
:1000E300202007200504E551600AD208C20AC20F86
:1000F300D21F800B202C08C208C20AC20FC21F30B5
:100103008209C21DE4F548F549C20B208215054951
:10011300E54970020548D394A0E548940F4004D202
:100123000BC215E539C394F45007E554C394F44066
:1001330019053BE53B7002053AD39470E53A9417F1
:1001430050030201E4D2200201E4E4F53AF53BC294
:1001530020E539D395544007E5399554FF8006C30C
:10016300E5549539FFEFC3940A5076E54EB4031670
:10017300752C4E752D64752E5C755E0AD22D753304
:10018300FF754E03D21CE54EB40218C220752C3DF8
:10019300752D52752E47755E14D22D753399754E94
:1001A30002C21CE54EB40118C220752C2A752D37E6
:1001B300752E32755E14D22D75334C754E01C21CEB
:1001C300E54E7017C220752C2A752D37752E3275A2
:1001D3005E14C22D75334CF54EC21C85337E857E6D
:1001E30053E5417015302C1220080F302D06D23202
:1001F300C200800AC232D2008004C232C200A231DD
:10020300301C01B3500BA21C9231C20AC20FE4F599
:1002130030200B03300E0BE4F535F546C210C22C2B
:10022300805D303229308003855E47E4F535E5464D
:10023300C394FA50020546E568D39418400BC29064
:10024300E4F57DD280D2878036E4F54680313000F4
:1002530029309003855E47E4F546E535C394FA50AB
:10026300020535E57DD39418400BC280E4F568D2CE
:1002730090D287800AE4F5358005E4F535F546E547
:1002830035D394645009E54694645003020332E580
:1002930079C3941950037579190569E569D39527CD
:1002A3005003020335E4F569200319E579D3952A50
:1002B3004009E579D3941940021579E579C3952A64
:1002C30050020579E54FD39439405DE54E640370E0
:1002D30057E579D394CC4002D218301855D2031580
:1002E3007975270AE579C394655003757965E579CE
:1002F300D394665020E54EB4031B0577E57770026F
:100303000576C394F4E5769401400AD21475612806
:10031300E4F576F577E579D394664016E54EB403B4
:1003230011E4F576F577800AC20375271B8003E491
:10033300F579052FE52FC394295003020678E4F5D8
:100343002FE55AD394645002055A302E0D20250A06
:10035300201707201604E55160130562E562D39464
:10036300054045E4F562A292B39292803B0562E5B3
:1003730062D3940C4032E4F5620531E555600FE534
:100383003195555007A292B392928002C292E555DD
:100393002404FDE433FCE531C39DEC6480F87480F0
:1003A300984005E4F531D292E57CB4010575550C0E
:1003B3008036E57CB4020575550E802C2020033071
:1003C30005057555088021300E05755504801920E3
:1003D3001406201303301905755506800B300B05E1
:1003E3007555028003E4F555E539D394B24005759C
:1003F3004E03802FE539D39480400CC21BE4F538BB
:10040300F537754E02801CE539D3941A400CC21B94
:10041300E4F538F537754E018009C21BE4F538F56C
:1004230037F54E052BE52BD39419500302057AE4D7
:10043300F52B302149200218E54E6003B401110564
:1004430071E571C394F04008D214E4F57175612825
:10045300E54EB402110571E571C394F04008D2145E
:10046300E4F571756128E54EB4031C0571E571C3AC
:1004730094F04013D214E4F5717561288009E4F512
:1004830071E5617002C214302946E54E6003B40180
:1004930011057BE57BC3945A4008D219E4F57B75BB
:1004A3006128E54EB40211057BE57BC3943C40080B
:1004B300D219E4F57B756128E54EB4031C057BE591
:1004C3007BC394284013D219E4F57B756128800916
:1004D300E4F57BE5617002C219302636E54E600310
:1004E300B40111056FE56FC394144008D213E4F50A
:1004F3006F756128E54E64026005E54EB4031C0583
:100503006FE56FC3940A4013D213E4F56F75612846
:100513008009E4F56FE5617002C21330221705729A
:10052300E572C39405401CD204D216E4F5727561DA
:1005330028D223800EE4F572E5617007C2163023DA
:1005430002C2943024170573E573C39402401CD28E
:1005530004D217D223E4F573756128800EE4F57392
:10056300E5617007C217302302C294E5616002158A
:1005730061E53D6002153D302C19300704C207D2F6
:1005830009E4F56BF558F559200B04D2018019C223
:10059300018015D2070559E55970020558D394987F
:1005A300E558943A4002C201E550C39486501105C0
:1005B3003CE53C94E14019D20EC210753D288010F1
:1005C300E4F53CE550D394A14006E53D7002C20E2C
:1005D30020800BE57DC394FA5007057D8003E4F585
:1005E3007D20900BE568C394FA500705688003E407
:1005F300F568E547D3940140071547755F0280739B
:10060300E55F6004155F8002C287E547605CE4F53F
:1006130047F579120A6C201F0575790A8003E4F502
:1006230079120A6CE4F547302C07300904C20980BB
:100633001BE4F552E552D39414500A302CF63009DA
:10064300F3C20980070547E547B432DBE4F547C247
:1006530080C290F552E552D394645008302CF630A2
:1006630009F3C209E4F579120A6CC280C290E4F579
:1006730035F546C20922C2EFABC3E57464056003D6
:100683000207D375740753E8F043B38053B47FF57F
:10069300F643F60143E101C2EFD2EEC2AEEB256EA3
:1006A300F56EE4356DF56D0540E540C394085003E0
:1006B300020935E4F540E56EAE6D7803CEC313CE83
:1006C30013D8F9F54FE4F56DF56EE55AC39464500C
:1006D30003E4F54FE54FC394494015E54EB40110CB
:1006E300053FE4F557E53FD394054012D222800E2F
:1006F300E4F53F0557E557D394054002C222E54F81
:10070300C394734015E54EB402100542E4F55BE56E
:1007130042D394054012D224800E055BE55BD3944B
:10072300054005C224E4F542E54FD3948F4015E517
:100733004EB40310D2250543E4F55C756128D2233A
:10074300D2048017E4F543055CE55CD39405400BC4
:10075300E5617007C225302302C294E54FD3952D7E
:1007630040100544E4F55DE544D394054012D226D8
:10077300800EE4F544055DE55DD394054002C22691
:10078300E54FD3952C4010053EE4F556E53ED39452
:100793000A4012D221800EE4F53E0556E556D39465
:1007A300054002C221E54FD3952E40120545E4F5DD
:1007B30060E545D394055003020935D22922E4F5B7
:1007C300450560E560D394055003020935C229222B
:1007D300E574640760030208A575740453E8F043E5
:1007E300E80143AC0153ADFEF5F643F60243E101E4
:1007F300C2EFD2EEC2AEEBD394F54002D205EBD3F7
:1008030094424073E4F54AE57A9464401130100E43
:10081300E5677003756701E567B40202D22C74BE05
:100823002BFBD3947F40027B7F301C16E54EB40331
:1008330011EB75F0DAA4FFAEF07C007D7F120C554E
:100843008F2A201C08E54EB40203752A8F201C084A
:10085300E54EB40103752A50201C15E54E7011EBCB
:1008630075F04FA4FFAEF07C007D7F120C558F2AEC
:100873007419252AF52A22EBD3941A4022E4F57A37
:10088300C205E54A94645003020935200B05200E86
:1008930002D210D2DFC22CE4F567C203C21822D2FF
:1008A3000522E5746404704A75740653E8F043E85E
:1008B3000743B30253B4FDF5F643F68043E101C2A7
:1008C300EFD2EEC2AE8B54EB2564F564E43563F5E9
:1008D30063054BE54BC394404058E4F54BE564AEE8
:1008E300637806CEC313CE13D8F9F539E4F563F56F
:1008F3006422E5746406703A75740553E8F043E8BE
:100903000443B12053B2DFF5F643F61043E101C2CD
:10091300EFD2EEC2AEAF03EB2566F566E43565F5BF
:1009230065054CE54C700BF54CE565F550E4F56554
:10093300F56622C290C280C20D43B30853B4F7C216
:1009430005C20353B1BF53B2BFC20353B1FB53B28A
:10095300FBC22343B12053B2DF53B17F43B2805371
:10096300B3FE43B40153B1FE43B201C290C28053FC
:10097300B1F743B20853B1FD43B20253B1FB53B2D3
:10098300FB43B30253B4FD53B3FB43B40453B3DF8C
:1009930043B42043B11053B2EF43DE2043DE104390
:1009A300DF4053DF7F43D620A2AF921AC2AF75C791
:1009B300AA75C75543F904A21A92AF43DF0553DF63
:1009C300FDE4F5D175D9FF7F5EFE120003A2AF925D
:1009D3001AC2AF75C7AA75C755439101A21A92AF40
:1009E300F5C4F5CCA2AF921AC2AF75C7AA75C755A5
:1009F3005391FEA21A92AFD2DED2DF75C6E075C55F
:100A0300C0439C02D2AF43C40843E80853E8F84309
:100A1300E10153E8F043B38053B47FF5F643F601A5
:100A230043E101757405C2EFD2EEC2AE7580FEF5E7
:100A330079F5417553FF754D01D201D282D20CD2A3
:100A43002E757E80D292C295F55AC21FC202C2157C
:100A5300D21D53B3EF43B410D294C21BF538F5370C
:100A6300C218C295F56AC20422208077209074E5EB
:100A73006764017071756702F57CD29553B1EF43DA
:100A8300B210C284F552E552D3942840F943B11011
:100A930053B2EFE4F552E552D3940340F9E4F5522F
:100AA300E552D39402500B3084F6757C017567FFD1
:100AB30080EE53B1EF43B210D284E4F552E552D342
:100AC300942840F943B11053B2EFE4F552E552D301
:100AD3009402500B2084F6757C027567FF80EEC28A
:100AE300958003756702E54D6579606885794DA248
:100AF300AF921AC2AF75C7AA75C755439101A21A1F
:100B030092AFE4F5C4C374FF9579F5CCA2AF921A02
:100B1300C2AF75C7AA75C7555391FEA21A92AFD239
:100B2300DEE579C394FE400D53DEDF53DEEFD22AB8
:100B3300C281C28322E579700D53DEDF53DEEFD22B
:100B43002AC281D28322302A0B43DE20E4F55243AA
:100B5300DE10C22A22787FE4F6D8FD9000007FFFE2
:100B63007E03E4F0A3DFFCDEFA75817E020BAD02A7
:100B73000CAAE493A3F8E493A34003F68001F208DC
:100B8300DFF48029E493A3F85407240CC8C333C4C7
:100B9300540F4420C8834004F456800146F6DFE432
:100BA300800B010204081020408090002DE47E0198
:100BB3009360BCA3FF543F30E509541FFEE493A3A5
:100BC30060010ECF54C025E060A840B8E493A3FAB7
:100BD300E493A3F8E493A3C8C582C8CAC583CAF043
:100BE300A3C8C582C8CAC583CADFE9DEE780BE30B1
:100BF3002B5FC22B200417300D143093110536E5FB
:100C030036C394054008309305C294753605209386
:100C130040E4F5360570E570C3940A4005E4F570C9
:100C2300D20D2097253082290529E529C394FA405E
:100C330020E4F5290534E534943C4015E4F5340506
:100C43006CE56C940A400AC29422E4F529F534F564
:100C53006C22BC000BBE0029EF8DF084FFADF022A7
:100C6300E4CCF875F008EF2FFFEE33FEEC33FCEE27
:100C73009DEC984005FCEE9DFE0FD5F0E9E4CEFD1A
:100C830022EDF8F5F0EE8420D21CFEADF075F008ED
:100C9300EF2FFFED33FD4007985006D5F0F222C346
:100CA30098FD0FD5F0EA2212093675C7AA75C75504
:100CB30075AA07A2AF921AC2AF75C7AA75C75543E3
:100CC300AA80A21A92AFA2AF921AC2AF75C7AA7531
:100CD300C75543AA40A21A92AF439B1075E980758A
:100CE300EA40759B02120BF2120086120A6C30EF77
:060CF300B912067980B47D
:00000001FF
