:10000000020C94AD07AF06A2AF9218EF6401700B1B
:10001000C2AF75C7AA75C75543F91075C7AA75C78A
:10002000558DFAA21892AF2200007F09DFFE22014F
:060030005C00013D000030
:10003B0002003EC0E0C0D075D000C007AFECEF644B
:10004B0040702812002820861F755014D207C20951
:10005B00C20E53DEDF53DEEFD227D283C281C20F33
:10006B00C2DFF575D21DF5EC75EC00D007D0D0D002
:10007B00E03253C4EF05513202007DE551700302AB
:10008B00075DE4F551C3E57694FA748094805002D1
:10009B000576C3E54994FA748094805002054905AE
:1000AB0074C3E5749408748094804023E4F574055C
:1000BB0031D228D225D3E53194FA74809480400F45
:1000CB00E4F531E55060021550E54060021540E55E
:1000DB0078701F302B1C2015192016162017132093
:1000EB00131020120D20220A201E07200404E550B5
:1000FB00600AD207C209C20ED21D800B202908C28A
:10010B0007C209C20EC21D308209C21BE4F547F5B6
:10011B0048C20A2082150548E54870020547D3946A
:10012B00A0E547940F4004D20AC214C3E53894F4F7
:10013B0074809480500BC3E55394F4748094804086
:10014B0019053AE53A70020539D39470E5399417DD
:10015B005003020203D21E020203E4F539F53AC240
:10016B001EE538D395534007E5389553FD8006C3FC
:10017B00E5539538FDEDC3940A748094805079E56E
:10018B004D64037016752B4E752C64752D5C755D67
:10019B000AD22A7532FF754D03D21AE54D640270EF
:1001AB0018C21E752B3D752C52752D47755D14D2DB
:1001BB002A753299754D02C21AE54D64017018C249
:1001CB001E752B2A752C37752D32755D14D22A7539
:1001DB00324C754D01C21AE54D7017C21E752B2A94
:1001EB00752C37752D32755D14C22A75324CF54D51
:1001FB00C21A85327A857A52E54070153029122061
:10020B00070F302A06D22FC200800CC22FD20080DB
:10021B0006C219C22FC200A22E301A01B3500BA274
:10022B001A922EC209C20EE4F52F200A03300D0BD1
:10023B00E4F534F545C20FC229806D302F31308083
:10024B0003855D46E4F534C3E54594FA74809480E8
:10025B0050020545D3E567941874809480400BC217
:10026B0090E4F579D280D287803EE4F54580393031
:10027B000031309003855D46E4F545C3E53494FACF
:10028B007480948050020534D3E57994187480946B
:10029B0080400BC280E4F567D290D287800AE4F5E8
:1002AB00348005E4F534F545D3E5349464748094D7
:1002BB0080500AE5459464748094804040C3E57592
:1002CB009419748094805003757519201932056840
:1002DB00D3E568941B748094804025E4F568E5753C
:1002EB00D39529400DD3E575941974809480400201
:1002FB001575E575C39529500705758003E4F575EC
:10030B00052EC3E52E9429E49400500302075DE407
:10031B00F52ED3E5599464748094805002055930BE
:10032B002B0D20220A201607201504E55060170517
:10033B0061D3E5619405748094804049E4F561A232
:10034B0092B39292803F0561D3E561940C748094D3
:10035B00804032E4F5610530E554600FE53095548B
:10036B005007A292B392928002C292E5542404FFEA
:10037B00E433FEE530C39FEE6480F874809840054B
:10038B00E4F530D292AF787E00EF640170057554BE
:10039B000C8037EF64024E700575540E802C201EB6
:1003AB00033004057554088021300D057554048005
:1003BB0019201306201203301705755406800B30D5
:1003CB000A057554028003E4F554E538FB7A00D333
:1003DB0094B2748094804057201903754D03C3E584
:1003EB004E94567480948040190536E53694057406
:1003FB00809480401075754C120B8DD21975362177
:10040B008003E4F536D3E54E942E74809480501A15
:10041B003019530537C3E5379432748094804046C6
:10042B00754D03C219753765803CE4F5378037D3BA
:10043B00EB9480EA64809480400CC219E4F537F5A4
:10044B0036754D028020D3E538941A748094804021
:10045B000CC219E4F537F536754D018009C219E464
:10046B00F537F536F54D3024170573C3E573941E38
:10047B00748094804013D222E4F573756050800928
:10048B00E4F573E5607002C222052AD3E52A9419BC
:10049B00748094805003020633E4F52A301F5C20ED
:1004AB00021EAF4DEF600464017015056FC3E56F5D
:1004BB0094F0748094804008D213E4F56F75602833
:1004CB00AF4D7E00EF64027015056FE56FC394F0BE
:1004DB00748094804008D213E4F56F756028EF6444
:1004EB00034E7020056FC3E56F94F07480948040C9
:1004FB0013D213E4F56F7560288009E4F56FE5609E
:10050B007002C213302656AF4DEF600464017015B4
:10051B000577C3E577945A748094804008D217E42A
:10052B00F577756028E54D640270150577C3E5779F
:10053B00943C748094804008D217E4F5777560285A
:10054B00E54D640370200577C3E577942874809498
:10055B00804013D217E4F5777560288009E4F577AE
:10056B00E5607002C217302341AF4DEF60046401A8
:10057B007015056DC3E56D9414748094804008D29A
:10058B0012E4F56D756028AF4DEF64026005EF6402
:10059B00037020056DC3E56D940A7480948040133D
:1005AB00D212E4F56D7560288009E4F56DE5607095
:1005BB0002C2123020170570C3E570940274809448
:1005CB00804013D215E4F5707560648009E4F57012
:1005DB00E5607002C2153021170571C3E5719402F5
:1005EB00748094804013D216E4F5717560648009B1
:1005FB00E4F571E5607002C2163024170573C3E58C
:10060B00739401748094804013D222E4F573756067
:10061B00648009E4F573E5607002C222E560600254
:10062B001560E53C6002153C302919300604C20602
:10063B00D208E4F569F557F558200A04D201801960
:10064B00C2018015D2060558E55870020557D394A0
:10065B0098E557943A4002C201AF4F7E00C3EF9426
:10066B0086748094805015053BE53B94E17480942F
:10067B0080401DD20DC20F753C288014E4F53BD38E
:10068B00EF94A1EE648094804006E53C7002C20DAD
:10069B0020800FC3E57994FA748094805007057914
:1006AB008003E4F57920900FC3E56794FA74809486
:1006BB0080500705678003E4F567D3E54694017422
:1006CB0080948040081546755E0202075BE55E600C
:1006DB0004155E8002C287E546606CE4F546F5754D
:1006EB00120B8D201D0575750A8003E4F575120B31
:1006FB008DE4F546C3E546943274809480502630E1
:10070B002907300804C208801CE4F551D3E5519445
:10071B001474809480500A3029F23008EFC208809C
:10072B0004054680CFE4F546C280C290F551D3E56F
:10073B005194647480948050083029F23008EFC2D1
:10074B0008E4F575120B8DC280C290E4F534F545C3
:10075B00C20822C2EFABC3E572640560030208C096
:10076B0075720753E8F043B38053B47FF5F643F645
:10077B000143E101C2EFD2EEC2AEEB256CF56CE4A6
:10078B00356BF56B053FC3E53F940874809480503F
:10079B0003020A61E4F53FAE6BE56C7803CEC3133D
:1007AB00CE13D8F9F54EE4F56BF56CC3E5599464AB
:1007BB00748094805003E4F54EAF4E7E00C3EF94EB
:1007CB0049748094804019E54D64017013053EF522
:1007DB0056D3E53E9405748094804016D220801247
:1007EB00E4F53E0556D3E55694057480948040029B
:1007FB00C220C3EF9473EE648094804019E54D647E
:10080B000270130541F55AD3E54194057480948029
:10081B004016D2218012055AD3E55A940574809460
:10082B00804005C221E4F541E54ED3952C401405DB
:10083B0043E4F55CD3E5439405748094804016D271
:10084B00238012E4F543055CD3E55C940574809436
:10085B00804002C223E54ED3952B4014053DE4F5B1
:10086B0055D3E53D940A748094804016D21F8012B4
:10087B00E4F53D0555D3E55594057480948040020D
:10088B00C21FE54ED3952D40160544E4F55FD3E525
:10089B00449405748094805003020A61D22622E4AA
:1008AB00F544055FD3E55F94057480948050030293
:1008BB000A61C22622E572640760030209CA7572D7
:1008CB000453E8F043E80143AC0153ADFEF5F643A6
:1008DB00F60243E101C2EFD2EEC2AEEBFF7E00D3D4
:1008EB0094F5748094804002D204D3EF9442EE646A
:1008FB008094805003020999E4F549E57694647479
:10090B008094804012300F0FE5667003756601E529
:10091B006664027002D22974BE2BFBD3947F748061
:10092B00948040027B7F301A1AE54D6403701420CB
:10093B001911EB75F0DAA4FFAEF07C007D7F120D80
:10094B00A28F29201A17E54D64027011EB75F08FF9
:10095B00A4FFAEF07C007D7F120DA28F29201A0917
:10096B00E54D64017003752950201A15E54D701182
:10097B00EB75F04FA4FFAEF07C007D7F120DA28FC4
:10098B0029301903020A6174192529F52922EBD3A1
:10099B00941A748094804024E4F576C204E549945B
:1009AB0064748094805003020A61200A05200D02B2
:1009BB00D20FD2DFC229E4F566C20322D20422E5AC
:1009CB0072FD7C006404704E75720653E8F043E8C8
:1009DB000743B30253B4FDF5F643F68043E101C27E
:1009EB00EFD2EEC2AE8B53EB2563F563E43562F5C4
:1009FB0062054AC3E54A9440748094804058E4F5FC
:100A0B004AAE62E5637806CEC313CE13D8F9F53838
:100A1B00E4F562F56322ED64064C703A757205538A
:100A2B00E8F043E80443B12053B2DFF5F643F61088
:100A3B0043E101C2EFD2EEC2AEAF03EB2565F56524
:100A4B00E43564F564054BE54B700BF54BE564F54C
:100A5B004FE4F564F56522C290C280C20C43B30823
:100A6B0053B4F7C20453B1BF53B2BFC20353B1FB6C
:100A7B0053B2FB43B12053B2DF53B17F43B2805328
:100A8B00B3FE43B40153B1FE43B201C290C28053D3
:100A9B00B1F743B20853B1FD43B20253B1FB53B2AA
:100AAB00FB43B30253B4FD53B3FB43B40453B3DF63
:100ABB0043B42043B11053B2EF43DE2043DE104367
:100ACB00DF4053DF7F43D620A2AF9218C2AF75C76A
:100ADB00AA75C75543F904A21892AF43DF0553DF3C
:100AEB00FDE4F5D175D9FF7F5EFE120003A2AF9234
:100AFB0018C2AF75C7AA75C755439101A21892AF1B
:100B0B00E4F5C4F5CCA2AF9218C2AF75C7AA75C7EE
:100B1B00555391FEA21892AFD2DED2DF75C6E075A7
:100B2B00C5C0439C02D2AF43C40843E80853E8F85E
:100B3B0043E10153E8F043B38053B47FF5F643F63A
:100B4B000143E101757205C2EFD2EEC2AE7580FEB4
:100B5B00F575F5407552FF754C01D201D282D20B5F
:100B6B00D22B757A80D292C295F559C21DC202C2A0
:100B7B0014D21B53B3EF43B410D294C219F537F50B
:100B8B003622308003020C1B309003020C1BE566EF
:100B9B006401707F756602F57853B1EF43B210C2F2
:100BAB0084F551D3E55194287480948040F543B17A
:100BBB001053B2EFE4F551D3E55194037480948054
:100BCB0040F5E4F551D3E551940274809480500BB9
:100BDB003084F27578017566FF80EA53B1EF43B24A
:100BEB0010D284E4F551D3E551942874809480405D
:100BFB00F543B11053B2EFE4F551D3E551940274C0
:100C0B00809480500E2084F27578027566FF80EA1E
:100C1B00756602E54C6575606F85754CA2AF9218D1
:100C2B00C2AF75C7AA75C755439101A21892AFE41D
:100C3B00F5C4C374FF9575F5CCA2AF9218C2AF750E
:100C4B00C7AA75C7555391FEA21892AFD2DEAF75E6
:100C5B007E00C3EF94FE74809480400D53DEDF530F
:100C6B00DEEFD227C281C28322EF4E700D53DEDF3F
:100C7B0053DEEFD227C281D2832230270B43DE20F3
:100C8B00E4F55143DE10C22722787FE4F6D8FD90BD
:100C9B0000007FFF7E03E4F0A3DFFCDEFA75817AB0
:100CAB00020CE9020DF7E493A3F8E493A34003F6D7
:100CBB008001F208DFF48029E493A3F85407240C95
:100CCB00C8C333C4540F4420C8834004F456800176
:100CDB0046F6DFE4800B01020408102040809000F0
:100CEB002FE47E019360BCA3FF543F30E509541FF2
:100CFB00FEE493A360010ECF54C025E060A840B87A
:100D0B00E493A3FAE493A3F8E493A3C8C582C8CAF7
:100D1B00C583CAF0A3C8C582C8CAC583CADFE9DECA
:100D2B00E780BE302870C228300C1830931505357B
:100D3B00C3E5359405748094804008309305C294C4
:100D4B00753505209350E4F535056EC3E56E940AB1
:100D5B00748094804005E4F56ED20C20973130827C
:100D6B00350528C3E52894FA748094804028E4F56F
:100D7B00280533E533943C748094804019E4F533B3
:100D8B00056AE56A940A74809480400AC29422E44E
:100D9B00F528F533F56A22BC000BBE0029EF8DF068
:100DAB0084FFADF022E4CCF875F008EF2FFFEE33A3
:100DBB00FEEC33FCEE9DEC984005FCEE9DFE0FD552
:100DCB00F0E9E4CEFD22EDF8F5F0EE8420D21CFE26
:100DDB00ADF075F008EF2FFFED33FD40079850068F
:100DEB00D5F0F222C398FD0FD5F0EA22120A6275F4
:100DFB00C7AA75C75575AA07A2AF9218C2AF75C718
:100E0B00AA75C75543AA80A21892AFA2AF9218C277
:100E1B00AF75C7AA75C75543AA40A21892AF439B9B
:100E2B001075E98075EA40759B02120D2E12008633
:0B0E3B00120B8D30EFB912075E80B47F
:00000001FF
