:10000000020B26AD07AF06A2AF9218BF010BC2AF1D
:1000100075C7AA75C75543F91075C7AA75C7558D19
:10002000FAA21892AF2200007F09DFFE22015C00D5
:0A003000013D000053C4EF055132FA
:10003B0002003EC0E0C0D075D000C007E5EC6440C4
:10004B00702812002620861F755014D207C209C2D1
:10005B000E53DEDF53DEEFD227D283C281C20FC233
:10006B00DFF575D21DF5EC75EC00D007D0D0D0E0E4
:01007B003252
:10008300020034E5517003020652E4F551E576C3EC
:1000930094FA50020576E549C394FA5002054905DE
:1000A30074E574C39408401FE4F5740531D228D273
:1000B30025E531D394FA400FE4F531E5506002159C
:1000C30050E54060021540E578701F302B1C201569
:1000D3001920161620171320131020120D20220AA0
:1000E300201E07200404E550600AD207C209C20E8D
:1000F300D21D800B202908C207C209C20EC21D30BF
:100103008209C21BE4F547F548C20A208215054857
:10011300E54870020547D394A0E547940F4004D205
:100123000AC214E538C394F45007E553C394F4406A
:1001330019053AE53A70020539D39470E5399417F5
:1001430050030201E4D21E0201E4E4F539F53AC298
:100153001EE538D395534007E5389553FF8006C312
:10016300E5539538FFEFC3940A5076E54DB4031673
:10017300752B4E752C64752D5C755D0AD22A75320C
:10018300FF754D03D21AE54DB40218C21E752B3DFF
:10019300752C52752D47755D14D22A753299754D9C
:1001A30002C21AE54DB40118C21E752B2A752C37ED
:1001B300752D32755D14D22A75324C754D01C21AF4
:1001C300E54D7017C21E752B2A752C37752D3275A8
:1001D3005D14C22A75324CF54DC21A85327A857A7E
:1001E30052E540701530291220070F302A06D22F0E
:1001F300C200800AC22FD2008004C22FC200A22EE6
:10020300301A01B3500BA21A922EC209C20EE4F5A2
:100213002F200A03300D0BE4F534F545C20FC22934
:10022300805D302F29308003855D46E4F534E54554
:10023300C394FA50020545E567D39418400BC29066
:10024300E4F579D280D2878036E4F54580313000F9
:1002530029309003855D46E4F545E534C394FA50AF
:10026300020534E579D39418400BC280E4F567D2D4
:1002730090D287800AE4F5348005E4F534F545E54A
:1002830034D394645006E54594644031E575C394D2
:100293001950037575190568E568D3940C4021E47A
:1002A300F568E575D395294009E575D3941940029E
:1002B3001575E575C39529500705758003E4F57534
:1002C300052EE52EC394295003020652E4F52EE5CC
:1002D30059D3946450020559302B0D20220A20165D
:1002E30007201504E55060130561E561D3940540CB
:1002F30045E4F561A292B39292803B0561E561D337
:10030300940C4032E4F5610530E554600FE5309517
:10031300545007A292B392928002C292E5542404ED
:10032300FDE433FCE530C39DEC6480F874809840B1
:1003330005E4F530D292E578B4010575540C8036A6
:10034300E578B4020575540E802C201E0330040595
:100353007554088021300D05755404801920130647
:10036300201203301705755406800B300A057554A7
:10037300028003E4F554E538D394B24044201903D2
:10038300754D03E54EC3943A40120536E5369403A2
:10039300400D754D02D2197536058003E4F536E537
:1003A3004ED3942E50163019470537E537C394645E
:1003B300403E754D03C2197537658034E4F53780C7
:1003C3002FE538D39480400CC219E4F537F5367520
:1003D3004D02801CE538D3941A400CC219E4F5375A
:1003E300F536754D018009C219E4F537F536F54D3B
:1003F3003024130573E573C3943C4013D222E4F510
:10040300737560288009E4F573E5607002C2220504
:100413002AE52AD394195003020554E4F52A301F20
:1004230049200218E54D6003B40111056FE56FC360
:1004330094F04008D213E4F56F756028E54DB402DB
:1004430011056FE56FC394F04008D213E4F56F759F
:100453006028E54DB4031C056FE56FC394F04013AA
:10046300D213E4F56F7560288009E4F56FE56070D9
:1004730002C213302646E54D6003B401110577E54A
:1004830077C3945A4008D217E4F577756028E54D91
:10049300B402110577E577C3943C4008D217E4F51D
:1004A30077756028E54DB4031C0577E577C3942879
:1004B3004013D217E4F5777560288009E4F577E5F2
:1004C300607002C217302336E54D6003B401110595
:1004D3006DE56DC394144008D212E4F56D75602880
:1004E300E54D64026005E54DB4031C056DE56DC380
:1004F300940A4013D212E4F56D7560288009E4F57F
:100503006DE5607002C2123020130570E570C3946C
:10051300054013D215E4F5707560288009E4F57081
:10052300E5607002C2153021130571E571C39404AF
:100533004013D216E4F5717560288009E4F571E57E
:10054300607002C216E56060021560E53C6002154A
:100553003C302919300604C206D208E4F569F55780
:10056300F558200A04D2018019C2018015D206056C
:1005730058E55870020557D39498E557943A4002CA
:10058300C201E54FC394865011053BE53B94E1401E
:1005930019D20DC20F753C288010E4F53BE54FD30B
:1005A30094A14006E53C7002C20D20800BE579C39F
:1005B30094FA500705798003E4F57920900BE567F9
:1005C300C394FA500705678003E4F567E546D394BF
:1005D3000140071546755E028073E55E6004155E93
:1005E3008002C287E546605CE4F546F575120A4071
:1005F300201D0575750A8003E4F575120A40E4F5BC
:1006030046302907300804C208801BE4F551E55140
:10061300D39414500A3029F63008F3C20880070532
:1006230046E546B432DBE4F546C280C290F551E5B7
:1006330051D3946450083029F63008F3C208E4F526
:1006430075120A40C280C290E4F534F545C208220F
:10065300C2EFABC3E572640560030207A4757207BA
:1006630053E8F043B38053B47FF5F643F60143E117
:1006730001C2EFD2EEC2AEEB256CF56CE4356BF53F
:100683006B053FE53FC394085003020915E4F53FAA
:10069300E56CAE6B7803CEC313CE13D8F9F54EE4F5
:1006A300F56BF56CE559C394645003E4F54EE54EE0
:1006B300C394494015E54DB40110053EE4F556E5F4
:1006C3003ED394054012D220800EE4F53E0556E554
:1006D30056D394054002C220E54EC394654015E508
:1006E3004DB402100541E4F55AE541D39405401297
:1006F300D221800E055AE55AD394054005C221E460
:10070300F541E54ED394AD4015E54DB403100542D4
:10071300E4F55BE542D394054012D224800EE4F560
:1007230042055BE55BD394054002C224E54ED395B5
:100733002C40100543E4F55CE543D394054012D205
:1007430023800EE4F543055CE55CD394054002C2C7
:1007530023E54ED3952B4010053DE4F555E53DD3F8
:10076300940A4012D21F800EE4F53D0555E555D39A
:1007730094054002C21FE54ED3952D40120544E473
:10078300F55FE544D394055003020915D22622E40C
:10079300F544055FE55FD394055003020915C226AE
:1007A30022E5726407600302088575720453E8F05A
:1007B30043E80143AC0153ADFEF5F643F60243E1D2
:1007C30001C2EFD2EEC2AEEBD394F54002D204EBFA
:1007D300D39442500302085CE4F549E576946440FF
:1007E30011300F0EE5667003756601E566B402020B
:1007F300D22974BE2BFBD3947F40027B7F301A1621
:10080300E54DB40311EB75F0DAA4FFAEF07C007D87
:100813007F120C208F29201A16E54DB40211EB75B7
:10082300F08FA4FFAEF07C007D7F120C208F292077
:100833001A08E54DB40103752950201A15E54D70CA
:1008430011EB75F04FA4FFAEF07C007D7F120C20FE
:100853008F2974192529F52922EBD3941A4020E412
:10086300F576C204E54994645003020915200A058C
:10087300200D02D20FD2DFC229E4F566C20322D2D1
:100883000422E5726404704A75720653E8F043E883
:100893000743B30253B4FDF5F643F68043E101C2C7
:1008A300EFD2EEC2AE8B53EB2563F563E43562F50D
:1008B30062054AE54AC394404058E4F54AE563AE0D
:1008C300627806CEC313CE13D8F9F538E4F562F592
:1008D3006322E5726406703A75720553E8F043E8E3
:1008E3000443B12053B2DFF5F643F61043E101C2EE
:1008F300EFD2EEC2AEAF03EB2565F565E43564F5E3
:1009030064054BE54B700BF54BE564F54FE4F5647B
:10091300F56522C290C280C20C43B30853B4F7C238
:100923000453B1BF53B2BFC20353B1FB53B2FB4332
:10093300B12053B2DF53B17F43B28053B3FE43B40C
:100943000153B1FE43B201C290C28053B1F743B227
:100953000853B1FD43B20253B1FB53B2FB43B3029D
:1009630053B4FD53B3FB43B40453B3DF43B4204345
:10097300B11053B2EF43DE2043DE1043DF4053DFB9
:100983007F43D620A2AF9218C2AF75C7AA75C755C9
:1009930043F904A21892AF43DF0553DFFDE4F5D119
:1009A30075D9FF7F5EFE120003A2AF9218C2AF7526
:1009B300C7AA75C755439101A21892AFF5C4F5CCE8
:1009C300A2AF9218C2AF75C7AA75C7555391FEA2BD
:1009D3001892AFD2DED2DF75C6E075C5C0439C0264
:1009E300D2AF43C40843E80853E8F843E10153E8AE
:1009F300F043B38053B47FF5F643F60143E1017549
:100A03007205C2EFD2EEC2AE7580FEF575F5407584
:100A130052FF754C01D201D282D20BD22B757A8050
:100A2300D292C295F559C21DC202C214D21B53B34E
:100A3300EF43B410D294C219F537F53622208071F2
:100A430020906EE5666401706B756602F57853B1AC
:100A5300EF43B210C284F551E551D3942840F943D2
:100A6300B11053B2EFE4F551E551D3940340F9E4E7
:100A7300F551E551D39402500B3084F67578017526
:100A830066FF80EE53B1EF43B210D284E4F551E533
:100A930051D3942840F943B11053B2EFE4F551E533
:100AA30051D39402500E2084F67578027566FF8048
:100AB300EE756602E54C6575606885754CA2AF926C
:100AC30018C2AF75C7AA75C755439101A21892AF53
:100AD300E4F5C4C374FF9575F5CCA2AF9218C2AF09
:100AE30075C7AA75C7555391FEA21892AFD2DEE51A
:100AF30075C394FE400D53DEDF53DEEFD227C28170
:100B0300C28322E575700D53DEDF53DEEFD227C2B9
:100B130081D2832230270B43DE20E4F55143DE10DC
:100B2300C22722787FE4F6D8FD9000007FFF7E0382
:100B3300E4F0A3DFFCDEFA75817A020B7B020C750D
:100B4300E493A3F8E493A34003F68001F208DFF4EF
:100B53008029E493A3F85407240CC8C333C4540F67
:100B63004420C8834004F456800146F6DFE4800B3A
:100B7300010204081020408090002DE47E01936060
:100B8300BCA3FF543F30E509541FFEE493A3600167
:100B93000ECF54C025E060A840B8E493A3FAE493D1
:100BA300A3F8E493A3C8C582C8CAC583CAF0A3C87F
:100BB300C582C8CAC583CADFE9DEE780BE30285CC8
:100BC300C228300C143093110535E535C394054024
:100BD30008309305C294753505209340E4F5350537
:100BE3006EE56EC3940A4005E4F56ED20C2097259A
:100BF3003082290528E528C394FA4020E4F5280526
:100C030033E533943C4015E4F533056AE56A940A09
:100C1300400AC29422E4F528F533F56A22BC000B9E
:100C2300BE0029EF8DF084FFADF022E4CCF875F01F
:100C330008EF2FFFEE33FEEC33FCEE9DEC984005FE
:100C4300FCEE9DFE0FD5F0E9E4CEFD22EDF8F5F0C4
:100C5300EE8420D21CFEADF075F008EF2FFFED33CC
:100C6300FD4007985006D5F0F222C398FD0FD5F04A
:100C7300EA2212091675C7AA75C75575AA07A2AF46
:100C83009218C2AF75C7AA75C75543AA80A2189216
:100C9300AFA2AF9218C2AF75C7AA75C75543AA4092
:100CA300A21892AF439B1075E98075EA40759B02C9
:100CB300120BC0120086120A4030EFB9120653809D
:010CC300B47C
:00000001FF
